:020000040800F2
:10000000B0240020810200089D4F0008513A0008EA
:10001000994F0008D90600089970000800000000F8
:10002000000000000000000000000000B14F0008C8
:100030007507000800000000AD4F0008B54F00082C
:100040009B0200089B0200089B0200089B0200081C
:100050002D0800089B020008790700089B02000891
:100060009B0200089B0200089B0200086907000829
:100070009B0200089B0200089B0200089B020008EC
:100080009B0200089B0200089B0200080000000081
:100090000000000000000000000000009B020008BB
:1000A0009B0200089B0200089B0200089B020008BC
:1000B0009B0200089B02000879500008613A000882
:1000C000553A00089B0200089B0200089B020008AA
:1000D0009B0200089B0200089B0200080000000031
:1000E0009B0200089B0200089B0200080000000021
:1000F0000000000000000000000000009B0200085B
:10010000000000009B0200089B0200089B02000800
:1001100000000000000000000000000000000000DF
:100120009B0200089B0200089B0200089B0200083B
:100130009B0200080000000000000000000000001A
:10014000000000000000000000000000A14F0008B7
:100150009B0200089B0200089B0200089B0200080B
:100160009B0200089B020008000000000000000045
:10017000000000000000000000000000000000007F
:10018000000000003108000800000000000000002E
:100190009B0200089B02000800F002F800F060F8E3
:1001A0000AA090E8000C82448344AAF10107DA45D2
:1001B00001D100F055F8AFF2090EBAE80F0013F0C4
:1001C000010F18BFFB1A43F0010318478CA200006F
:1001D000ACA200000A444FF0000C10F8013B13F0F1
:1001E000070408BF10F8014B1D1108BF10F8015B90
:1001F000641E05D010F8016B641E01F8016BF9D183
:1002000013F0080F1EBF10F8014BAD1C0C1B09D1D9
:100210006D1E58BF01F801CBFAD505E014F8016B4B
:1002200001F8016B6D1EF9D59142D6D370470000DD
:100230000023002400250026103A28BF78C1FBD8EF
:10024000520728BF30C148BF0B6070471FB50AF086
:1002500024F89DE8030000F02BF91FBD10B510BD78
:1002600000F0B8F91146FFF7F1FF07F04FF800F082
:10027000D6F903B4FFF7F2FF03BC00F007FA000061
:100280000948804709480047FEE7FEE7FEE7FEE72A
:10029000FEE7FEE7FEE7FEE7FEE7FEE70448054966
:1002A000054A064B70470000655000089901000898
:1002B000B01E0020B0240020B0200020B02000207C
:1002C00070B5064600F0D8F8056806F10B0020F07E
:1002D0000704B4429CBF002070BD2B466A68BAB1C7
:1002E0001068A04210D304F1080188423CBF506856
:1002F000586007D35168101941601168091B0160EB
:1003000058601460101D70BD13465268002AE7D172
:100310002146284600F0B8F80028DED170BD53EA27
:10032000020C00F069802DE9F04B4FF00006002B25
:100330001FBFB3FA83F503FA05F424FA05F65E400D
:1003400012BF1643B2FA82F502FA05F4C5F1200590
:100350001EBF22FA05FC44EA0C04203556EA044C80
:100360004FEA144418BF641C4FF000084FF0000916
:10037000904271EB030C39D3002919BFB1FA81F710
:1003800001FA07F6B0FA80F700FA07F6C7F120077E
:100390001EBF20FA07FC46EA0C062037B6FBF4FC29
:1003A000A7EB0507103F07F01F0BCBF120062CFA37
:1003B00006F60CFA0BFB44BFB3460026202FA4BF61
:1003C0005E464FF0000B5BEA060C08BF4FF0010BD6
:1003D00019EB0B0948EB0608ABFB027C06FB02CCD1
:1003E0000BFB03CCC01B71EB0C01C1E70B460246B3
:1003F00041464846BDE8F08B13B5084318BF4FF09F
:10040000FF300146AFF30080BDE81C40704710B5D7
:10041000203AC0F00B80B1E81850A0E81850B1E8BD
:100420001850A0E81850203ABFF4F5AF5FEA027CFC
:1004300024BFB1E81850A0E8185044BF18C918C02C
:10044000BDE810405FEA827C24BF51F8043B40F8CD
:10045000043B08BF7047D20728BF31F8023B48BFB2
:1004600011F8012B28BF20F8023B48BF00F8012BF0
:1004700070477047704770470048704788010020F8
:10048000704770477047704738B504460A460020E9
:100490006946AFF30080002808BF38BD02460099C6
:1004A000204600F075F8012038BD012000F08AB820
:1004B000F8B5AFF30080054600200C46102000BFC1
:1004C0000646A819A0420DD9324669460020AFF36E
:1004D0000080070008BF00F075F80098A04218BF20
:1004E0000546C419FFF7C8FF05600746F01D20F058
:1004F00007004619284600F00AF8B44208BFF8BDC4
:10050000A21B31463868BDE8F84000F041B8002130
:100510000160C0E9011070471020704770B50446B3
:10052000051FFFF7A9FF0068002C14BF446870BDC9
:10053000002C18BFAC423CBF20466468F8D3016869
:100540000A18AA4218BF456003D12A68054611441B
:10055000016028684119A1421CBF6C6070BD6168D0
:10056000696021680844286070BD10B500F00CF87F
:10057000006810BD10B5044600F006F8046010BD18
:10058000004870478001002000487047800100202B
:10059000034640688C46002818BF88423CBF03468B
:1005A0004068F8D318681844884207D00CF103005B
:1005B00020F00700001D411A521A0146081D0A606A
:1005C000FFF7ACBF10B500F039F8BDE8104000F0FF
:1005D0002FB870477546FFF7D3FFAE460500694652
:1005E000534620F00700854618B020B5FFF756FEA9
:1005F000BDE820404FF000064FF000074FF0000824
:100600004FF0000BAC46ACE8C009ACE8C009ACE860
:10061000C009ACE8C00921F007018D46704710B54C
:100620000446AFF300802046BDE81040FFF721BE2E
:10063000002801D000F02AB87047000010B501284A
:1006400005D0002103A000F027F8012010BD09A16A
:10065000F8E7000053494752544D454D3A204F7535
:1006600074206F662068656170206D656D6F7279AA
:10067000000000003A2048656170206D656D6F7262
:100680007920636F72727570746564000149182077
:10069000ABBEFEE72600020070B505460C460A20F8
:1006A00000E06D1C00F011F835B128780028F8D171
:1006B00002E0641C00F009F814B120780028F8D199
:1006C000BDE870400A20AFF3008008B569468DF898
:1006D00000000320ABBE08BDFEE70000002070470D
:1006E0000020704710B541F2B464C2F2000440F635
:1006F000B461C2F200012046002204F0E7FD40F29E
:10070000B461C2F20001204604F0D6FD002010BD05
:1007100010B541F2B464C2F200040146204604F070
:10072000CBFD204604F0AAFD002010BD002070473C
:1007300010B541F2B462C2F20002D2F8BC22D2F883
:100740001432002B1CBF012010BD41F2B464C2F270
:1007500000040A460146204604F0B8FD2046BDE8E4
:10076000104004F035BE000041F68410C2F20000D3
:1007700000F076B870470000012000F0C9BA000010
:10078000EFF3108072B600BFFEE7000080B543F6BD
:100790001043C4F20203D3F800C04FF4407E2CF49F
:1007A00040721A601A68032938BF4FEA012E42EAE4
:1007B0000E011960196821F0F8011960196841EA01
:1007C000C00040F002001860186840F480301860E3
:1007D00080BD000043F60040C4F2020001688905B4
:1007E0000FD5016821F400710160016841F40061D6
:1007F0000160016821F400610160016841F4007149
:1008000001600168490558BF7047016821F48061A3
:100810000160016841F480510160016821F4805158
:100820000160016841F480610160704700F0C0B967
:100830007047000090F83510022909D1052180F891
:1008400035100068016821F0010101600020704747
:10085000802141650120704790F835007047000005
:10086000F0B581B004460020009040F22400C2F2AE
:1008700000000268D4E9166048F2B5133768082111
:10088000C1F64E3381403942A2FB03250CD02268C9
:1008900013685B0708D5136823F004031360B16085
:1008A000616D41F00101616501218140394208D04B
:1008B00022685269120604D5B160616D41F00201EF
:1008C000616504218140394208D02268126892078C
:1008D00004D5B160616D41F0040161651021814072
:1008E000394217D020680268120713D5B160026838
:1008F0000168520308D4C90508D4016821F0080131
:100900000160216C21B905E008033FD4216C09B1D5
:1009100020468847E16D202000FA01F23A4241D09A
:1009200020680368DB063DD5B26094F83530026874
:10093000052B1BD122F016020260426922F08002D0
:100940004261226C0AB9A26C1AB1026822F0080254
:1009500002603F208840B060012084F83500216D9E
:100960000020002984F8340052D157E00168520376
:1009700010D4C90512D4016821F0100101600120D2
:1009800084F83500002084F8340007E0A16C0029C9
:10099000BED1BFE7080301D4616C00E0E16B09B18F
:1009A00020468847606DC8B3606DC0072ED0052013
:1009B00084F835002068A90A026822F0010202606A
:1009C000009A01328A4200921AD80268D20717D0E0
:1009D000009A01328A42009212D80268D2070FD0E0
:1009E000009A01328A4200920AD80268D20707D0E0
:1009F000009A01328A42009202D80268D207DFD1FF
:100A0000012084F83500002084F83400E16C29B11D
:100A1000204601B0BDE8F040084700BF01B0F0BD7E
:100A20002DE9F041044600F06BFA002C4ED005464B
:100A3000022084F835000020216884F8340008681A
:100A400020F0010008600868C00708D000F058FADC
:100A5000401B05286CD821680868C007F6D10868D3
:100A600048F23F02CFF21002D4E90135024004F10E
:100A70000C0E9EE8C1511A432A43104330433843B9
:100A800040EA0800626A40EA0C00042A40EA0E03C9
:100A900020D1D4E90A5E206B4EEA030210430860BD
:100AA0004869BEF1000F20F0030040EA050040F065
:100AB000040C15D0B8F5005F42D0B8F1000F51D149
:100AC000022D52D0012D47D055B94EE00120BDE88E
:100AD000F08100BF0B60486920F0070040EA020C7B
:100AE0006FF00F004AF6AB2250FA81F0CAF6AA2244
:100AF000A0FB02231A094AF25043C0F600039A5C95
:100B000040F2FF335F284FF03F00C1F814C021EAE4
:100B1000030100FA02F088BF0431C4E916128860AC
:100B2000002301220020636584F83520BDE8F081B0
:100B3000032220230320636584F83520BDE8F0817B
:100B4000032DCDD8012240230120DFE805F0030E5C
:100B5000030500BFE7E700BFAEF1C070B0FA80F058
:100B6000400904E0032D04D3BAD1CEF3006000287D
:100B7000B6D0012240230120636584F83520BDE80A
:100B8000F0810000B0B5044600F0BAF9054640F225
:100B90000000C2F200000078611C18BF044400BFCE
:100BA00000F0AEF9401BA042FAD3B0BD7047000080
:100BB000B0B543F60C44C4F20204206841F68865DF
:100BC00010F4F97FC2F2000531D02878012807D14E
:100BD000E8684FF0FF31E9602168C90608D40DE0EC
:100BE0002878022814BF686928692168C90605D5D4
:100BF000E96941F01001E96110212160216889064D
:100C00002ED42168490634D4216809063AD42168D3
:100C1000C90540D42168890705D5E96941F020015B
:100C2000E9610221216000F06FF80020287020683F
:100C3000C00756D0012020602878012836D1686886
:100C4000013868606868002840D0E868FFF7AEFFA8
:100C5000E8680130E860E868297AFFF797FD40E02E
:100C6000E96941F00801E961202121602168490614
:100C7000CAD5E96941F00401E96140212160216898
:100C80000906C4D5E96941F00201E96180212160CA
:100C90002168C905BED5E96941F00101E9614FF458
:100CA0008071216021688907B7D4BCE7284610F815
:100CB000141B022903D1FFF78DFD05F11000006818
:100CC000FFF774FF002028700BE000BF4FF0FF30EB
:100CD000E86000202870FFF77DFD4FF0FF30FFF740
:100CE00065FF2878002818BFB0BD606820F0FF00BD
:100CF0006060606820F080706060606820F0007064
:100D0000606000202876B0BD70470000704700008A
:100D100043F61441C4F201010A68024214BF08609C
:100D20007047FFF7F3BF00002DE9F04F82B000F1EC
:100D30003E4241F2000502F1FF77C4F202050722AC
:100D40004FEAB726A84208BF0422042E38BF4FEA54
:100D5000B7224FF0010E002400274FF00008009248
:100D600008E000BF023708F10108202F04F1040455
:100D700000F0B4800E680EFA08F916EA090FF1D0F7
:100D8000D1F804A00AF0030BABF10106012E19D82B
:100D90000322866802FA07FECA6826EA0E06BA40EF
:100DA000324382604268CAF3001522EA090205FA5A
:100DB00008F54FEA480C6FEA0E064FF0010E2A4381
:100DC00042600BE00322BA40D643BBF1030FBC469E
:100DD00004D1BC464FF0030B24E000BFC2688D680D
:100DE000324005FA0CF52A43BBF1020FC26019D15B
:100DF0006FF0030202EA5802024404F01C030F25BC
:100E0000D2F820E005FA03FA0D692EEA0A0E05FA77
:100E100003F343EA0E031362D1F804A04FF0010E6E
:100E20000AF0030B02680BFA0CF332401A431AF46F
:100E3000403F026096D0002243F644030192C4F280
:100E400002031A6843F6004C42F480421A601A68A2
:100E5000C4F2010C02F480420192019A28F00302CC
:100E60004FF6084A6244CFF6FF7A52F80A3004F08F
:100E70000C060F25B540AB43009D05FA06F633433B
:100E800042F80A30DCF800204B6842EA0906DD032C
:100E900058BF22EA0906CCF80060DCF804209D0364
:100EA00042EA090658BF22EA0906CCF80460DCF8D9
:100EB0000820DD0242EA090643F60C4558BF22EA43
:100EC0000906CCF80860C4F201052A689B0242EAD0
:100ED000090658BF22EA09062E6043E702B0BDE8C2
:100EE000F08F0000426902EA0103914341EA0341A5
:100EF00081617047002A08BF0904816170470000C2
:100F000041F6A860C2F20000006870477047000018
:100F100070470000F0B581B00446006800254769BD
:100F2000426894F83E1002F48076FA0505D5002E4A
:100F30001EBF6FF4807242610125BA0505D5002EEF
:100F40001EBF02356FF4007242617A0516D5AEB14C
:100F5000628D94F83D30D4F830C0202908BF002AB3
:100F600024D06FF48062402905F10405426101D06C
:100F7000102903D1016841F400710160380507D5DB
:100F800036B1206808356FF40061416101E000BFAF
:100F900055B1206C40EA05012046216401B0BDE84E
:100FA000F04002F0FBBD00BF01B0F0BD03F0F7015F
:100FB000212909D0282B08BFBCF1210F04D06FF4E0
:100FC000806141610435D9E794F83D10E26AB2F1DD
:100FD000080318BF0123203A18BF0122134208BF9B
:100FE00028291DD0212935D10021CFF6FF71E162DA
:100FF00021212163202184F83D10002184F83E1036
:10100000416821F4E06141606FF4806141610168F1
:1010100021F480610160204600F096FFAEE700BF3A
:101020000021CFF6FF71E162416821F4E061416087
:101030006FF480614161016821F4806101600020EA
:101040002021206384F83D1084F83E00204600F003
:10105000CBFB93E76FF4806141618FE7F0B581B01E
:10106000076804467868E26A94F83E3094F83DE0F8
:10107000402B01D0102B27D1BE697D69E90751D1E2
:10108000B2F12A4F00F0A282B2F52A0F00F09E8240
:1010900000F400724FF0010C29078CEA522C45D560
:1010A000002A43D0606B616CC9B2396118B1C06B62
:1010B000002840F02281A06B002800F08782C06BDE
:1010C000002840F01A8181E2216C00F400730029AD
:1010D0000CBFBE6900267D69A90753D5002B51D0EE
:1010E000206C002818BFBE6994F83D0000F028006D
:1010F000282840F093807868002320F4806078608E
:10110000012020EA960130064FF0180058BF0C204D
:10111000225A204684F83C3001B0BDE8F040FFF789
:10112000F7BE00BF810557D44FF0010CA90759D570
:10113000BCF1000F56D194F83E30E06A226B94F86F
:101140003D10222940F0E080216D002908BF402B8E
:1011500000F0DA80216D002940F034812169B1F579
:10116000404F40F02F810020009078690090B869CE
:1011700000900098386840F480703860206D01302D
:101180006DE200BFE90655D5002B53D094F83D50D1
:10119000786820F4E0607860002000907869009022
:1011A000386840F0010038600098386820F48060AA
:1011B00038607868000540F1428105F0F700264666
:1011C000222840F01B8156F8380F0168496826F83C
:1011D0000E1C36F80E1C19E1E06AB0F52A0F5DD13D
:1011E000012060E07968720701F4006100F19680E7
:1011F000002940F0EB81690605F0040140F1AE8161
:1012000010F4806000F0AA81002940F0A7812046F8
:1012100001B0BDE8F04002F0FBBD00BF002000902F
:1012200079690091B9690091009984F83C0001B096
:10123000F0BD00BF0EF0F701212940F0858029069E
:1012400005F0040240F14C8110F4806000F0488108
:10125000002A40F0458194F83D00618D002900F09E
:10126000B581616A11F8012B3A616162618D0139C2
:101270006185618D002908BF292840F0A781786821
:10128000282120F48060786021202063204684F8A3
:101290003D1001B0BDE8F04000F056BEE06AB0F18C
:1012A0002A4F01D10820E06294F83E0040280BD17B
:1012B000206D616C002801F0FE0018BF40F00100B5
:1012C000386101B0F0BD00BF2069B0F5804F69D131
:1012D00094F83D00616C212801F0FE0118BF013136
:1012E0003961606B08B1C06B38B9A06B002800F0A1
:1012F0006D81C06B002800F06981786840F400605F
:10130000786001B0F0BD00BF0020009078690090C7
:10131000B8690090009801B0F0BD00BF002940F00E
:101320005581290605F0040140F1248110F4806004
:1013300000F02081002940F01D81204601B0BDE869
:10134000F04002F043BE00BF690605F0040240F120
:10135000D98010F4806000F0D580002A40F0D2805F
:1013600094F83D00618D002900F030813969626A8E
:101370001170616A01316162618D01396185618D30
:10138000002908BF2A2840F021812068416821F403
:1013900080614160222028212063204684F83D108E
:1013A000D7E000BF206D002800F0BE80206D01282E
:1013B00040F00C81606C062101EAD010F1303861F8
:1013C00001B0F0BD618D61B1618D012940F0E28015
:1013D000202818BF082840F0FB80386820F480607F
:1013E00038600020009078690090B86900900098FB
:1013F000386840F40070386030E100BF56F8340FB0
:101400000168496826F80A1C36F80A1C19B1216CD3
:1014100041F004012164796821F400617960FFF7EB
:101420001BFA01280BD0306843F67921C0F6000181
:101430000165FFF7FFF910B13068016D8847608DD5
:1014400060B120684169490730D4416949063AD4FE
:10145000608D18B1206C40F004002064206C28B12D
:10146000204601B0BDE8F04002F098BB2A2D07D11C
:1014700000202063282084F83D00204600F062FD13
:1014800094F83D00282857D10020CFF6FF70E06285
:1014900000212020216384F83D00204684F83E107E
:1014A00001B0BDE8F04000F09FB900BF0069616A7B
:1014B0000870616A206801316162618D013961855E
:1014C00041694906C4D50069616A0870606A0130E3
:1014D0006062608D01386085608D0028BAD1BDE7FB
:1014E000002A18BF002B71D0608D00286ED0606A72
:1014F00010F8011B39616062608D0138608501B0B0
:10150000F0BD00BF002A18BF002B5FD0608D0028FF
:101510005CD03869616A0870606A01306062608D11
:101520000138608552E000BF606C062101EAD010EE
:10153000F030386101B0F0BD206B222818BF222D99
:1015400044D100212020216384F83D00204684F806
:101550003E1001B0BDE8F04000F0F4BCB1FA81F0FB
:10156000400950EA0C0031D1204601B0BDE8F040FE
:1015700002F0DABBB1FA81F0400950EA0C0025D143
:10158000BEF1210F1AD1204601B0BDE8F04002F0B3
:10159000DBBC00BF618D02290CD110283CD8012191
:1015A00014228140C0F20102114235D04FF4806212
:1015B00038E000BF396841F4806135E0402B05D147
:1015C000204601B0BDE8F04002F05ABD01B0F0BDC8
:1015D00010F5803F0CD1386820F48060386078685E
:1015E00000057FF5FEAE386820F4806038602EE09C
:1015F000122A02D101287FF4F0AE1028F3D801217D
:1016000001FA00F01421C0F201010842EBD0386861
:1016100040F4806038601AE039684FF4006221F4C9
:1016200080613960396811433960796809050ED5E0
:10163000421E1F2A16D80121914048F28102C8F2A9
:10164000000211420ED0786840F48050786000208B
:10165000009078690090B86900900098002020659B
:1016600001B0F0BD10F5803FEDD0F0E7704700000D
:1016700070B5B8B3044690F83D0028B9002084F84E
:101680003C00204600F0F8FB242084F83D00206850
:10169000016821F001010160016841F4004101602D
:1016A000016821F40041016001F0D4FC48F280415E
:1016B000C0F21E0140F60013D4F804E088424FF057
:1016C0000001C0F23D0348F2A16C4FF0000238BFA8
:1016D00001219842C0F2010C38BF0122E64538BF13
:1016E0000A460AB1012070BD4DF68361C4F21B3178
:1016F000A0FB01122168950C4B684FF4967623F0FD
:101700003F0343EA9243754344F6D3564B60C1F21C
:1017100062060B6AA5FB0656B50923F03F03E645B2
:1017200038BF950C6A1C1A430A62CA6948F2A0665F
:101730004CF6FF73C0F20106B64522EA03020BD84D
:1017400001384FEA4E03B0FBF3F001306FF31F3066
:10175000042898BF04201EE0A368013863B1192350
:101760000EFB03F3B0FBF3F001306FF31F3078B1E1
:1017700000F5804008E000BF0EEB4E03B0FBF3F035
:1017800001306FF31F3028B100F5004003E000BFC7
:10179000012000E001201043C8610868D4E9072354
:1017A00020F0C000104318430860886848F2FF32F8
:1017B00004F10C0690434CCE18431043A569886091
:1017C000C86820F0FF0030432843C860086840F034
:1017D0000100086000202021206484F83D1020636F
:1017E00084F83E0070BD00007047000070470000A4
:1017F0007047000070470000704700002DE9F04777
:1018000084B0984617460E460446FFF779FB94F8D5
:101810003D10202923D1054620688169890719D503
:10182000FFF76EFB401B1928F6D90020202120630A
:1018300084F83D1084F83E00206C04F13C0940F02F
:10184000200020640220002189F8001004B0BDE8C7
:10185000F08700BFA14619F83C1F012904D10220DE
:1018600004B0BDE8F08700BF012289F800200368BA
:10187000DDE90D1A0C9ADB0703D1036843F001037D
:101880000360036823F400630360222084F83D00B2
:10189000402084F83E000020206462626185608DF3
:1018A000314620850020CFF6FF70E06220463A46A0
:1018B0004346CDF800A0019502F03CFC20B1012088
:1018C00004B0BDE8F08700BF208DA8B102282BD05E
:1018D000012835D121680A6822F480620A6000225A
:1018E00003924A6903928A690392039A0A6842F44E
:1018F00000720A602CE000BF00200390206841695C
:101900000391816903910399016841F400710160B9
:10191000202084F83D00002084F83E00002189F852
:10192000001004B0BDE8F08721680A6822F48062E4
:101930000A600A6842F400620A600022039202E030
:101940000021039121684A690392896903910399EF
:101950000AF1010680B2032818D8022842D00128D3
:1019600056D1BAF1000F00F0AB802068014651F863
:10197000142F520600F1A8800868C00600F1E2802A
:10198000FFF7BEFA401B5045EFD9D0E0BAF1000F87
:1019900010D000BF2068014651F8142F52060ED413
:1019A0000868C00600F1CE80FFF7AAFA401B504538
:1019B000F0D9BCE020684169490640F1B180006976
:1019C000616A0870606A2268411C208D616201387A
:1019D0002085638D013B638553695B0740F18080FF
:1019E000106973E020684169490747D4002E59D037
:1019F000BAF1000F00F09980FFF782FA401B5045C2
:101A000000F29580206841694907F5D536E000BFAE
:101A10002068416949070FD4002E65D0BAF1000F44
:101A200000F08380FFF76CFA401B504500F27F8086
:101A3000206841694907F5D5016821F4806101609A
:101A40000069616A0870606A218D01300139606245
:101A500021852068618D01396185416949070DD46F
:101A6000002E4FD0BAF1000F5FD0FFF749FA401BAC
:101A700050455CD8206841694907F6D5016841F4B2
:101A8000007101600069616A0870606A2268411C27
:101A90006162218D01392185618D0139618511696D
:101AA000417014E041694907E8D4416949075CBFC6
:101AB00041695FEA4171E1D441694907F2D5DDE747
:101AC0002068416949062BD50069616A0870606A1F
:101AD000218D01306062481E2085618D013961854C
:101AE00001047FF437AF13E741694907A4D4416982
:101AF00049075CBF41695FEA41719DD4416949076B
:101B0000F2D599E741694907B8D4416949075CBFF3
:101B100041695FEA4171B1D441694907F2D5ADE746
:101B200050F8141FC90601460CD4FFF7E9F900204C
:101B30002021206384F83D1084F83E00206C40F0A2
:101B400020000AE06FF010000860002020212063D0
:101B500084F83D1084F83E00206C206401200021B0
:101B600089F8001004B0BDE8F087000070B581B0BE
:101B70000025009590F83D50202D3FD140F22405DE
:101B8000C2F200052D684BF28954ED08C1F2F84409
:101B9000A5FB0454DDE9056E250A1924654300956B
:101BA000009D013D0095009D75B30568AC69A407D3
:101BB0001AD5009D013D0095009D2DB30568AC69C7
:101BC000A40711D5009D013D0095009DE5B1056874
:101BD000AC69A40708D5009D013D0095009D9DB10D
:101BE0000568AC69A407DBD490F83C40012C1DD1FA
:101BF0004FF0020C604601B070BD00BF4FF0020C08
:101C0000604601B070BD00BF00212022016380F852
:101C10003D2080F83E10026C4FF0010C42F0200293
:101C2000026480F83C10604601B070BD2C68E40787
:101C300003D12C6844F001042C602C684FF0000C98
:101C400024F400642C60222480F83D40402480F875
:101C50003E40C0F840C04662A0F82AE0468D00240D
:101C6000CFF6FF740685C46241648264C364C0F821
:101C700050C02968002E41F480612960296841F430
:101C80008071296080F83CC0B4D068684FF0000CC7
:101C900040F4E0606860604601B070BD2DE9F0433B
:101CA00083B0994616460F460446FFF729F994F883
:101CB0003D1020291CD1054620688169890713D56C
:101CC000FFF71EF9401B1928F6D9002020212063B8
:101CD00084F83D1084F83E00216C41F0200121641D
:101CE00084F83C0004E000BF94F83C10012903D1C3
:101CF000022003B0BDE8F083012284F83C20036891
:101D0000DDE90B180A9ADB0703D1036843F00103EE
:101D10000360036823F400630360212084F83D001E
:101D2000402084F83E000020206462626185608D5E
:101D3000394620850020CFF6FF70E062204632460B
:101D40004B46CDF80080019502F084FB20B10120C4
:101D500003B0BDE8F08300BF208D002850D020687C
:101D600008F10106014651F8142F12062CD49EB139
:101D7000B8F1000F5AD000BF086840055ED4FFF7E5
:101D8000BFF8401B404556D82068014651F8142F33
:101D90001206F1D518E000BF0A6852054ED40A6851
:101DA000120611D40A68520548D40A6812060BD4E8
:101DB0000A68520542D40A68120605D40A68520518
:101DC0003CD40A681206E7D5626A114611F8013B55
:101DD0000361238D6162591E2185678D013F6785EF
:101DE00047697F070AD50F0408D051780161911C1B
:101DF0006162991E2185628D013A62850904B1D123
:101E0000204641462A4602F05FFC38BB2068016844
:101E100041F400710160202084F83D00002084F826
:101E20003E0084F83C0003B0BDE8F083086840053C
:101E300004D4FFF765F8202004E000BF6FF4806051
:101E40000860042000212022216384F83D2084F8CA
:101E50003E10226C1043206484F83C10206C04284F
:101E60007FF475AF2068016841F4007101600120C2
:101E700003B0BDE8F083000070B586B00446016889
:101E800045F20040C4F20000814201D006B070BDAE
:101E9000002643F630050196C4F20205296800F5D4
:101EA000D83041F002012960296801F00201019156
:101EB00001994FF4407101911221CDE902160321DD
:101EC00004910421059101A9FEF72EFF00962869CF
:101ED0004FF0007140F400102861286941F6841524
:101EE00000F400100090009846F21000C2F20005C5
:101EF000C4F2020085E843004FF440304FF48062A2
:101F0000C5E908062846C5E90362C5E90566EE612C
:101F1000FEF786FD002818BFFEF732FC1F200021C7
:101F20000022A563AC6300F09DF81F2000F08AF842
:101F300020200021002200F095F8202000F082F8F7
:101F400006B070BD704700007047000040F200000E
:101F500041F6A861C2F20000C2F2000100780A68EE
:101F6000104408607047000080B543F60040C4F29A
:101F70000200016841F400710160016841F4806170
:101F80000160016841F480710160032000F096F85F
:101F90000F2000F005F800F027F8002080BD0000B9
:101FA00070B540F20006C2F2000640F22401327819
:101FB000C2F200014FF47A730968B3FBF2F20446EF
:101FC000B1FBF2F1084601F04BFA0F2C4FF001057E
:101FD00008D838B94FF0FF3021460022002500F024
:101FE00041F87460284670BD80B582B0002043F689
:101FF00040010190C4F202014A6842F480424A6002
:102000004A6802F480420192019A00900868002216
:1020100040F0805008600868002100F08050009077
:102020000098042000F01EF8042000F00BF8512066
:102030000021002200F016F8512002B0BDE88040D7
:10204000AFF30080002848BF704700F01F01012255
:1020500002FA01F14EF200124009CEF2000242F8FB
:102060002010704710B54EF60C5CCEF2000CDCF878
:102070000030C3F3022E8EF00704042C28BF042482
:10208000BEF103034FF0FF3E0EFA04F438BF002305
:10209000A14399400EFA03F39A43114300F00F0253
:1020A000043A624409010C3200F16043B0F1FF3F91
:1020B000C8BF03F56442117010BD00004EF60C510C
:1020C000CEF200010A684FF6FF031A4060F30A22BD
:1020D00042F0806040F0FD7008607047704700007B
:1020E00002680020516270472DE9F043D0F800905B
:1020F000D9F82400A1B1D9F82830B1F1010800EBDA
:1021000013435DD0A8F10100C0B2032808F0030C0E
:102110000ED24FF0010E0027BCF1000F33D14FE07B
:1021200040EA0240C9F828000020BDE8F08300BF63
:1021300008F0FC0E09F1F404002009F5827500BFD7
:1021400054F8107F064603EB174046F00103DBB25C
:1021500046F0020755F82330FFB255F8277000EB20
:10216000134000EB174346F00300C0B255F82010AF
:10217000301DC7B2774503EB1143E1D106F1050EDF
:10218000BCF1000F1CD009EB8700D0F80401BCF1B2
:10219000010F03EB104313D05FFA8EF009EB8000C0
:1021A000D0F80401BCF1020F03EB104308D00EF18C
:1021B0000100C0B209EB8000D0F8040103EB10432A
:1021C00043EA024009EB8801C1F804010020BDE8A0
:1021D000F0830000D0F8040403F0BCBBC1EBC102E3
:1021E000D0F8043400EB8200826C184603F026BB62
:1021F000C1EBC102D0F8043400EB8200D0F8082211
:10220000184603F06FBB0000D0F8040403F0A4BB31
:1022100010B50446080601F00F00C0EBC00104EB46
:10222000810205D402F5FE71002382F8FD3104E03D
:10223000012302F13C0182F83D3094F8BC23087080
:10224000012A04BF022010BD2068012284F8BC23AB
:1022500004F0FAF8002084F8BC0310BDB0B5426861
:10226000044601F00F00904284BF0120B0BD090672
:102270000AD4C0EBC00104EB810202F5FE71002319
:1022800082F8FD3109E000BFC0EBC00104EB810220
:10229000012302F13C0182F83D3094F8BC23002573
:1022A000012A8D70087004BF0220B0BD2068012291
:1022B00084F8BC2304F0CAFB284684F8BC53B0BDA4
:1022C00001F00F01C1EBC10100EB8100D0F8140255
:1022D00070470000B0B50546080601F00F00C0EBDE
:1022E000C00105EB810C05D40CF5FE7100248CF8BF
:1022F000FD4104E001240CF13C018CF83D404C7898
:102300000870002C8A60CB7018BFC880022B04BFF5
:102310000020087195F8BC03012804BF0220B0BD5D
:102320002868012285F8BC2303F058FF002085F8B7
:10233000BC03B0BD10B501F00F0CCCEBCC0100EB31
:1023400081044FF0000EC4F814E284F8FDE1D0F8E7
:1023500010E0C4F80822C4F81032BEF1010F84F86E
:10236000FCC108BFC4F80C22006804F5FE715FFAD6
:102370008EF2BCF1000F03D004F0B0FB002010BDC2
:1023800004F0B8FA002010BDB0B50446406801F072
:102390000F05854284BF0120B0BD08060AD4C1EBF9
:1023A000C10004EB800000F5FE71002280F8FD21E1
:1023B00009E000BFC5EBC50004EB8000012200F17D
:1023C0003C0180F83D2094F8BC03012201288A706A
:1023D0000D7004BF0220B0BD206884F8BC2304F057
:1023E0005DFB1DB1002084F8BC03B0BD2068217CDA
:1023F00004F5717204F0FCFA002084F8BC03B0BD4F
:10240000B0B501F00F0CCCEBCC0100EB81052946F7
:1024100001F83CCF0024D0F810E08C6101244C700E
:10242000CA60BEF1010F4B6108BFEA6400685FFA41
:102430008EF2BCF1000F03D004F050FB0020B0BDC1
:1024400004F058FA0020B0BD2DE9F04F89B00768BC
:102450008346384604F08AFC10B109B0BDE8F08F1D
:10246000DBF8000004F0B0FC0028F6D0DBF8000038
:1024700004F0AAFC0146DBF80000890703D5416996
:1024800001F00201416104F09FFC0146DBF800000D
:10249000C90604973BD5816921F0100181613D6A2D
:1024A000C5F34340062805F00F0419D0022828D1AF
:1024B00047F6F07015EA000623D0C4EBC4000BEB1E
:1024C0008007D7F80812350904982A4604F080FCE2
:1024D000D7F8080200EB1610C7F80802049F07E0BF
:1024E0000BF571713846082204F072FCC5F30A1529
:1024F000C4EBC4000BEB8000D0F814122944C0F8E0
:102500001412DBF80000816941F01001816104F0D0
:102510005BFC000340F1DA80DBF8000004F032FCE1
:10252000002800F0D38006460BF571700BF501749E
:102530004FF000084FF4306A08901EE05FEAC9606F
:1025400042BF07EB0A00102181605FEA896042BF49
:1025500007EB0A00202181605FEA894042BF07EB58
:102560000A004FF40051816008F1010876080AF171
:10257000200A04F11C0400F0A980F007F4D0DBF875
:1025800000005FFA88F5294604F016FC8146C00772
:102590006FD007EB0A0001218160DBF800000AEB35
:1025A000000C036CDCF80820DBF81070012F25D13B
:1025B000170737D4970655D4049F12F0280F58D127
:1025C00043F20B01C4F654718B4202D312F4004261
:1025D00032D1DCF81010D4E900236FF3DF41511A37
:1025E00021619918B8F1000F616016D1DBF8101263
:1025F00099B9089A012104F0FBF90EE043F20B07A8
:10260000C4F65477FF37BB421CD110042CD4049F6E
:10261000900644BF2020CCF8080058462946FFF712
:10262000E7FD26E043F20B00C4F65470049F83429A
:102630001FD312F400401CD04FF40040CCF8080027
:1026400017E000BFB8F1000F06D1DBF8101219B97E
:10265000089A002104F0CCF958462946FFF7C8FD36
:1026600006E000BF202001E04FF40040CCF8080055
:10267000049F5FEA09707FF561AF07EB0A0008214C
:102680008160DBF8000043F20B02056C5044C4F695
:1026900054728168571EBD4205D911F400411CBF18
:1026A0004FF400418160584600F0DCFBBD42049FBE
:1026B0007FF644AFDBF8100001287FF43FAFDBF872
:1026C0000000089A012104F093F937E7DBF80000D5
:1026D00004F07AFB400340F1CB80DBF8000004F00B
:1026E00049FB002800F0C480064607F5106A0BF588
:1026F000717000240290CDF818B0CDF80CA010E055
:10270000079B04F00F00D3F83418012202FA00F0FE
:1027100021EA0000C3F83408760804F1010400F04F
:10272000A780F007F8D0DBF80000E1B2089104F0D0
:1027300031FB0546C00727D004F00F00D7F8341846
:10274000012202FA00F021EA0000C7F834080AEB7F
:1027500044108260DBF81000012811D1C4EBC400E2
:102760000BEB8000D0E911121144816444B9DBF80D
:10277000500028B9DBF80000029A012104F038F972
:1027800008995846FFF72AFD280742BF0AEB441074
:1027900008218160E80642BF0AEB441010218160E5
:1027A000680642BF0AEB441040218160A80742BF7F
:1027B0000AEB4410022181602806ADD5C4EBC400A9
:1027C0000BEB8005A94659F8502FC84658F8040F5E
:1027D0008242A1D3DBF8007055F8443F111A9942A8
:1027E00088BF1946079707EB441CDCF818790331BA
:1027F000BFB2B7EB910F28BF824205D8049F824237
:102800003FF68AAF7CE700BF05F1040BDBF8001050
:102810000CF5106A059500BF151A06989D42077CB5
:1028200088BF1D46DDE90702ABB2009704F0FAFB52
:10283000DBF80000EB1C4119D8F80000CBF80010C1
:102840002844C8F80000DAF8182097B2D9F8002018
:10285000B7EB930F28BF824202D9059B1B68DBE7C9
:10286000DDF818B0DDE903A782423FF655AF47E730
:10287000DBF8000004F0A8FA002825D4DBF80000FB
:1028800004F0A2FA00053ED4DBF8000004F09CFA44
:10289000C00449D5D7F80408102120F00100C7F87A
:1028A0000408DBF8000007F5006404F01FFADBF809
:1028B0000410002900F00C81481E032801F0030CCD
:1028C00036D20021B1E000BFD7F8040820F00100A3
:1028D000C7F804089BF8F403012807D100208BF8FF
:1028E000F40358460021FFF7F9FB02E0584600F0D8
:1028F0009DFADBF80000416901F00041416104F0FC
:1029000063FA0005C0D5D7F80808C00702D05846BA
:1029100000F0D0FADBF80000416901F40061416188
:1029200004F052FAC004B5D4DBF80000FDE000BFAB
:1029300021F0030200214FF67F3300BF049F043AC9
:102940000F44C7F80839D7F8006901F1800126F46F
:102950000016C7F80069D7F8006946F00066C7F8A6
:102960000069C7F8083BD7F8006B26F40016C7F8D3
:10297000006BD7F8006B46F00066C7F8006BC7F82D
:102980002839D7F8206926F40016C7F82069D7F847
:10299000206946F00066C7F82069C7F8283BD7F8D9
:1029A000206B26F40016C7F8206BD7F8206B46F092
:1029B0000066C7F8206BC7F84839D7F8406926F495
:1029C0000016C7F84069D7F8406946F00066C7F8B6
:1029D0004069C7F8483BD7F8406B26F40016C7F8A3
:1029E000406BD7F8406B46F00066C7F8406BC7F8FD
:1029F0006839D7F8606926F40016C7F86069D7F817
:102A0000606946F00066C7F86069C7F8683BD7F8A8
:102A1000606B26F40016C7F8606BD7F8606B46F061
:102A20000066C7F8606B049F88D1BCF1000F4FD0DF
:102A300007F5106253184FF67F3098605358BCF179
:102A4000010F23F400135350565807F5306346F036
:102A50000066565003EB0106B0605E5826F400167F
:102A60005E505E5846F000665E5031D001F120069F
:102A70009519A8609559BCF1020F25F400159551E0
:102A8000955945F00065955103EB0605A8609F59DF
:102A900027F400179F519F5947F000679F5117D0A7
:102AA00001F1400011184FF67F378F60115821F463
:102AB00000111150115841F00061115019188F6028
:102AC000195821F400111950195841F0006119509A
:102AD000E06940F00110E061DBF8300040B1D4F86B
:102AE000840040F00B00C4F8840004F1440006E0C8
:102AF000606942F22B010843606104F11000016833
:102B00000BF5717241F00B010160206820F4FE604A
:102B10002060DBF800009BF8101003F069FFDBF881
:102B20000000416901F48051416104F04DF9014612
:102B3000DBF8000089041AD503F096FBDBF80000EF
:102B400004F006F9DBF80050CBF80C0000F07CFA3A
:102B50009BF80C200146284604F0D4F9584600F0B2
:102B600053F9DBF80000416901F40051416104F0C0
:102B70002BF9000730D4DBF8000004F025F9C0027F
:102B800037D55846002100F057F8DBF800004169BE
:102B900001F48011416104F017F980022FD55846E5
:102BA000002100F04DF8DBF80000416901F400114C
:102BB000416104F009F9400027D55846FFF70AFBA8
:102BC000DBF80000416901F08041416104F0FCF84C
:102BD000400721D4FFF741BC584600F02BF9DBF841
:102BE0000000416901F00801416104F0EDF8C00204
:102BF000C7D4DBF8000004F0E7F88002CFD4DBF89C
:102C0000000004F0E1F84000D7D4DBF8000004F045
:102C1000DBF840077FF521ACDBF800004468610772
:102C200004D55846FFF7F0FADBF80000416821436D
:102C3000416009B0BDE8F08FD0F8040402F0E4BEB2
:102C4000D0F8040402F0F0BE2DE9F04F8BB000285C
:102C500000F086800446056890F8BD0328B900207E
:102C600084F8BC03204600F08FF8032084F8BD03ED
:102C7000E86BC0055CBF00202061206803F032FED5
:102C8000206804F11C0A0A90D4E90C5004F1040EE7
:102C90009AE8C0079EE80E58CDE9085003A880E8DE
:102CA000C0030A988DE80058CDF81CA003F0ECFA98
:102CB000002852D120680021002504F0DFF8616867
:102CC00061B3012000230022C3EBC30304EB83079D
:102CD00087F83C20D3B20132A7F84230D3B29942F0
:102CE00087F83D0087F83F50C7E911553D65EBD89F
:102CF00000200023002200BFC3EBC30304EB8307C3
:102D000087F8FC210132D3B2994287F8FD0187F898
:102D1000FF01C7E98100C7F81002EDD8A06822685A
:102D20000A90D4E90C5004F1140E04F1240AD4E9F9
:102D300003379EE840589AE80007CDE9085002A8FA
:102D400080E8005810460A9ACDE90076CDE9058959
:102D5000CDF81CA003F0DAFB40B1022084F8BD03DB
:102D6000012528460BB0BDE8F08F00BF00250120EB
:102D700084F8385084F8BD03206803F0B7FB284678
:102D80000BB0BDE8F08F0000B0B586B00068B0F1C0
:102D9000A04F01D006B0B0BD002543F63004019528
:102DA000C4F20204206801A940F0010020602068FC
:102DB00000F00100019001984FF4C05001900220F2
:102DC000CDE90205032004900A2005900020C4F2FA
:102DD0000200FDF7A9FF6068002140F080006060FC
:102DE00000956069002240F480406061606900F4F1
:102DF0008040009000984320FFF734F94320FFF70C
:102E000021F906B0B0BD000010B50446C068022824
:102E100018BFFDF7B5FCD4F80404012102F088FEC8
:102E2000D4F80404BDE8104002F034BED0F8040425
:102E300002F064BED0F8040402F06ABE10B5044685
:102E400090F8BC03012804BF022010BD012084F8C3
:102E5000BC0384F83810206804F042F8002084F89D
:102E6000BC0310BDD0F8042400F57171104602F0C7
:102E700075BE000010B5044690F8BC03012804BFDD
:102E8000022010BDA16A20680122012984F8BC2318
:102E900006D1A169012903D0816B41F4803181639E
:102EA00003F01CFF206803F011FB002084F8BC0332
:102EB00010BD000010B50446D0F8040402F0A4FED2
:102EC0002068D0F8001E41F00101C0F8001E206A01
:102ED000002808BF10BD4EF61050CEF20000016869
:102EE00041F00601016010BD2DE9F041002800F01D
:102EF0008B8043F60808C4F202080446D8F8F803A9
:102F00000D4600F00700884207D288F8F853D8F839
:102F1000F80300F00700A84276D12068810717D592
:102F2000410705D5D8F8001041F4E051C8F8001069
:102F3000010705D5D8F8001041F46041C8F8001029
:102F4000D8F80010A26821F0F0011143C8F8001071
:102F5000C0073FD1D8F8F80300F00700A84207D90E
:102F600088F8F853D8F8F80300F00700A8424BD1CE
:102F70002068410707D5D8F80010E26821F4E05135
:102F80001143C8F80010000708D5D8F800002169DF
:102F900020F4604040EAC100C8F8000000F06EF87C
:102FA000D8F800104AF23842C1F30311C0F600020B
:102FB000515C40F2240220FA01F140F20400C2F216
:102FC00000000068C2F200021160FEF7E9FF002075
:102FD000BDE8F0816068811E022907D258F8081CFC
:102FE00089015CBF0120BDE8F08111E0012807D113
:102FF00058F8081C89035CBF0120BDE8F08107E098
:1030000058F8081C890703D40120BDE8F08100BFEF
:10301000D8F8001021F003010843C8F80000FDF7BC
:103020006FFF064641F28837D8F80000616800F06B
:103030000C00B0EB810F8DD0FDF762FF801BB84212
:10304000F2D90320BDE8F08140F22400C2F2000072
:103050000068704740F2240043F60801C2F2000005
:10306000C4F20201006809684AF24842C1F38221B1
:10307000C0F60002515CC8407047000010B543F62E
:103080000404C4F20204606800F00C0008280BD0AD
:10309000042819BF42F20040C0F2F40047F6400095
:1030A000C0F27D1010BD00BF20682168236849026E
:1030B00047F64001C0F27D1100F03F02C3F38810D3
:1030C0005CBF42F20041C0F2F401A1FB0001002309
:1030D000FDF725F921680222C1F3014102EB41010C
:1030E000B0FBF1F010BD00002DE9F04182B00028E6
:1030F0006AD00446007843F60006C007C4F2020610
:103100000BD0B06800F00C00042840F0A1803068BB
:10311000800302D56068002856D0207880071AD531
:10312000B06810F00C0F09D0B06800F00C0008284F
:1031300040F0A8807068400200F1A48030688007E9
:1031400002D5E06801283FD13068216920F0F800FD
:1031500040EAC10030602078000739D42078400769
:103160004ED4A5695DB3B06800F00C00082840F0AB
:10317000BD80012D28D07068E16900F480028A4288
:1031800022D1216A00F03F028A421DD147F6C07168
:10319000626A0140B1EB821F16D1A26A0023CFF60A
:1031A000FF7303EBC23200F440316FF30F02914220
:1031B0000AD1E16A00F07060B0EB016F04D1002029
:1031C00002B0BDE8F08100BF012002B0BDE8F0818F
:1031D0006069002840F20000C4F2472076D0012147
:1031E000C0F8801EFDF78CFE054600BF706F80079B
:1031F000B4D4FDF785FE401B0228F7D9DDE000BFFF
:10320000306C10F080580AD100200190306C40F0F2
:1032100080503064306C00F080500190019847F28B
:103220000007C4F200073868C00541D4386840F48C
:1032300080703860FDF764FE054600BF3868C00541
:1032400036D4FDF75DFE401B0228F7D9B5E000BF7C
:10325000B06800F00C00082803D1706840023FF508
:1032600056AF6068B0F5803F07D0B0F5A02F40F0B2
:103270008D80306840F480203060306840F48030C9
:1032800030608DE0E068002852D00020C4F2472072
:1032900001210160FDF734FE054600BF306880075C
:1032A0003FF552AFFDF72CFE401B0228F6D984E013
:1032B000A068012805D005284ED1306F40F00400E9
:1032C0003067306F40F0010030674FE00021C0F8F8
:1032D000801EFDF715FE0546706F80077FF53EAF37
:1032E000FDF70EFE401B0228F6D966E00027C4F267
:1032F000472700203866FDF703FE022D05460BD157
:10330000306880015ED5FDF7FBFD401B02284FF0C1
:103310000300F5D954E700BF306880017FF54FAF57
:10332000FDF7EEFD401B02284FF00300F4D947E7FC
:103330000020C4F2472000210160FDF7E1FD0546B1
:10334000306880077FF507AFFDF7DAFD401B0228E4
:103350004FF00300F4D933E7316F002821F0010169
:103360003167316F21F0040131674DD0FDF7C8FDA1
:10337000054641F2883700BF306F800756D4FDF70D
:10338000BFFD401BB842F7D917E000BF31680028E5
:1033900021F480313160316821F4802131604FD0D7
:1033A000FDF7AEFD054600BF306880033FF5B5AEC2
:1033B000FDF7A6FD401B6428F6D9032002B0BDE846
:1033C000F08100BF04F11C052FCD08430021CFF68A
:1033D000FF7140EA821001EBC3316FF30F0140EA45
:1033E00005600843706001203866FDF789FD0446DA
:1033F000306880013FF5E3AEFDF782FD001B022837
:103400004FF00300F4D9DBE6FDF77AFD054641F203
:10341000883700BF306F800708D5FDF771FD401B6E
:10342000B8424FF00300F5D9CAE600BFB8F1000F6B
:103430007FF497AE306C20F08050306491E600BF8E
:10344000FDF75EFD054600BF306880037FF565AE81
:10345000FDF756FD401B64284FF00300F4D9AFE69A
:10346000411E0020B0EB116F1CBF012070474EF2CF
:103470001002CEF2000251604EF62351CEF200014E
:10348000F0230B70072190601160704770470000B7
:103490007047000010B590F83C20012A4FF002025E
:1034A0003ED080F83D200268D2F804E0D2F808C08F
:1034B0000C682EF07003234340F6FF34C4F200047E
:1034C000A242536010DCB2F1804F1ED040F20043A4
:1034D000C4F200039A4218D040F60003C4F200037D
:1034E0009A4212D016E000BF40F60043C4F2000337
:1034F0009A420AD044F20003C4F201039A4204D073
:103500000023C4F201039A4204D149682CF08003DD
:10351000194391600121002280F83D1080F83C2081
:10352000104610BD002804BF0120704710B50446A6
:1035300090F83D0028B9002084F83C00204600F0B7
:103540008FF8022084F83D00206840F2FF73026883
:10355000C4F2000340F2000C9842C4F2010C1DDDDD
:1035600040F60001C4F20001884220D060451ED020
:1035700040F60041C4F20001884218D04FF6FF71B6
:10358000C4F2000188421CDC984225DCB0F1804F77
:103590003AD040F20041C4F2000133E0B0F1804F74
:1035A00005D040F20041C4F200018842E6D1A16892
:1035B00022F070020A434FF6FF71C4F20001884204
:1035C000E2DD44F2FF31C4F20101884210DC6045C3
:1035D0001AD044F2000113E040F60001C4F20001E9
:1035E000884211D040F60041C4F200010AE000BF59
:1035F00044F60001C4F20101884205D044F20041C2
:10360000C4F20101884203D1216922F440720A43C5
:10361000A36922F08001D4F804E0E2681943604510
:103620000160C262C0F828E002D16169CCF83010B4
:1036300001214161002084F8461084F83E1084F88E
:103640003F1084F8401084F8411084F8421084F848
:10365000431084F8441084F8451084F83D1010BDE0
:1036600080B582B0006840F60001C4F200018842D3
:103670001CBF02B080BD0020019043F64000C4F2A0
:1036800002000168002241F004010160006800218D
:1036900000F00400019001981E20FEF7E3FC1E20BC
:1036A00002B0BDE88040FEF7CDBC000090F83D10B0
:1036B00001291CBF01207047022180F83D100068DD
:1036C00040F6FF32C168C4F20002904241F00101AD
:1036D000C1600FDCB0F1804F1DD040F20041C4F258
:1036E0000001884217D040F60001C4F20001884270
:1036F00011D017E040F60041C4F2000188420AD020
:1037000044F20001C4F20101884204D00021C4F255
:103710000101884206D1816801F00701062904BF32
:1037200000207047016841F00101016000207047EE
:1037300080B590F83C20012A4FF0020200F0C280D0
:1037400080F83D20D0F800C04FF67772DCF80830E2
:1037500023EA0202CCF808200B684F2B28DC1F2B31
:1037600044DD202B45D0302B43D0402B40F0AC80A3
:10377000D1F804E0C968DCF82030DCF8202022F021
:103780000102CCF82020DCF8182022F0F00242EAF6
:10379000011123F00A0242EA0E02CCF81810CCF80C
:1037A0002020DCF8081041F0470121F0300180E0D2
:1037B0006F2B27DDB3F5005F48D0B3F5805F7AD07B
:1037C000702B40F08180D1E901E3C968DCF8082062
:1037D00043EA0E0322F47F4243EA01211143CCF86D
:1037E0000810DCF8081041F0770162E00BB1102BF3
:1037F0006AD1DCF8081021F07001194341F007018B
:1038000057E000BF502B35D0602B5DD1D1F804E0DC
:10381000C968DCF8203023F01003CCF82030DCF845
:103820001830DCF8202023F4704322F0A00243EA91
:10383000013142EA0E12CCF81810CCF82020DCF846
:10384000081041F0670121F0100132E0D1E901E3F5
:10385000C968DCF8082043EA0E0322F47F4243EAF9
:1038600001211143CCF80810DCF8081041F4804124
:103870001FE000BFD1F804E0C968DCF82030DCF8B4
:10388000202022F00102CCF82020DCF8182022F0C1
:10389000F00242EA011123F00A0242EA0E02CCF8D9
:1038A0001810CCF82020DCF8081041F0570121F066
:1038B0002001CCF808100022012180F83D100021E1
:1038C00080F83C10104680BD0122F5E770470000EB
:1038D00010B5016804460869800744BFC8685FEAFC
:1038E000807039D40869400744BFC8685FEA4070F7
:1038F0003ED40869000744BFC8685FEA007045D439
:103900000869C00644BFC8685FEAC0604AD4086955
:10391000C0071CBFC8685FEAC07051D108690006C3
:1039200044BFC8685FEA006052D40869400644BFDB
:10393000C8685FEA406053D40869800646BFC8681B
:103940005FEA806010BD6FF0200220460A61BDE88A
:103950001040FFF79DBD00BF6FF00200086101201D
:1039600020778869800743D02046FFF7AFFF45E006
:103970006FF00400086102202077886910F4407F0E
:1039800040D02046FFF7A2FF42E000BF6FF00800E2
:10399000086104202077C86980073DD02046FFF7E2
:1039A00095FF3FE06FF01000086108202077C8699C
:1039B00010F4407F3AD02046FFF788FF3CE000BF7C
:1039C0006FF001000861204600F03EF82168A5E78D
:1039D0006FF0800008612046FFF758FD2168A4E7DA
:1039E0006FF040000861204600F030F82168A3E73E
:1039F000204600F025F8204600F024F82168002039
:103A000020776FE7204600F01BF8204600F01AF8F8
:103A10002168002020776CE7204600F011F820464E
:103A200000F010F821680020207769E7204600F0B8
:103A300007F8204600F006F821680020207766E7A6
:103A4000704700007047000070470000704700009A
:103A5000FEE7000041F6E410C2F20000FDF75ABA9A
:103A600080B541F6E410C2F20000FDF7F7FABDE8B8
:103A7000804000F089BF000010B581B000210091A6
:103A8000806B40F22401C2F2000190F83DC0096849
:103A90004BF28952C908C1F2F842A1FB0212110A85
:103AA000232251430091009911B3009901390091EB
:103AB0000168096889051FD50099C9B100990139C4
:103AC000009101680968890516D5009981B10099AE
:103AD000013900910168096889050DD5009939B14E
:103AE000009901390091016809688905DBD403E078
:103AF000016C41F020010164446B4FF0000E002C7A
:103B00001CBF0021E163816B00291CBF0022CA6336
:103B10000268002C136823F480631360A0F82AE085
:103B200018BFC4F850E000291CBF00230B651168C2
:103B300021F00101116090F83D1060290CD1202185
:103B400080F83D10002180F83E10016401B0BDE80E
:103B50001040FDF7DBB900BF0CF02801282911D176
:103B6000116841F001011160116841F48061116038
:103B700000210163282180F83D1001B0BDE810400C
:103B8000FDF774BD202180F83D10002180F83E1023
:103B900001B0BDE81040FDF769BD000010B5044656
:103BA00090F83D1090F83E00B0F1100218BF0122CD
:103BB000403818BF0120024208BF222934D001F04A
:103BC000280028283AD100202063282084F83D00CE
:103BD00020684168090542D5416821F400614160CF
:103BE000606B90F83510012958D1A06B43F679210C
:103BF000C0F600010165FCF71DFE002861D02068B9
:103C00004169490606D50069616A0870616A2068E1
:103C100001316162016821F001010160202084F816
:103C20003D00A06B4BE000BF2068026822F40062F8
:103C300002604268120505D50CE000BF20684268AA
:103C4000120507D4602905D0202184F83D100021F9
:103C500084F83E100021216341680905BCD494F822
:103C60003D10602950D1202184F83D1000212164AD
:103C70004169490606D50069616A0870616A206871
:103C800001316162016821F0010101602046FDF708
:103C90003DF9206C000717D11BE000BF43F67921E6
:103CA000C0F600010165FCF7C5FD50B12168606BED
:103CB0000A6822F001020A60202184F83D10016D9B
:103CC0008847206C000704D02068416821F4E06137
:103CD000416094F83D00216C490758BF10BD282869
:103CE00010D10020CFF6FF70E06200212020216378
:103CF00084F83D00204684F83E10BDE81040FDF7F2
:103D000073BD00BF10BD00BF4169490605D50069FC
:103D1000616A0870606A013060622046FDF7A6FCA7
:103D2000206C0007D0D1D4E7C16A428D042A07D1A4
:103D30000168426A4B6823F480634B60096911E0B3
:103D4000428D032A16D102680229536823F4806346
:103D5000536005D0042903D0116821F480611160FB
:103D60001169426A1170416A01314162418D013924
:103D700041857047428D022A12D101390F2919D885
:103D8000DFE801F008121812181818181818181877
:103D90001818180801680A6822F480620EE000BF53
:103DA0000168426ACAE700BF01680A6842F480629B
:103DB00004E000BF01680A6842F400720A60096901
:103DC000426A1170416A02684B1C4362438D013B99
:103DD000438512694A70416A026801314162418D2E
:103DE00001394185516821F440715160202180F8EA
:103DF0003D1090F83E200021402A80F83E1003D16B
:103E00000163FDF7F7BC00BF12210163FDF7EEBCB3
:103E100081B090F83D10222972D1418D042913D32D
:103E20000168426A09691170416A01314162418D3C
:103E300001394185418D032962D10068416821F42F
:103E4000806141605CE000BFC26A022A58D001294B
:103E500056D80021009140F22401C2F20001096805
:103E60004BF28952C908C1F2F842A1FB0212110AB1
:103E700001EB81010091009901390091009900291D
:103E800040D001680A6892051AD50099013900915D
:103E90000099B9B301680A68920511D500990139F2
:103EA0000091009971B301680A68920508D50099DC
:103EB00001390091009929B301680A689205DAD4A2
:103EC0000A6822F480620A604A6822F4E0624A606A
:103ED0000969426A1170416A01314162418D0139BB
:103EE0004185202180F83D1090F83E200021402A95
:103EF00080F83E1022D1016301B0FDF77BBC00BF0A
:103F000001B07047016C41F0200101640168426A10
:103F10004B6823F4E0634B6009691170416A013119
:103F20004162418D01394185202180F83D100021F9
:103F300080F83E1001B0FDF799BB00BF122101636C
:103F400001B0FDF753BC0000C16A90F83D20212A62
:103F500018BF7047428D4AB1416A026811F8013BAF
:103F600013614162418D01394185704711F5803FF0
:103F700018BF082918D101684A6822F4E0624A6033
:103F80000A6842F400720A6000212022016380F86E
:103F90003D2090F83E2080F83E10402A08BFFDF7F3
:103FA0002BBCFDF725BC00BF2029E4D001684A687E
:103FB00022F4E0624A6011210163002180F83E1082
:103FC000202180F83D10FDF713BC000090F83D1053
:103FD00090F83EC0C26A038D002B08BF212919D07A
:103FE000212905D0BCF1400F08BF222900D070471D
:103FF000418D69B390F83E10402908BF00F040B8E9
:10400000416A026811F8013B13614162418D013937
:104010004185704712F5803F18BF082A1ED10168FC
:104020004A6822F4E0624A600A6842F400720A6058
:1040300000212022016380F83D2090F83E2080F886
:104040003E10402A08BFFDF7D7BBFDF7D1BB00BF2C
:104050000068416821F4806141607047202ADED009
:1040600001684A6822F4E0624A601121016300217C
:1040700080F83E10202180F83D10FDF7B9BB00000C
:1040800090F83D10026D5AB1026D012A14D10168F9
:10409000826CD2B20A61016D01310165704700BFC7
:1040A000C26C816C012A17D10268C9B21161016D1D
:1040B00002310165704700BF026D022A18BF7047C8
:1040C000222911D101680A6842F480720A60016DE8
:1040D00001310165704700BF0268C1F3072111611A
:1040E000016D0131016512E0428D5AB1212909D1DA
:1040F000416A026811F8013B13614162418D013947
:1041000041857047428D002A08BF212900D07047A1
:1041100001684A6822F4E0624A600A6842F4007268
:104120000A6000212022016380F83D2080F83E10C3
:10413000FDF762BB2DE9F04383B004460068994661
:104140000368904643F48062026002680B9D42F46B
:104150008072026042690A9ED2070F461DD1711C0F
:1041600011D0002E00F03681FCF7CAFE401BB04291
:1041700000F2328120684169C907F5D00DE000BF27
:104180004169C90709D14169C90706D14169C90710
:1041900004BF41695FEAC171F2D007F0FE07076111
:1041A0004169890738D44169721C01F4806111D0DA
:1041B00049BB002E00F03A81FCF7A2FE401BB04242
:1041C00000F2368120684169890725D44169490593
:1041D000F2D518E0B9B9416989071DD4416949058B
:1041E00011D44169890717D4416949050BD4416944
:1041F000890711D44169490505D4416989070BD460
:1042000041694905E7D5016841F4007101606FF427
:104210008061416104200CE100210291014651F8C6
:10422000142F02924A680292029A0A68120620D457
:10423000002E00F0AB80721C51D10A68520500F1CB
:10424000AD800A68120614D40A68520500F1A680EF
:104250000A6812060DD40A68520500F19F800A68A8
:10426000120606D40A68520500F198800A68120600
:10427000E3D5B9F1010F45D04FEA1821016101469C
:1042800051F8142F12063DD4002E00F07F80721CCE
:104290002AD10A68520500F181800A68120631D4D9
:1042A0000A6852057AD40A6812062BD40A685205A5
:1042B00074D40A68120625D40A6852056ED40A68B6
:1042C0001206E6D51EE000BFFCF71AFE401BB04206
:1042D00061D82068014651F8142F1206C9D4086825
:1042E0004005F1D55AE000BF0868400556D4FCF7F8
:1042F00007FE401BB0424ED82068014651F8142FEB
:104300001206F1D55FFA88F10161014651F8142FC8
:1043100012061AD4D6B3721C33D10A6852053DD4A2
:104320000A68120611D40A68520537D40A681206C0
:104330000BD40A68520531D40A68120605D40A68FB
:1043400052052BD40A681206E7D50168002241F411
:104350008071016020464FF001113346009500F056
:1043600007FA002850D02068006844E0FCF7C8FD38
:10437000401BB0420FD82068014651F8142F120696
:10438000E3D408684005F1D508E000BF086840059F
:1043900004D4FCF7B5FD202004E000BF6FF480607A
:1043A0000860042000212022216384F83D2084F845
:1043B0003E10226C1043206484F83C10206C0428CA
:1043C00043D12068016841F400710160012003B00D
:1043D000BDE8F083FCF794FD00202021206384F8E1
:1043E0003D1084F83E00216C41F0200121642168D9
:1043F00084F83C000868C00544BF4FF40070206496
:10440000032003B0BDE8F083206847F0010101619B
:104410000221C0F20101204632462B4600F050FA3C
:10442000002818BF012003B0BDE8F083FCF768FD49
:10443000202000212022216384F83D2084F83E10B2
:10444000226C1043206484F83C10012003B0BDE8C6
:10445000F08300002DE9F04381B0044600689046E7
:104460000268099D42F4807202604269089E994682
:10447000D2070F461DD1711C11D0002E00F0D28042
:10448000FCF73EFD401BB04200F2CE80206841693F
:10449000C907F5D00DE000BF4169C90709D14169DD
:1044A000C90706D14169C90704BF41695FEAC17103
:1044B000F2D007F0FE0101614169890738D44169F2
:1044C000721C01F4806111D049BB002E00F0E8801D
:1044D000FCF716FD401BB04200F2E4802068416901
:1044E000890725D441694905F2D518E0B9B9416970
:1044F00089071DD44169490511D44169890717D439
:10450000416949050BD44169890711D441694905BD
:1045100005D4416989070BD441694905E7D501688C
:1045200041F4007101606FF4806141610420BAE0E0
:1045300000210091014651F8142F00924A68009220
:10454000009A0A6812061ED4002E00F08580721CA4
:104550004DD10A68520500F187800A68120612D40C
:104560000A68520500F180800A6812060BD40A68B6
:10457000520579D40A68120605D40A68520573D424
:104580000A681206E5D5B9F1010F43D04FEA1821A8
:104590000161014651F8142F12063BD4002E5BD066
:1045A000721C29D10A6852055ED40A68120631D4F9
:1045B0000A68520558D40A6812062BD40A685205B4
:1045C00052D40A68120625D40A6852054CD40A68E7
:1045D0001206E7D51EE000BFFCF792FC401BB0427C
:1045E0003FD82068014651F8142F1206CBD4086832
:1045F0004005F1D538E000BF0868400534D4FCF729
:104600007FFC401BB0422CD82068014651F8142F83
:104610001206F1D55FFA88F10161002001B0BDE812
:10462000F08300BFFCF76CFC00202021206384F89D
:104630003D1084F83E00216C41F020012164216886
:1046400084F83C000868C00544BF4FF40070206443
:10465000032001B0BDE8F0830868400504D4FCF7EE
:104660004FFC202004E000BF6FF48060086004204D
:1046700000212022216384F83D2084F83E10226C22
:104680001043206484F83C10206C042817D1206863
:10469000016841F400710160012001B0BDE8F083C0
:1046A000FCF72EFC202000212022216384F83D20ED
:1046B00084F83E10226C1043206484F83C100120E2
:1046C00001B0BDE8F083000070B50368044653F8FC
:1046D000140F400737D40E46F1B1701C24D100BF2F
:1046E0001868400532D4186840072CD41868400573
:1046F0002CD41868400726D41868400526D41868BA
:10470000400720D41868400520D4186840074FF0AF
:10471000000048BF70BDE3E71868400516D4FCF7F9
:10472000EFFB202016E000BF154600BF18684005CB
:104730000CD4FCF7E5FB401BB042F2D8236853F8D9
:10474000140F4007F2D5002070BD00BF6FF48060E9
:104750001860042000212022216384F83D2084F881
:104760003E10226C10432064012084F83C1070BD80
:104770002DE9F04105461446DDF8188001F47F006C
:104780002A681E46B0F5803F8FB241D1506938404B
:10479000C01BB0FA80F04009A0427BD1701C2DD024
:1047A000002E7BD0FCF7ACFBA0EB0800B04277D822
:1047B000286840693840C01BB0FA80F04009A04228
:1047C000F0D00020BDE8F08150693840C01BB0FA3D
:1047D00080F04009A0425DD150693840C01BB0FA5A
:1047E00080F04009A04255D150693840C01BB0FA52
:1047F00080F04009A0424FF000005FD1506938407E
:10480000C01BB0FA80F04009A042DDD042E000BFFA
:1048100090693840C01BB0FA80F04009A04239D1FD
:10482000701C1FD0D6B300BFFCF76AFBA0EB0800DA
:10483000B04235D8286880693840C01BB0FA80F093
:104840004009A042F0D00020BDE8F08190693840D6
:10485000C01BB0FA80F04009A0424FF0000018BF22
:10486000BDE8F08190693840C01BB0FA80F0400983
:10487000A0420FD190693840C01BB0FA80F04009C7
:10488000A04207D190693840C01BB0FA80F04009BF
:10489000A042DBD00020BDE8F08100BFFCF730FB78
:1048A00000202021286385F83D1085F83E00296C02
:1048B00041F02001296485F83C000120BDE8F08129
:1048C000F0B581B0044600681D4643698FB203EA23
:1048D0000701B94202D1002001B0F0BD416916467E
:1048E000013201F480610FD059BB9EB3FCF708FB85
:1048F000401BB04230D8206841693940B942EAD003
:1049000041694905F2D51CE0D9B941693940B9423C
:10491000E1D04169490514D441693940B942DAD03E
:10492000416949050DD441693940B942D3D0416943
:10493000490506D441693940B942CCD0416949059D
:10494000E3D5016841F4007101606FF48061416159
:10495000042002E0FCF7D4FA202000212022216369
:1049600084F83D2084F83E10226C1043206484F8C3
:104970003C10012001B0F0BD40F2F011C2F2000184
:10498000487800224A70704740F2F011C2F20001EC
:10499000486890F83D20202A04D10A78012A04BFF3
:1049A00002220A7090F83D007047000000000000ED
:1049B0002DE9F04F83B040F2F018C2F200080C4627
:1049C000D8E90C120546401A64EB020141F2941238
:1049D000801A71F1000013D3D8F8040090F83D203C
:1049E00098F80010202A08BF002900F02F81022922
:1049F0004FF000060AD0304603B0BDE8F08F00BF8C
:104A000098F8001002294FF00006F4D198F8380009
:104A100098F83910000200B2084400EE100AD8E9F4
:104A20000397B8EEC00A88F8006089ED000A98F88C
:104A30003A0098F83B10000200B2084400EE100A59
:104A4000B8EEC00A87ED000A98F83C0098F83D10CF
:104A5000000200B20844D8E9056B00EE100AB8EE77
:104A6000C00A86ED000A98F8400098F8411000024C
:104A700000B2084400EE100AB8EEC00A8BED000A3E
:104A800098F8420098F84310000200B2084400EE83
:104A9000100AD8F81CA0B8EEC00A8AED000A98F8EF
:104AA000440098F84510000200B2084400EE100AD5
:104AB000D8F82020B8EEC00A82ED000A99ED001A5D
:104AC0009FED790AB0EEC11AB4EE401AF1EE10FA79
:104AD00012DC97ED001AB0EEC11AB4EE401AF1EEF6
:104AE00010FA09DC96ED001AB0EEC11AB4EE401AC5
:104AF000F1EE10FA40F3BE80D8F80800017841F0DA
:104B0000040101709BED001A0292B0EEC11AB4EEDE
:104B1000401AF1EE10FA12DC9AED001AB0EEC11A4A
:104B2000B4EE401AF1EE10FA09DC92ED001AB0EE84
:104B3000C11AB4EE401AF1EE10FA40F3A18041F030
:104B400002010170D9F8000005F00CFB9FED4E0B3F
:104B500054EC105B2A46234604F0D8FD04F0F0FC28
:104B6000C9F80000386805F0FDFA2A46234604F02B
:104B7000CDFD9FED470B53EC102B05F02FF804F003
:104B8000DFFC3860306805F0EDFA2A46234604F071
:104B9000BDFD9FED410B53EC102B05F01FF804F009
:104BA000CFFC3060DBF8000005F0DCFA9FED3C0B39
:104BB00054EC105B2A46234604F0A8FD0646D8F8BC
:104BC00024000F4605F0CEFA02460B463046394621
:104BD00005F0DAF904F0B4FCCBF80000DAF80000D4
:104BE00005F0C0FA2A46234604F090FD0646D8F8A0
:104BF00028000F4605F0B6FA02460B463046394605
:104C000005F0C2F904F09CFC029ECAF8000030686E
:104C100005F0A8FA2A46234604F078FD0446D8F8A1
:104C20002C000D4605F09EFA02460B46204629460A
:104C300005F0AAF904F084FC30600120042688F80D
:104C40000100304603B0BDE8F08F00BF0E2108F12F
:104C50003802CDE90021D0213B2201230126FCF7B7
:104C600085FF88F80060C8E90C54304603B0BDE801
:104C7000F08F00BFD8F80800017821F0040140E768
:104C800001F0FD015DE700BF9A99999999999940C2
:104C9000EC51B81E85EBEF3F5839B4C876BEEF3FF4
:104CA00066666666666640400000FA462DE9F04F8B
:104CB00085B040F2F017C2F20007DDF838A0DDF849
:104CC00044B078600A201C4615460E464FF00A088C
:104CD000FBF758FF782178688DF810104FF0010924
:104CE00004A9CDE90019D02123220123CDF80880A1
:104CF000FCF7D4FF002178688DF811100DF1110137
:104D0000CDE90019D0216B220123CDF80880FCF7F2
:104D1000C5FF072178688DF812100DF11201CDE959
:104D20000019D02119220123CDF80880FCF7B6FF25
:104D3000102178688DF813100DF11301CDE90019D9
:104D4000D0211B220123CDF80880FCF7A7FF0F9884
:104D5000C7E902B6F8611098C7E90454C7F818A06B
:104D6000386205B0BDE8F08F80B582B000200190B8
:104D700043F63000C4F202000168002241F4001141
:104D800001600068002100F40010019001980B20E0
:104D9000FDF768F90B2002B0BDE88040FDF752B97D
:104DA00070B586B0002543F6300005950095C4F235
:104DB0000200016840F6000441F00401016001684E
:104DC000C4F2020401F00401009100990095016809
:104DD000002241F08001016001684FF4005601F0AB
:104DE0008001009100990095016841F00101016086
:104DF000016801F00101009100990095016841F0FE
:104E00000201016000684FF4005100F002000090C0
:104E100000982046FCF76EF81120CDE902050495B4
:104E200001AD204629460196FBF77EFF01264FF48F
:104E30004410CDE90206A4F5006029460196FBF76F
:104E400073FF202001904FF48810CDE90206A4F5ED
:104E500080602946FBF768FF062000210022FDF74D
:104E600001F90620FDF7EEF806B070BD80B541F6F9
:104E7000E41045F20041C2F20000C4F2000141F624
:104E8000802200234FF4804CC0F2060280E80E001E
:104E9000C0E9033CC0E90533C0E90733FCF7E8FB90
:104EA000002808BF80BDBDE88040FBF769BC00005A
:104EB00080B586B041F6406040F600020021C2F2A3
:104EC0000000C4F2000247234FF6FF7C0591CDE9B4
:104ED0000311CDE90011C0E90023C0E9021C016102
:104EE0008161FEF71FFB002818BFFBF749FC4FF458
:104EF0008050029041F64060C2F2000002A9FEF725
:104F000017FC002818BFFBF73BFC41F64060C2F2DB
:104F100000006946FEF7BEFA002818BFFBF730FC18
:104F200006B080BD80B541F2B46040F20801C2F223
:104F30000000C2F20001002200F046FC002818BF69
:104F4000FBF71EFC41F2B46040F22801C2F20000FF
:104F5000C2F2000100F080FE002818BFFBF710FC31
:104F600041F2B46040F24C11C2F20000C2F2000102
:104F700000F09AF9002818BFFBF702FC41F2B46078
:104F8000C2F2000000F088FE002808BF80BDBDE826
:104F90008040FBF7F5BB0000FEE70000FEE70000E5
:104FA00041F63820C2F20000FDF74EBA704700000B
:104FB00070470000FCF7CABFB0B592B0002443F6BA
:104FC0004000CDE90A44CDE908440594CDE9034405
:104FD000CDE901440094C4F202000168022541F0C9
:104FE00080510160006800F080500090009847F206
:104FF00000000094C4F20000016841F440410160E7
:10500000006800F4404000900098012006904FF4A2
:10501000803007904FF480000D9019200E90902062
:10502000CDE90F050320119006A80C95FEF75CF85A
:1050300020B1EFF3108072B6FEE700BF0F20CDE97C
:1050400001054FF48050CDE9040401A80221039426
:10505000FDF74AFF20B1EFF3108072B6FEE700BF04
:1050600012B0B0BD4EF68850CEF20000016841F497
:10507000700101607047000080B503F041FA41F60D
:105080004060C2F20000BDE88040FEF721BC000095
:1050900010B5D0F8BC323BB38E4601EB810100EB7A
:1050A000810151F8184F64B1D0F8C4C2CEEBCE02E2
:1050B0000CEB8202D2F844C0B4FBFCF202FB1C42AF
:1050C000A2B10024C3F81442D0F8C002D0F810C036
:1050D000BCF1000F06D0D3F8080203F50471724644
:1050E000E0470024204610BD032010BD00240C60C2
:1050F00071460022002300F091FD204610BD000003
:10510000B0B5D0F8BC527DB1044600F031FCD4F803
:10511000C02205F50371D368D5F80422C5F80C0246
:10512000104698470020B0BD0320B0BDB0B5812126
:10513000044600F071FB002520460121258700F080
:105140006BFB20468221A4F8785100F065FBD4F86F
:10515000BC02E56448B1D4F8C00240688047D4F886
:10516000BC0201F033F8C4F8BC520020B0BD00000E
:1051700010B5D0F8BC428CB1D0F8C01281B194F80F
:105180000002FF280CD08B6894F801222146984732
:10519000FF2084F80002002010BD00BF032010BDD6
:1051A000002010BD014640F2E8000A22C2F20000D1
:1051B0000A807047014640F260004322C2F20000BC
:1051C0000A807047014640F2A4004322C2F2000068
:1051D0000A807047014640F2F4004322C2F2000008
:1051E0000A807047F0B581B004464FF4077000F0B4
:1051F000EFFFE8B30546C4F8BC02207C4026002837
:1052000008BF4FF40076204681210222334600F089
:105210001BFC01272046012102223346278700F08C
:1052200013FC1020A4F84E002046822103220823FC
:10523000A4F8787100F008FCD4F8C002A4F84C700F
:10524000006880470020C5F81402C5F81802207CC9
:10525000D5F80422002820464FF001010CBF4FF47E
:105260000073402300F004FC002001B0F0BD00BF3B
:105270000020C4F8BC02022001B0F0BD80B5D0F817
:10528000BC1279B190F810C0D1F80422402301215A
:10529000BCF1000F08BF4FF4007300F0E9FB0020E1
:1052A00080BD00BF032080BD00290EBF0320C0F8D1
:1052B000C012002070470000D0F8BC0200280EBFCA
:1052C0000320C0F80412002070470000D0F8BC0290
:1052D00000280FBF0320C0F80812C0F810220020D9
:1052E0007047000070B582B0D0F8BC620446002060
:1052F0008DF80700ADF80400B6B108780D4610F03F
:10530000600115D020295BD1EA88002A28D0000648
:1053100032D46878314686F80002204686F80122A9
:1053200000F096F8002617E00326304602B070BD64
:1053300068780B2844D80026DFE800F0060E4242C9
:105340004242424242422C3A94F89C02032837D10E
:1053500001A92046022225E0304602B070BD00BF00
:10536000D4F8C0022946836868780022002698474E
:10537000304602B070BD00BFD4F8C0023146836829
:1053800068789847EA8820463146072A28BF0722CE
:1053900008E000BF94F89C02032811D10DF1070129
:1053A0002046012200F06EF80026304602B070BDA3
:1053B00094F89C02032803D10026304602B070BD49
:1053C0002046294600F038F80326304602B070BD6A
:1053D00080B5D0F8BC223AB1D2F8141200294FF0AF
:1053E000010103D0084680BD032080BDC2F814121D
:1053F000D2F81032D2F808228121C36200F00EFCEC
:105400000021084680BD000080B5D0F8B8220AB15E
:1054100052689047002080BD80B513460A4600219F
:1054200000F026FB002080BD80B513460A4600210F
:1054300000F0F4FB002080BD10B58021044600F090
:10544000BFFB20460021BDE8104000F0B9BB0000C2
:1054500080B513460A460321C0F894120021C0E922
:10546000563300F005FB002080BD000080B505210B
:10547000C0F8941200210022002300F0F9FA002065
:1054800080BD000080B513460A460221C0F8941280
:105490000021C0E9063300F0C1FB002080BD000000
:1054A00080B50421C0F8941200210022002300F0EE
:1054B000B5FB002080BD000010B540F29424C2F27C
:1054C00000040A4602A0214600F010F9204610BD53
:1054D00043444320436F6E666967000040F2381012
:1054E0001222C2F200000A807047000010B540F29C
:1054F0009424C2F200040A4602A0214600F0F6F805
:10550000204610BD43444320496E74657266616352
:105510006500000040F260100422C2F200000A8020
:105520007047000010B540F29424C2F200040A460D
:1055300002A0214600F0DAF8204610BD53544D6910
:1055400063726F656C656374726F6E69637300007C
:1055500010B540F29424C2F200040A4602A021468B
:1055600000F0C4F8204610BD53544D333220566924
:10557000727475616C20436F6D506F72740000001F
:10558000B0B547F61020C1F6FF70026883684FF08F
:105590001A0C9B18A1F800C000F0A3804FF0370C44
:1055A0001A0F0CEB13714068B3F1204F38BF02F1B2
:1055B000300140F26412C2F20002917019014FF002
:1055C000000E0CEB117582F803E0C3F30364B1F134
:1055D000204F38BF04F13005190215710CEB11751D
:1055E00082F805E0C3F30354B1F1204F38BF04F152
:1055F0003005190395710CEB117582F807E0C3F3C0
:105600000344B1F1204F38BF04F13005190415727D
:105610000CEB117582F809E0C3F30334B1F1204FAC
:1056200038BF04F13005190595720CEB117582F83D
:105630000BE0C3F30324B1F1204F38BF04F1300570
:1056400019061573C3F303140CEB1175B1F1204F58
:105650004FEA037103F00F0382F80DE038BF04F145
:10566000300503F13704957382F80FE0B1F1204F54
:1056700038BF03F13004010F0CEB1073147482F87F
:1056800011E0B0F1204F38BF01F1300301010CEB04
:105690001174937482F813E0C0F30363B1F1204FE7
:1056A00038BF03F1300401021475C0F303530CEB4F
:1056B0001174B1F1204F4FEA003182F815E038BF84
:1056C00003F130040CEB1173947582F817E0C0F30A
:1056D0000340B1F1204F38BF00F13003137682F858
:1056E00019E040F26410C2F20000B0BD10B500280D
:1056F00068D00378B3B100F1020E4FF0000C00BF88
:105700001EF8013C93B19EF800309BB19EF8013029
:10571000A3B19EF802300CF1040C002B0EF1040E24
:10572000EED10DE04FF0000C0AE000BF4CF0010C90
:1057300006E000BF4CF0020C02E000BF4CF0030C8E
:105740005FFA8CFC022303EB4C03138003220B70E3
:105750004A7090F800E0BEF1000F33D0841C0222A2
:105760004FF0000C1AE000BF101DC0B20B5440F007
:10577000010001F800C06378002B08BF10BD901D28
:10578000C0B20B5440F0010001F800C094F802E0F0
:105790000832BEF1000F04F1040413D0D3B201F8B3
:1057A00003E043F0010301F803C014F8013C4BB1DE
:1057B000901CC0B20B5440F0010001F800C02378E7
:1057C000002BD1D110BD0000002804BF032070477A
:1057D0000023C0F8B832C0F8C0320029C0F8CC327B
:1057E00018BFC0F8B412012180F89C12027000F0BA
:1057F000C3B8000080B5D0F8C402FCF72FFD40F21A
:105800000032C100C0F2013222FA01F1032888BF40
:105810000321C8B280BD000080B5D0F8C402FCF7F7
:10582000F7FC40F20032C100C0F2013222FA01F16D
:10583000032888BF0321C8B280BD0000B0B504466C
:1058400071B194F89C0203284AD1D4F8B802426995
:10585000002A45D020469047002808BF0020B0BD50
:10586000D4F89402022834D1D4E9070188420DD932
:10587000431A204611461A46E361FFF7D5FD20463C
:1058800000210022002300F0F3F822E010D1A169EA
:1058900081420DD3D4F89802814209D220460021DA
:1058A00000220025FFF7C0FDC4F89852E7E700BFCB
:1058B00094F89C02032805D1D4F8B802C16809B154
:1058C000204688472046802100F07AF92046FFF7DD
:1058D000CDFD94F8A002012804BF002084F8A002A6
:1058E0000020B0BD10B5044671B194F89C020328A5
:1058F0001DD1D4F8B8028269CAB120469047002869
:1059000008BF002010BD00BFD4F8940203280ED1B8
:10591000D4E9570398420DD9C01AC4F85C019842E3
:1059200038BF0346204611461A46FFF775FD002092
:1059300010BD00BF94F89C02032805D1D4F8B8022A
:10594000016909B1204688472046FFF7A9FD0020DC
:1059500010BD00000020704780B5012180F89C1226
:10596000D0F8B81211B14A6801799047002080BD83
:10597000D0F8C402FCF7A4BC10B5017811B1002026
:1059800010BD00BF41F63821C2F20001C1F8040485
:10599000C0F8C4124FF0A0400422C1E90002022066
:1059A0000022C1E90302C1E906020846C1E9082252
:1059B000C1E90B22FDF748F9002818BFFAF7E0FE0D
:1059C00041F63824C2F2000420468021FCF788FB0F
:1059D000204600214022FCF787FB2046012180223F
:1059E000FCF782FB002010BDD0F8C40201F07F025A
:1059F000C2EBC20200EB820000F13E02090658BF72
:105A000000F5FF721078704780B5D0F8B8224AB11F
:105A100090F89C32032B02D1126A02B19047002009
:105A200080BD00BF032080BD80B5D0F8B8224AB148
:105A300090F89C32032B02D1526A02B190470020A9
:105A400080BD00BF032080BD80B59446D0F8C4025D
:105A50001A466346FCF73EFC40F20032C100C0F239
:105A6000013222FA01F1032888BF0321C8B280BDA8
:105A700080B5D0F8C402FCF75DFC40F20032C100F2
:105A8000C0F2013222FA01F1032888BF0321C8B213
:105A900080BD0000F0B581B004460120002184F8EB
:105AA0009C02C4F89412D4F8B8026160C4F8A4123D
:105AB00000B3D4F8BC1221B1426812B120460021D3
:105AC0009047204600210022402300254026FFF772
:105AD000BBFF01272046802100224023A4F86471E7
