:020000040800F2
:10000000580700203902000805190008AD1600083D
:1000100001190008E5030008B91A000800000000F3
:100020000000000000000000000000000D190008A2
:10003000E903000800000000091900081119000870
:10004000530200085302000853020008530200083C
:100050005302000853020008ED0300085302000891
:10006000530200085302000853020008530200081C
:10007000530200085302000853020008530200080C
:100080005302000853020008530200080000000059
:100090000000000000000000000000005302000803
:1000A00053020008530200085302000853020008DC
:1000B00053020008530200085302000853020008CC
:1000C00053020008530200085302000853020008BC
:1000D0005302000853020008530200080000000009
:1000E00053020008530200085302000800000000F9
:1000F00000000000000000000000000053020008A3
:1001000000000000530200085302000853020008D8
:1001100000000000000000000000000000000000DF
:10012000530200085302000853020008530200085B
:100130005302000800000000000000000000000062
:100140000000000000000000000000005302000852
:10015000530200085302000853020008530200082B
:1001600053020008530200080000000000000000D5
:10017000000000000000000000000000000000007F
:100180000000000053020008000000000000000012
:10019000530200085302000800F002F800F03CF897
:1001A0000AA090E8000C82448344AAF10107DA45D2
:1001B00001D100F031F8AFF2090EBAE80F0013F0E8
:1001C000010F18BFFB1A43F0010318473C19000048
:1001D0005C190000103A24BF78C878C1FAD85207D9
:1001E00024BF30C830C144BF04680C6070470000B1
:1001F0000023002400250026103A28BF78C1FBD830
:10020000520728BF30C148BF0B6070471FB501F0CF
:1002100062FC1FBD10B510BD00F0A9F81146FFF734
:10022000F5FF01F04BFC00F0C7F803B4FFF7F2FF55
:1002300003BC00F0CFF80000094880470948004798
:10024000FEE7FEE7FEE7FEE7FEE7FEE7FEE7FEE786
:10025000FEE7FEE704480549054A064B70470000E3
:10026000C119000899010008580100205807002012
:10027000580300205803002053EA020C00F0698064
:100280002DE9F04B4FF00006002B1FBFB3FA83F5AA
:1002900003FA05F424FA05F65E4012BF1643B2FADB
:1002A00082F502FA05F4C5F120051EBF22FA05FC0D
:1002B00044EA0C04203556EA044C4FEA144418BFB3
:1002C000641C4FF000084FF00009904271EB030CE2
:1002D00039D3002919BFB1FA81F701FA07F6B0FA4C
:1002E00080F700FA07F6C7F120071EBF20FA07FCC7
:1002F00046EA0C062037B6FBF4FCA7EB0507103FD7
:1003000007F01F0BCBF120062CFA06F60CFA0BFBBC
:1003100044BFB3460026202FA4BF5E464FF0000B1B
:100320005BEA060C08BF4FF0010B19EB0B0948EB19
:100330000608ABFB027C06FB02CC0BFB03CCC01B0C
:1003400071EB0C01C1E70B46024641464846BDE849
:10035000F08B13B5084318BF4FF0FF300146AFF3E1
:100360000080BDE81C407047704770477047754675
:1003700000F02CF8AE4605006946534620F0070011
:10038000854618B020B5FFF765FFBDE820404FF067
:1003900000064FF000074FF000084FF0000BAC468E
:1003A000ACE8C009ACE8C009ACE8C009ACE8C009D9
:1003B00021F007018D46704710B50446AFF3008069
:1003C0002046BDE81040FFF730BF000000487047EE
:1003D0001000002001491820ABBEFEE726000200F5
:1003E00070470000FEE7000070470000012000F0A9
:1003F00009B80000EFF3108072B600BFFEE70000FE
:100400007047000043F61441C4F201010A68024239
:1004100014BF08607047FFF7F3BF00002DE9F04FED
:1004200082B000F13E4241F2000502F1FF77C4F2D2
:10043000020507224FEAB726A84208BF0422042E6D
:1004400038BF4FEAB7224FF0010E002400274FF0CB
:100450000008009208E000BF023708F10108202FD1
:1004600004F1040400F0B4800E680EFA08F916EAEC
:10047000090FF1D0D1F804A00AF0030BABF101068B
:10048000012E19D80322866802FA07FECA6826EAF6
:100490000E06BA40324382604268CAF3001522EA6F
:1004A000090205FA08F54FEA480C6FEA0E064FF00C
:1004B000010E2A4342600BE00322BA40D643BBF14F
:1004C000030FBC4604D1BC464FF0030B24E000BF31
:1004D000C2688D68324005FA0CF52A43BBF1020F61
:1004E000C26019D16FF0030202EA5802024404F01C
:1004F0001C030F25D2F820E005FA03FA0D692EEA55
:100500000A0E05FA03F343EA0E031362D1F804A0BE
:100510004FF0010E0AF0030B02680BFA0CF33240A5
:100520001A431AF4403F026096D0002243F6440377
:100530000192C4F202031A6843F6004C42F480426E
:100540001A601A68C4F2010C02F480420192019A06
:1005500028F003024FF6084A6244CFF6FF7A52F8B9
:100560000A3004F00C060F25B540AB43009D05FA98
:1005700006F6334342F80A30DCF800204B6842EAC2
:100580000906DD0358BF22EA0906CCF80060DCF852
:1005900004209D0342EA090658BF22EA0906CCF866
:1005A0000460DCF80820DD0242EA090643F60C4547
:1005B00058BF22EA0906CCF80860C4F201052A688F
:1005C0009B0242EA090658BF22EA09062E6043E769
:1005D00002B0BDE8F08F0000002A08BF0904816165
:1005E0007047000040F25010C2F2000000687047EF
:1005F00070B5B8B3044690F83D0028B9002084F8DF
:100600003C00204600F0B0F8242084F83D0020682B
:10061000016821F001010160016841F400410160BD
:10062000016821F40041016000F03AFA48F280418B
:10063000C0F21E0140F60013D4F804E088424FF0E7
:100640000001C0F23D0348F2A16C4FF0000238BF38
:1006500001219842C0F2010C38BF0122E64538BFA3
:100660000A460AB1012070BD4DF68361C4F21B3108
:10067000A0FB01122168950C4B684FF4967623F08D
:100680003F0343EA9243754344F6D3564B60C1F2AD
:1006900062060B6AA5FB0656B50923F03F03E64543
:1006A00038BF950C6A1C1A430A62CA6948F2A066F0
:1006B0004CF6FF73C0F20106B64522EA03020BD8DE
:1006C00001384FEA4E03B0FBF3F001306FF31F30F7
:1006D000042898BF04201EE0A368013863B11923E1
:1006E0000EFB03F3B0FBF3F001306FF31F3078B172
:1006F00000F5804008E000BF0EEB4E03B0FBF3F0C6
:1007000001306FF31F3028B100F5004003E000BF57
:10071000012000E001201043C8610868D4E90723E4
:1007200020F0C000104318430860886848F2FF3288
:1007300004F10C0690434CCE18431043A569886021
:10074000C86820F0FF0030432843C860086840F0C4
:100750000100086000202021206484F83D102063FF
:1007600084F83E0070BD0000B0B586B0016845F267
:100770000040C4F20000814202D006B0B0BD00BF0C
:10078000002443F630050194C4F20205296800F5FF
:10079000D83041F002012960296801F0020101917D
:1007A0000199C02101911221CDE902140321049184
:1007B0000421059101A9FFF731FE0094286940F456
:1007C00000102861286900F400100090009806B01D
:1007D000B0BD000040F2000040F25011C2F2000033
:1007E000C2F2000100780A681044086070470000F7
:1007F00080B543F60040C4F20200016841F4007184
:100800000160016841F480610160016841F4807118
:100810000160032000F084F80F2000F005F800F0DC
:1008200027F8002080BD000070B540F20006C2F23B
:10083000000640F208013278C2F200014FF47A73E8
:100840000968B3FBF2F20446B1FBF2F1084600F08E
:1008500041FB0F2C4FF0010508D838B94FF0FF309D
:1008600021460022002500F02FF87460284670BD54
:1008700082B0002043F640010190C4F202014A68B0
:1008800042F480424A604A6802F480420192019A2E
:100890000090086840F080500860086800F08050C0
:1008A0000090009802B07047002848BF704700F0E1
:1008B0001F01012202FA01F14EF200124009CEF2AC
:1008C000000242F82010704710B54EF60C5CCEF2D4
:1008D000000CDCF80030C3F3022E8EF00704042C69
:1008E00028BF0424BEF103034FF0FF3E0EFA04F4C8
:1008F00038BF0023A14399400EFA03F39A431143F2
:1009000000F00F02043A624409010C3200F1604326
:10091000B0F1FF3FC8BF03F56442117010BD000085
:100920004EF60C51CEF200010A684FF6FF031A4052
:1009300060F30A2242F0806040F0FD70086070476A
:100940002DE9F041002800F08B8043F60808C4F23E
:1009500002080446D8F8F8030D4600F00700884264
:1009600007D288F8F853D8F8F80300F00700A84237
:1009700076D12068810717D5410705D5D8F8001032
:1009800041F4E051C8F80010010705D5D8F800106F
:1009900041F46041C8F80010D8F80010A26821F0B6
:1009A000F0011143C8F80010C0073FD1D8F8F80390
:1009B00000F00700A84207D988F8F853D8F8F803E0
:1009C00000F00700A8424BD12068410707D5D8F8AE
:1009D0000010E26821F4E0511143C8F8001000074C
:1009E00008D5D8F80000216920F4604040EAC10031
:1009F000C8F8000000F07CF8D8F8001041F6F022AA
:100A0000C1F30311C0F60002515C40F2080220FA63
:100A100001F140F20400C2F200000068C2F20002DC
:100A20001160FFF701FF0020BDE8F0816068811EC2
:100A3000022907D258F8081C89015CBF0120BDE8D3
:100A4000F08111E0012807D158F8081C89035CBF28
:100A50000120BDE8F08107E058F8081C890703D49D
:100A60000120BDE8F08100BFD8F8001021F003019B
:100A70000843C8F80000FFF7B5FD064641F2883785
:100A8000D8F80000616800F00C00B0EB810F8DD049
:100A9000FFF7A8FD801BB842F2D90320BDE8F08122
:100AA00040F2080043F60801C2F20000C4F202015D
:100AB0000068096841F60032C1F38221C0F60002E5
:100AC000515CC8407047000040F2080043F608013E
:100AD000C2F20000C4F202010068096841F6003267
:100AE000C1F34231C0F60002515CC84070470000BB
:100AF00010B543F60404C4F20204606800F00C0070
:100B000008280BD0042819BF42F20040C0F2F400BC
:100B100047F64000C0F27D1010BD00BF206821687C
:100B20002368490247F64001C0F27D1100F03F0200
:100B3000C3F388105CBF42F20041C0F2F401A1FB94
:100B400000010023FFF798FB21680222C1F3014155
:100B500002EB4101B0FBF1F010BD00002DE9F041C6
:100B600082B000286AD00446007843F60006C00729
:100B7000C4F202060BD0B06800F00C00042840F06C
:100B8000A1803068800302D56068002856D02078A4
:100B900080071AD5B06810F00C0F09D0B06800F0CB
:100BA0000C00082840F0A8807068400200F1A48082
:100BB0003068800702D5E06801283FD1306821699C
:100BC00020F0F80040EAC10030602078000739D4F6
:100BD000207840074ED4A5695DB3B06800F00C00E2
:100BE000082840F0BD80012D28D07068E16900F42C
:100BF00080028A4222D1216A00F03F028A421DD13E
:100C000047F6C071626A0140B1EB821F16D1A26A39
:100C10000023CFF6FF7303EBC23200F440316FF3D1
:100C20000F0291420AD1E16A00F07060B0EB016FEF
:100C300004D1002002B0BDE8F08100BF012002B065
:100C4000BDE8F0816069002840F20000C4F247204E
:100C500076D00121C0F8801EFFF7C4FC054600BF16
:100C6000706F8007B4D4FFF7BDFC401B0228F7D992
:100C7000DDE000BF306C10F080580AD100200190F8
:100C8000306C40F080503064306C00F08050019047
:100C9000019847F20007C4F200073868C00541D444
:100CA000386840F480703860FFF79CFC054600BF50
:100CB0003868C00536D4FFF795FC401B0228F7D9E9
:100CC000B5E000BFB06800F00C00082803D17068E0
:100CD00040023FF556AF6068B0F5803F07D0B0F5F1
:100CE000A02F40F08D80306840F480203060306864
:100CF00040F4803030608DE0E068002852D0002061
:100D0000C4F2472001210160FFF76CFC054600BFDB
:100D1000306880073FF552AFFFF764FC401B0228A4
:100D2000F6D984E0A068012805D005284ED1306F9F
:100D300040F004003067306F40F0010030674FE052
:100D40000021C0F8801EFFF74DFC0546706F80073C
:100D50007FF53EAFFFF746FC401B0228F6D966E060
:100D60000027C4F2472700203866FFF73BFC022D1E
:100D700005460BD1306880015ED5FFF733FC401B80
:100D800002284FF00300F5D954E700BF3068800116
:100D90007FF54FAFFFF726FC401B02284FF0030002
:100DA000F4D947E70020C4F2472000210160FFF793
:100DB00019FC0546306880077FF507AFFFF712FC86
:100DC000401B02284FF00300F4D933E7316F0028AD
:100DD00021F001013167316F21F0040131674DD0FD
:100DE000FFF700FC054641F2883700BF306F8007EF
:100DF00056D4FFF7F7FB401BB842F7D917E000BF06
:100E00003168002821F480313160316821F480217B
:100E100031604FD0FFF7E6FB054600BF3068800326
:100E20003FF5B5AEFFF7DEFB401B6428F6D9032083
:100E300002B0BDE8F08100BF04F11C052FCD0843CE
:100E40000021CFF6FF7140EA821001EBC3316FF34E
:100E50000F0140EA05600843706001203866FFF723
:100E6000C1FB0446306880013FF5E3AEFFF7BAFBF3
:100E7000001B02284FF00300F4D9DBE6FFF7B2FBBA
:100E8000054641F2883700BF306F800708D5FFF76D
:100E9000A9FB401BB8424FF00300F5D9CAE600BFDA
:100EA000B8F1000F7FF497AE306C20F080503064C2
:100EB00091E600BFFFF796FB054600BF3068800350
:100EC0007FF565AEFFF78EFB401B64284FF00300F3
:100ED000F4D9AFE6411E0020B0EB116F1CBF01201A
:100EE00070474EF21002CEF2000251604EF62351CE
:100EF000CEF20001F0230B70072190601160704763
:100F000010B590F83C20012A4FF002023ED080F844
:100F10003D200268D2F804E0D2F808C00C682EF038
:100F20007003234340F6FF34C4F20004A24253602E
:100F300010DCB2F1804F1ED040F20043C4F2000337
:100F40009A4218D040F60003C4F200039A4212D02D
:100F500016E000BF40F60043C4F200039A420AD0F4
:100F600044F20003C4F201039A4204D00023C4F205
:100F700001039A4204D149682CF08003194391601F
:100F80000121002280F83D1080F83C20104610BD61
:100F9000002804BF0120704710B5044690F83D00BA
:100FA00028B9002084F83C00204600F08FF8022089
:100FB00084F83D00206840F2FF730268C4F2000329
:100FC00040F2000C9842C4F2010C1DDD40F6000115
:100FD000C4F20001884220D060451ED040F6004196
:100FE000C4F20001884218D04FF6FF71C4F200012C
:100FF00088421CDC984225DCB0F1804F3AD040F2A8
:101000000041C4F2000133E0B0F1804F05D040F25E
:101010000041C4F200018842E6D1A16822F07002CA
:101020000A434FF6FF71C4F200018842E2DD44F248
:10103000FF31C4F20101884210DC60451AD044F24D
:10104000000113E040F60001C4F20001884211D013
:1010500040F60041C4F200010AE000BF44F600017E
:10106000C4F20101884205D044F20041C4F20101FA
:10107000884203D1216922F440720A43A36922F015
:101080008001D4F804E0E268194360450160C2625F
:10109000C0F828E002D16169CCF83010012141612B
:1010A000002084F8461084F83E1084F83F1084F83D
:1010B000401084F8411084F8421084F8431084F8FA
:1010C000441084F8451084F83D1010BD81B00068CC
:1010D00040F20041C4F20001884201D001B07047E3
:1010E0000020009043F64000C4F20200016841F085
:1010F00002010160006800F002000090009801B059
:101100007047000080B590F83C20012A4FF00202A1
:1011100000F0C28080F83D20D0F800C04FF6777212
:10112000DCF8083023EA0202CCF808200B684F2BC9
:1011300028DC1F2B44DD202B45D0302B43D0402B07
:1011400040F0AC80D1F804E0C968DCF82030DCF86D
:10115000202022F00102CCF82020DCF8182022F018
:10116000F00242EA011123F00A0242EA0E02CCF830
:101170001810CCF82020DCF8081041F0470121F0CD
:10118000300180E06F2B27DDB3F5005F48D0B3F569
:10119000805F7AD0702B40F08180D1E901E3C9688B
:1011A000DCF8082043EA0E0322F47F4243EA0121DF
:1011B0001143CCF80810DCF8081041F0770162E028
:1011C0000BB1102B6AD1DCF8081021F07001194323
:1011D00041F0070157E000BF502B35D0602B5DD1A7
:1011E000D1F804E0C968DCF8203023F01003CCF813
:1011F0002030DCF81830DCF8202023F4704322F093
:10120000A00243EA013142EA0E12CCF81810CCF8E1
:101210002020DCF8081041F0670121F0100132E0D5
:10122000D1E901E3C968DCF8082043EA0E0322F49F
:101230007F4243EA01211143CCF80810DCF8081082
:1012400041F480411FE000BFD1F804E0C968DCF838
:101250002030DCF8202022F00102CCF82020DCF83D
:10126000182022F0F00242EA011123F00A0242EAB9
:101270000E02CCF81810CCF82020DCF8081041F051
:10128000570121F02001CCF808100022012180F83C
:101290003D10002180F83C10104680BD0122F5E78A
:1012A0002DE9F04390F83C30012B04BF0220BDE84B
:1012B000F0834FEAB202032A3AD8DFE802F0034192
:1012C0007DB700BF036800261A6AC4F2010622F047
:1012D00001021A621D6A1A465C6852F818CFB342BE
:1012E0008E68D1F800E025F0020545EA06050CD12C
:1012F000CE68D1E9057824F4407425F00C0526F079
:1013000004063C43354344EA08042CF0730747EADB
:101310000E075C609F614F6809695F631D629F698A
:1013200047F008079F619F6927F004079F61ACE0C1
:101330000121002280F83C200846BDE8F08300BF70
:10134000036800261A6AC4F2010622F010021A622B
:101350001D6A1A46D3F804C052F8184FB3428E687B
:10136000D1F800E025F0200545EA06150FD1CE683A
:10137000D1E905986FF0400707EA06162CF440679C
:1013800025F0C00547EA8907354347EA880C24F46D
:10139000E64444EA0E27C3F804C09F614F68096918
:1013A0009F631D629F6947F400679F619F6927F4EF
:1013B00080679F6168E000BF036800261A6AC4F274
:1013C000010622F480721A621D6A1A46D3F804C01C
:1013D00052F81CEFB3428E680C6825F4007545EA9C
:1013E00006250FD1CE68D1E90598360240F2FF47B5
:1013F000BE432CF4405725F4406547EA09173543AE
:1014000047EA081C2EF073072743C3F804C0DF61C6
:101410004F680969DF631D62DF6947F00807DF6114
:10142000DF6927F00407DF612FE000BF03680027B2
:101430001A6AC4F2010722F480521A621A46D3F8DB
:1014400020C05D6852F81C4FD1F800E08E68BB42A6
:1014500004D14F6925F4804545EA87152CF40057DF
:1014600047EA063724F4E64646EA0E265D60DE616A
:101470004E6809691E641F62DF6947F40067DF6117
:10148000DF6927F48067DF6109021368194311607F
:101490000021002280F83C200846BDE8F0830000CF
:1014A000002804BF0120704710B5044690F83D00A5
:1014B00028B9002084F83C00204600F08FF8022074
:1014C00084F83D00206840F2FF730268C4F2000314
:1014D00040F2000C9842C4F2010C1DDD40F6000100
:1014E000C4F20001884220D060451ED040F6004181
:1014F000C4F20001884218D04FF6FF71C4F2000117
:1015000088421CDC984225DCB0F1804F3AD040F292
:101510000041C4F2000133E0B0F1804F05D040F249
:101520000041C4F200018842E6D1A16822F07002B5
:101530000A434FF6FF71C4F200018842E2DD44F233
:10154000FF31C4F20101884210DC60451AD044F238
:10155000000113E040F60001C4F20001884211D0FE
:1015600040F60041C4F200010AE000BF44F6000169
:10157000C4F20101884205D044F20041C4F20101E5
:10158000884203D1216922F440720A43A36922F000
:101590008001D4F804E0E268194360450160C2624A
:1015A000C0F828E002D16169CCF830100121416116
:1015B000002084F8461084F83E1084F83F1084F828
:1015C000401084F8411084F8421084F8431084F8E5
:1015D000441084F8451084F83D1010BD7047000099
:1015E000002804BF0120704710B5044690F83D0064
:1015F00028B9002084F83C00204600F021F824207F
:1016000084F83D002068C16821F40051C160204683
:1016100000F0E0F92068016921F49041016141691D
:1016200021F02A014161C16841F40051C1600020EC
:101630002021206484F83D1084F83E1010BD000085
:1016400080B586B0016841F20000C4F20100814219
:1016500002D006B080BD00BF002143F630020191E8
:10166000C4F20202536900F5704043F01003536165
:10167000536903F010030193019B0191136843F038
:1016800001031360126802F001020192019A4FF403
:10169000B05201920222CDE90221032104910721D7
:1016A000059101A9FEF7BAFE06B080BDFEE7000075
:1016B00070B586B0002543F6300005950095C4F25C
:1016C0000200016840F6000441F004010160016875
:1016D000C4F2020401F00401009100990095016830
:1016E000002241F08001016001684FF4005601F0D2
:1016F0008001009100990095016841F001010160AD
:10170000016801F00101009100990095016841F024
:101710000201016000684FF4005100F002000090E7
:1017200000982046FEF758FF1120CDE902050495E8
:1017300001AD204629460196FEF770FE01264FF4C2
:101740004410CDE90206A4F5006029460196FEF793
:1017500065FE202001904FF48810CDE90206A4F523
:1017600080602946FEF75AFE062000210022FFF77E
:10177000ABF80620FFF798F806B070BD80B540F2D0
:10178000700045F20041C2F20000C4F2000148F2CC
:10179000A06200234FF4804CC0F2010280E80E00EA
:1017A000C0E9033CC0E90533C0E90733FEF720FF79
:1017B000002808BF80BDBDE88040FEF71BBE0000CA
:1017C000B0B594B040F2004540F2C400C4F2000548
:1017D0000021C2F200004FF6FF720E91CDE90C110C
:1017E0000991CDE90711CDE90511CDE90311CDE945
:1017F0000111C0E90051C0E9021201618161FFF7E6
:10180000C7FB002818BFFEF7F5FD4FF480500B9082
:1018100040F2C400C2F200000BA9FFF773FC0028DD
:1018200018BFFEF7E7FD40F2C400C2F20000FFF768
:1018300037FE002818BFFEF7DDFD40F2C40000248B
:10184000C2F2000008A9CDE90844FFF759FB0028BF
:1018500018BFFEF7CFFD6020CDE901040394059485
:1018600040F2C404C2F2000401A920460022FFF79E
:1018700017FD002818BFFEF7BDFD2068A84201D063
:1018800014B0B0BD002043F630010F90C4F2020145
:101890000A6842F001020A60096801F001010F9133
:1018A0000F9940210F910221CDE91010CDE91201CD
:1018B00005F5FE300FA9FEF7B1FD14B0B0BD000074
:1018C00080B540F20C1041F20001C2F20000C4F2F7
:1018D000010100234FF00C0C4FF4807E4FF4E132F5
:1018E00080E80E00C0E90333C0E905CEC361FFF70D
:1018F00077FE002808BF80BDBDE88040FEF77ABDB6
:10190000FEE70000FEE7000070470000704700009F
:10191000FEF760BFB0B592B0002443F64000CDE9B9
:101920000A44CDE908440594CDE90344CDE90144D6
:101930000094C4F202000168022541F08051016068
:10194000006800F080500090009847F2000000947A
:10195000C4F20000016841F440410160006800F4F5
:10196000404000900098012006904FF4803007908E
:101970004FF480000D9019200E90C820CDE90F057E
:101980000420119006A80C95FFF7E8F820B1EFF3BA
:10199000108072B6FEE700BF0F20CDE901054FF4BD
:1019A0008050CDE9040401A803210394FEF7C8FF89
:1019B00020B1EFF3108072B6FEE700BF12B0B0BDE9
:1019C0004EF68850CEF20000016841F470010160CB
:1019D0007047000010B504460068D4E902C22369CC
:1019E000016921F4405111430161626943EA0C012C
:1019F000E3691143C268194349F20C639A431143E6
:101A0000C1604169A26921F4407141F20043114370
:101A100040F48062C4F201039A42416102D1FFF7AF
:101A200053F801E0FFF73CF8E16963681922B1F56A
:101A3000004FA0FB02011FD15A00DB0FFEF71CFC78
:101A400048F21F51C5F2EB11A0FB01235A096FF0B8
:101A5000630302FB0300322303EBC000A0FB010180
:101A60004FF4F87000EA111000EB0210C1F34211BC
:101A700008442168886010BD9A009B0FFEF7FCFBAC
:101A800048F21F51C5F2EB11A0FB01235A096FF078
:101A9000630302FB0300322303EB0010A0FB0101F0
:101AA000F02000EA511000EB0210C1F3431108448A
:101AB0002168886010BD0000FEE70000FEF798FE78
:101AC000FFF728FFFFF7F4FDFFF758FEFFF778FE5A
:101AD000FFF7F6FEFEE7F1EE100A4FF6FF71C0F2D7
:101AE000C03120EA010040F04070E1EE100A70477A
:101AF00000000000000000000102030406070809BE
:101B00000000000001020304281B00080000002060
:101B100010000000D4010008381B0008100000204D
:101B200048070000F001000801000000100000005C
:081B30000024F4000000000095
:040000050800019955
:00000001FF
