:020000040800F2
:10000000302600209D020008E19200088168000867
:10001000DD920008851E000885D70008000000005A
:10002000000000000000000000000000F19D00083A
:100030005921000800000000ED9D0008819E000885
:10004000B7020008B7020008B7020008B7020008AC
:10005000A1220008B70200085D210008B7020008CD
:10006000B7020008B7020008B70200080120000824
:10007000B7020008B7020008B7020008B70200087C
:10008000B7020008B7020008B7020008000000002D
:10009000000000000000000000000000B70200089F
:1000A000B7020008B7020008B7020008B70200084C
:1000B000B7020008559F0008B702000895680008BD
:1000C00085680008B7020008B7020008B7020008F8
:1000D000B7020008B7020008B702000800000000DD
:1000E000B7020008B7020008B702000800000000CD
:1000F000000000000000000000000000B70200083F
:1001000000000000B7020008B7020008B7020008AC
:1001100000000000000000000000000000000000DF
:10012000B7020008B7020008B7020008B7020008CB
:10013000B7020008000000000000000000000000FE
:1001400000000000000000000000000051930008C3
:10015000B7020008B7020008B7020008B70200089B
:10016000B7020008B702000800000000000000000D
:10017000000000000000000000000000000000007F
:1001800000000000CD230008000000000000000077
:10019000B7020008B702000800F002F800F06EF89D
:1001A0000AA090E8000C82448344AAF10107DA45D2
:1001B00001D100F063F8AFF2090EBAE80F0013F0B6
:1001C000010F18BFFB1A43F001031847202E01004E
:1001D000402E01000A444FF0000C10F8013B13F0D0
:1001E000070408BF10F8014B1D1108BF10F8015B90
:1001F000641E05D010F8016B641E01F8016BF9D183
:1002000013F0080F1EBF10F8014BAD1C0C1B09D1D9
:100210006D1E58BF01F801CBFAD505E014F8016B4B
:1002200001F8016B6D1EF9D59142D6D370470000DD
:100230000023002400250026103A28BF78C1FBD8EF
:10024000520728BF30C148BF0B6070471FB512F07E
:10025000B6FC9DE8030000F0D3F901F0C1FA0400F8
:100260000020002111F028FD401C606000200021CA
:1002700011F00CFDE0601FBD10B510BD01F083FA58
:100280001146FFF7E3FF0DF0A3FC01F033FB03B4CD
:10029000FFF7F2FF03BC01F063FB00000948804751
:1002A00009480047FEE7FEE7FEE7FEE7FEE7FEE758
:1002B000FEE7FEE7FEE7FEE704480549054A064B70
:1002C00070470000419F000899010008302000207D
:1002D00030260020302200203022002070B5064653
:1002E00000F072F9056806F10B0020F00704B44233
:1002F0009CBF002070BD2B466A68BAB11068A0424E
:1003000010D304F1080188423CBF5068586007D3FD
:100310005168101941601168091B01605860146030
:10032000101D70BD13465268002AE7D121462846A9
:1003300000F052F90028DED170BD53EA020C00F043
:1003400069802DE9F04B4FF00006002B1FBFB3FA78
:1003500083F503FA05F424FA05F65E4012BF16434E
:10036000B2FA82F502FA05F4C5F120051EBF22FAA1
:1003700005FC44EA0C04203556EA044C4FEA1444C8
:1003800018BF641C4FF000084FF00009904271EB59
:10039000030C39D3002919BFB1FA81F701FA07F626
:1003A000B0FA80F700FA07F6C7F120071EBF20FA5F
:1003B00007FC46EA0C062037B6FBF4FCA7EB050762
:1003C000103F07F01F0BCBF120062CFA06F60CFAB3
:1003D0000BFB44BFB3460026202FA4BF5E464FF060
:1003E000000B5BEA060C08BF4FF0010B19EB0B0981
:1003F00048EB0608ABFB027C06FB02CC0BFB03CCF4
:10040000C01B71EB0C01C1E70B4602464146484652
:10041000BDE8F08B13B5084318BF4FF0FF3001461D
:10042000AFF30080BDE81C40704700000FB400B57A
:100430008DB010A9099000910B904FF0FF300A90F9
:1004400000200C90064878440690064878446A4696
:1004500007900F9909A800F003FB0DB05DF814FB9D
:10046000370600004F06000010B5431C02E010F8EC
:10047000011B71B18107FAD14FF0013202C88C1A09
:100480008C4314EAC211F9D0C01A0A0603D0C01E68
:1004900010BDC01A10BD0A0401D0801E10BD090293
:1004A000FCD0401E10BD032A40F2308010F0030C37
:1004B00000F0158011F8013BBCF1020F624498BFB7
:1004C00011F801CB00F8013B38BF11F8013BA2F154
:1004D000040298BF00F801CB38BF00F8013B11F0CF
:1004E000030300F05384083AC0F0088051F8043B3D
:1004F000083A51F804CBA0E80810F5E7121D5CBFDC
:1005000051F8043B40F8043BAFF30080D20724BF0E
:1005100011F8013B11F801CB48BF11F8012B24BFA2
:1005200000F8013B00F801CB48BF00F8012B7047F1
:100530004FF000020429C0F0128010F0030C00F00C
:100540001B80CCF1040CBCF1020F18BF00F8012B8A
:10055000A8BF20F8022BA1EB0C0100F00DB85FEA58
:10056000C17C24BF00F8012B00F8012B48BF00F824
:10057000012B70474FF0000200B513469446964693
:10058000203922BFA0E80C50A0E80C50B1F12001A6
:10059000BFF4F7AF090728BFA0E80C5048BF0CC054
:1005A0005DF804EB890028BF40F8042B08BF7047B2
:1005B00048BF20F8022B11F0804F18BF00F8012B24
:1005C000704770477047704700487047C00100206F
:1005D000704770477047704738B504460A46002098
:1005E0006946AFF30080002808BF38BD0246009975
:1005F000204600F005FC012038BD012001F0BBB809
:10060000F8B5AFF30080054600200C46102000BF6F
:100610000646A819A0420DD9324669460020AFF31C
:100620000080070008BF01F0A6F80098A04218BF9C
:100630000546C419FFF7C8FF05600746F01D20F006
:1006400007004619284600F00AF8B44208BFF8BD72
:10065000A21B31463868BDE8F84000F0D1BB00214C
:100660000160C0E9011070471020704770B5044662
:10067000051FFFF7A9FF0068002C14BF446870BD78
:10068000002C18BFAC423CBF20466468F8D3016818
:100690000A18AA4218BF456003D12A6805461144CA
:1006A000016028684119A1421CBF6C6070BD61687F
:1006B000696021680844286070BD10B500F09CFB9B
:1006C000006810BD10B5044600F096FB046010BD34
:1006D0002DE9FF4F1C4691464FF0FF3581B00021B8
:1006E0008A468846D4E90167A16902986D1C88474B
:1006F000216A834688470028F6D1BBF1FF3F0CD022
:10070000002F26F4C0661ADD700615D5BBF12B0F3D
:100710000AD0BBF12D0F0FD104E04FF0FF3005B030
:10072000BDE8F08F46F48066A16902986D1C884789
:100730007F1E8346002F02DDBBF1300F03D0B9F1DD
:10074000000F2AD025E0A1696D1C02987F1E46F497
:1007500000768847002F834605DDBBF1780F06D071
:10076000BBF1580F03D0B9F1000F10D011E0B9F16F
:10077000000F02D0B9F1100F0BD1A1696D1C0298C6
:100780007F1E26F4007688478346102000E008206C
:1007900081464FEAE970009017E00A20F8E74346E7
:1007A000AAFB0928DDF800C07F1E03FB098046F480
:1007B000007605F101050AFB0C0112EB0B0A029809
:1007C00041EBEB78A16988478346002F06DD494657
:1007D000584600F038FB5FEA000BE0D5E16902986B
:1007E0008847B00502D46FF0010098E7F00718D1F0
:1007F000700610D55146700505D50023D1EB0301D5
:1008000063EB080200E042462068031D2360006895
:10081000C0E9001205E02068011D21600068C0E900
:1008200000A828467BE72DE9FF5F1D464FF0FF3B00
:1008300091464FF000085F46D5E90146A969019845
:100840007F1C8847296A824688470028F6D1BAF17A
:10085000FF3F0CD0002E24F4C06419DD600614D5CF
:10086000BAF12B0F09D0BAF12D0F0ED103E0584683
:1008700004B0BDE8F09F44F48064A96901987F1C2E
:100880008847761E8246002E02DDBAF1300F03D073
:10089000B9F1000F26D032E0A969761E01987F1CBD
:1008A00044F400748847002E824605DDBAF1780FC3
:1008B00006D0BAF1580F03D0B9F1000F10D01EE0E6
:1008C000B9F1000F02D0B9F1100F18D1A969761E45
:1008D00001987F1C24F4007488478246102002E0AF
:1008E000082000E00A20814609E0A96908FB090800
:1008F000761E01987F1C44F4007488478246002EBF
:1009000005DD4946504600F09EFA0028EDDAE96917
:1009100001988847A00502D46FF00100A8E7E0071E
:1009200025D1600613D5600502D5C8F1000000E0AE
:10093000404629680A1D2A600968220501D5087009
:1009400015E0220701D5088011E008600FE0286853
:10095000011D29600068210502D580F8008006E0AD
:10096000210702D5A0F8008001E0C0F800803846D9
:100970007EE72DE9FF5F4FF0000899461446464692
:100980009169D2E901A7DDF838B00198884705469A
:1009900059EA0B0005D009E0A1690198761C884747
:1009A0000546216A284688470028F5D1681C03D0EF
:1009B0005FEACA7005D015E04FF0FF3004B0BDE823
:1009C000F09F2068011D2160D0F800800AE05FEAF6
:1009D000CA7001D108F8015BA169761C01987F1EDD
:1009E00088470546002F1ADD681C18D0B9F1000FA2
:1009F0000DD0E81705EBD060421120F01F0059F828
:100A000022102A1A012090400142E0D107E0BBF1F8
:100A1000000FDCD12846216A88470028D7D0E16939
:100A200001988847BBF1000F07D1002E05DD5FEA72
:100A3000CA7002D1002188F80010A068B84203DD16
:100A4000BBF1000F03D017B16FF00100B6E73046DD
:100A5000B4E700000268114413780160184670473B
:100A6000D1600549794451610449794411620021FA
:100A70001161114600F0F6B9EDFFFFFFC70300005A
:100A8000426842B1016811F8013B23B1521EC0E92E
:100A90000012184670470121C160881E70474268E5
:100AA0005AB1C368016843B983688B4205D0491EB7
:100AB000521CC0E90012002070474FF0FF30704711
:100AC0002DE9FF4F4FF000089A461446C1464646AE
:100AD00083B0D2E901B7CDF80080CDF804809169E8
:100AE00004988847109905465AEA010005D009E0A4
:100AF000A1690498761C88470546216A28468847DC
:100B00000028F5D1681C03D05FEACB7005D02AE03D
:100B10004FF0FF3007B0BDE8F08F2068011D216065
:100B2000D0F800801FE002A86A46E9B200F0DFFDBD
:100B3000411C07D0801C09D04FF000095FEACB7040
:100B400007D00AE0E169049888473EE04FF00109C8
:100B500004E0BDF8081028F8021B7F1EA169049864
:100B6000761C88470546002F1ADD681C18D0BAF19C
:100B7000000F0DD0E81705EBD060421120F01F00E8
:100B80005AF822102A1A012090400142CBD107E0E6
:100B900010980028C7D12846216A88470028C2D06B
:100BA000E16904988847B9F1000F0ED1109830B967
:100BB000002E04DD5FEACB7001D1A8F80000A06828
:100BC000B84202DD109818B117B16FF00100A1E72B
:100BD00030469FE72DE9FF4F4FF000089B46144633
:100BE000454683B0D2E90196CDF80080CDF8048067
:100BF0009169DDF848A00498884707465BEA0A0037
:100C000005D009E0A16904986D1C88470746216A50
:100C1000384688470028F5D1781C03D05FEAC970B0
:100C200005D01BE04FF0FF3007B0BDE8F08F206823
:100C3000011D2160D0F8008010E05FEAC97007D183
:100C40006A464046B9B200F072FD411C31D0804482
:100C5000A1696D1C0498761E88470746002E14DD96
:100C6000781C12D0BBF1000007D03B46DDE9101222
:100C700000F02EFD0028E0D107E0BAF1000FDCD132
:100C80003846216A88470028D7D0E1690498884708
:100C9000BAF1000F06D1002D04DD5FEAC97001D161
:100CA00088F80000A068B04203DDBAF1000F03D05D
:100CB00016B16FF00100B7E72846B5E72DE9FF5FF1
:100CC0009B46144600273D469169D2E90196DDF81E
:100CD00040A00198884780465BEA0A0005D009E0F9
:100CE000A16901986D1C88478046216A4046884763
:100CF0000028F5D1B8F1FF3F03D05FEAC97005D0F5
:100D000014E04FF0FF3004B0BDE8F09F2068011DF3
:100D1000216007680AE05FEAC97001D127F8028BF9
:100D2000A1696D1C0198761E88478046002E15DD4E
:100D3000B8F1FF3F12D0BBF1000007D04346DDE918
:100D40000E1200F0C5FC0028E5D107E0BAF1000F53
:100D5000E1D14046216A88470028DCD0E16901984A
:100D60008847BAF1000F05D1002D03DD5FEAC97095
:100D700000D13880A068B04203DDBAF1000F03D083
:100D800016B16FF00100BEE72846BCE710B5203A67
:100D9000C0F00B80B1E81850A0E81850B1E8185026
:100DA000A0E81850203ABFF4F5AF5FEA027C24BFF8
:100DB000B1E81850A0E8185044BF18C918C0BDE8E1
:100DC00010405FEA827C24BF51F8043B40F8043BAA
:100DD00008BF7047D20728BF31F8023B48BF11F85F
:100DE000012B28BF20F8023B48BF00F8012B7047B9
:100DF00000487047B801002000487047B801002043
:100E0000034640688C46002818BF88423CBF034612
:100E10004068F8D318681844884207D00CF10300E2
:100E200020F00700001D411A521A0146081D0A60F1
:100E3000FFF71CBC10B5044600F0CAFC0068005D5A
:100E400000F0010010BD3A2800D2303820F0200216
:100E5000412A01D3A2F13700884201D34FF0FF307D
:100E6000704700002DE9F34F4FF0000A0C4656463C
:100E70008DB001200C9001F10C000B9062690B9871
:100E800001219047051E2DD0252D2CD0216A8847A1
:100E9000C0B162690B9801219047216A88470028F8
:100EA000F7D16269411E0B98904700E0761CA1695A
:100EB0000D988847216A88470028F7D1E1690D9885
:100EC0008847DBE7A1690D988847A842074601D10A
:100ED000761CD3E7E1690D9888477F1C02D1BAF1EF
:100EE000000F6FD06BE162690B9800273D463946D1
:100EF00090472A2804D162690B9801219047012567
:100F0000DFF8D08262690B9801219047A0F130018F
:100F10000A290AD24745E5DC07EB870100EB4107C8
:100F2000303FDFD445F01005ECE7E90601D46FF05F
:100F300000476C280AD04C2814D0682815D06A289D
:100F40000DD074281CD07A281AD01DE062690B9845
:100F5000012190476C2802D045F0040514E045F0CB
:100F600002050DE045F020050AE062690B980121B9
:100F70009047682802D045F0080505E045F4006573
:100F800062690B9801219047C4E9015765283DD05B
:100F900019DC58287AD00CDC452837D004DC252809
:100FA00026D041289ED131E046282FD0472899D11C
:100FB0002CE05B2877D0612828D063287CD0642877
:100FC00023D15AE0F6E06F2848D008DC66281DD00F
:100FD00067281BD0692821D06E2816D127E07028F9
:100FE00045D0732868D0752847D078280DD14DE0BA
:100FF000A1690D988847252805463FF469AFE16946
:101000000D9888476D1C3FF46AAFD8E00D992346D0
:101010006A466FF0010011F047FEC5E045F0400060
:1010200023464FF000026060A80736D43EE0E80790
:101030007FF447AF2068011D21600068290501D5B4
:1010400006701BE7290701D5068017E7A90703D516
:10105000F117C0E9006111E706600FE745F04000B5
:1010600023464FF008026060A80716D41EE040F641
:101070000E0125EA0100606016E045F040002346BD
:101080004FF00A026060A80707D40FE045F0400067
:101090006060A80708D5234610220D996FF0010063
:1010A000FFF716FB80E007E0102223460D996FF052
:1010B0000100FFF7B8FB77E04FF0000963284F46C7
:1010C000C8464B46CB4602D05B2806D038E0E8063F
:1010D00001D40120A060012732E06269D4F80CB08D
:1010E0000B98012190475E2807D14FF0010949462E
:1010F0006269D4F80CB00B989047216939B9002186
:101100000A4603AB43F82120491C0829FADBD8B36F
:10111000216949B308F1010862690B9801219047E0
:101120005D28F4D1B9F1000F09D0002003A951F8CE
:101130002020D24341F82020401C0828F7DB03ABD5
:101140002069002820794FEA40701ED05B46224675
:10115000CDF80080CDE901970D9900286FF00100CE
:1011600020DAFFF7ABFD1FE0C11703AA00EBD16146
:101170004B1121F01F0102EB8302411A1368012079
:10118000884003431360C7E719E00D992246002801
:101190006FF00100009702DAFFF792FC04E0FFF71E
:1011A000E8FB01E0FFF716FD00280ADA401C06D133
:1011B0000C9820B14FF0FF300FB0BDE8F08F5046D3
:1011C000FAE7E90701D10AF1010A064400200C9070
:1011D00054E60000CCCCCC0C2DE9FF4F06468BB07A
:1011E0000878FF2806D0491C2D2805D000244FF090
:1011F000000908E000200CE00124F8E709EB89036E
:10120000491C00EB43090878FF28F7D114B1C9F154
:1012100000008146107800252C46AA4629462D2834
:1012200001D02B2804D1521C2D2813D00020824637
:101230008B461078FF280FD04FF0000C0A21521C6B
:10124000A5FB017804FB018105FB0C11C5194BEBD3
:101250000104EEE70120EAE7002108464FF0000014
:10126000BAF1000F02D000EB80004008C0F38157B4
:10127000012F01DD4FF0FF370E9955EA040009EB0D
:1012800001080BD04FF0020918F5FA7F16DA4FEA81
:10129000CA70002F706008DD012007E04FEACA70B5
:1012A000C6E900B00FB0BDE8F08F00203060FFF756
:1012B000A3FDC0F800901821084616E0B8F5FA7FA3
:1012C00018DD002F02DAF748784401E0F648784448
:1012D000D0E90010C6E9001040EACA707060FFF75C
:1012E0008BFDC0F80090142108460FB0BDE8F04F08
:1012F00011F077BC002108464FF00000B8F1000162
:10130000099002DAC7F1000200E03A4601DAC8F1BA
:10131000000106A800F07CFA06AB93E8070003ABD7
:1013200083E8070044F23E005BEA0401009058465F
:1013300004D144F21E012C465D460091210C0904A3
:10134000014306D10099240444EA15442D041039C0
:10135000009104F07F41014306D10099240244EA40
:1013600015642D020839009104F07041014306D143
:101370000099240144EA15742D01091F009104F01D
:101380004041014306D10099A40044EA9574AD00A0
:10139000891E009104F00041084304D100986D19A2
:1013A0006441401E00904FF001033A466846B8F190
:1013B000000FCDE9014503A902DD0EF064FC01E058
:1013C0000EF037FCBAF1000F04460D4601D084F050
:1013D0000044002108464FF00000099940F2FF77D1
:1013E000484010F00C0F07D124F00040284303D0F0
:1013F000C4F30A50B84212D1FFF7FEFCC0F80090C7
:10140000C4F30A50B8420AD1A8487844D0E9001081
:10141000C6E9001004F000410843706042E7C6E9E5
:1014200000543FE72DE9FF4F1F464FF0000A4FF0F1
:10143000FF38454691B0D7E90146CDF83CA000F011
:10144000CFF9C0680168405C1090B96912986D1CB2
:101450008847396A814688470028F6D1B9F1FF3FAD
:101460000AD0002E24F4D06411DDB9F12B0F08D07E
:10147000B9F12D0F0BD102E0404615B013E744F44B
:101480008064B96912986D1C8847761E8146600594
:1014900004A901D52D2000E02B20002E01F1010B25
:1014A0000DF130088DF810003FDDB9F1690F08D05B
:1014B000B9F1490F05D0B9F16E0F02D0B9F14E0F55
:1014C0001CD13B4601A8009580E85002DDE91212CC
:1014D0006FF0020011F0ECFBC11CCED10EE0B96937
:1014E00012986D1C884781461398761E44F4007448
:1014F00005600F98401C002E0F9016DDB9F1300FDB
:10150000EDD0B9F1780F02D0B9F1580F0DD10F9885
:1015100001280AD13B46CDE90054DDE91212001F33
:10152000029611F0C3FBC11CA7D1109989453ED189
:1015300044F0800406E01399681CAAF1010A44F4FF
:1015400000740860B9696D1C1298761E88473028AF
:101550008146F0D02BE01099894505D1200603D4AF
:10156000761E44F0800418E0484610F0FCFA08B3F8
:10157000761E0DF123029345A9F1300044F4007466
:1015800006D20BF8010B200607D5AAF1010003E0F3
:10159000200602D40AF101008246A00502D5139963
:1015A000681C0860B96912986D1C88478146002E36
:1015B000D1DC53E0002E51DDB9F1650F02D0B9F155
:1015C000450F4BD1A00549D5B9696D1C1298761EFF
:1015D00024F440748847002E81460CDD2B2804D06B
:1015E000B9F12D0F07D144F48074B96912986D1CBC
:1015F0008847761E8146E00501D52D2100E02B218C
:1016000008F8011BCDF8008021E0761E0DF13901AC
:10161000884544F400740CD2A9F1300010F0FF00AA
:1016200088F8000002D10099884509D908F101081D
:1016300006E0E00501D51E4801E042F20F70824647
:10164000B96912986D1C8847814613980560002E71
:1016500004DD484610F087FA0028D6D1F9691298BF
:101660008847FF2053468BF8000088F800000020D0
:101670000A900B9004AA0CA90AA8FFF7ADFDA005DB
:1016800002D46FF00100F8E614F0240F12D0E00746
:101690001CD13868DDE90A12031D3B600068C0E90F
:1016A000001213E0481D01003A1D0100FE1B01005D
:1016B000F1D8FFFF0AA9684610F042FAE00705D109
:1016C0003868009A011D3960006802602846D4E637
:1016D00010B508E030F8024B9C4204D10AB100205A
:1016E00010BD012010BD491EF4D2104610BDF8B542
:1016F00016460C46054600F06BF8036893F80101A6
:10170000012804D0185D78B101202C80F8BDD3F8F1
:1017100003013246214603F20313C718684600232B
:10172000B84700992980F8BD4FF0FF30F8BD2DE98A
:10173000F04116460C46054600F04AF8036893F857
:101740000101012807D0FF2C12D8185D80B10120BB
:101750002C70BDE8F081D3F807013246214603F230
:101760000713C7182846BC46BDE8F0410023604770
:101770004FF0FF30EDE710B500F0CAF8BDE81040BB
:1017800000F0C1B870477546FFF732FBAE46050062
:101790006946534620F00700854618B020B5FEF78D
:1017A0008BFDBDE820404FF000064FF000074FF0E2
:1017B00000084FF0000BAC46ACE8C009ACE8C0092B
:1017C000ACE8C009ACE8C00921F007018D467047BC
:1017D00010B500F005F8001D10BD00BFDD040100CC
:1017E00000487047D8010020B2F120030AD5C2F1A9
:1017F000200301FA02F120FA03F341EA030100FA9F
:1018000002F0704700FA03F14FF00000704700004B
:101810002DE9F047814616468AB0354878440DC810
:101820008DE80D0032487844801C03AC0DC884E874
:101830000D0041F69B300844372190FBF1F290FBFC
:10184000F1F5A5F1800501FB12041B3C02D56442B1
:10185000012000E00020DFF898A080460027FA442D
:10186000AAF1BE0A0EE0E0070AD03246684607EB4E
:10187000470101230AEB81010EF0F0F98DE8070022
:1018800064107F1C002CEED1194F7F44AE3F19E04D
:10189000E80715D007EB04100DF1180A90E80E00C8
:1018A0008AE80E00C068F04201D1981908903246CB
:1018B000012306A903A80EF0D1F903AB83E80700C2
:1018C0006D10641C002DE3D14FF0010332466946D0
:1018D000B8F1000F03A802D00EF096F901E00EF067
:1018E000BDF9C9E90001C9F808200AB0BDE8F087D0
:1018F0004C17010010B50446AFF300802046BDE848
:101900001040FEF7C4BC002801D000F029B8704791
:1019100010B5012805D0002103A000F051FA0120E4
:1019200010BD09A1F8E7000053494752544D454DF9
:101930003A204F7574206F662068656170206D6570
:101940006D6F7279000000003A2048656170206D6B
:10195000656D6F727920636F727275707465640063
:1019600001491820ABBEFEE7260002002DE9FF4F1B
:101970001F464FF03C0987B04FF00042DDE91410DC
:1019800001F10108DDF858A002EA40500390002060
:1019900005908346054604460490B969461E08989A
:1019A0008847AAF1010A0290BAF1000F3BDD0298C4
:1019B0002E2815D01021FFF746FA00282EDB4FF015
:1019C000010B0599014317D0B9F1000F0BDB4A4613
:1019D000C117FFF709FF05430C43A9F1040905E00E
:1019E000012004900BE008B145F0010501200590AD
:1019F000049820B9361D02E0049800B1361FB96979
:101A0000089808F101088847BBF1000FAAF1010A04
:101A10000290C9D00999C1F80080C5E702987028E2
:101A200008D0502806D0F96908988847BBF1000F04
:101A300014D04FE0002002900120BBF1000F049071
:101A400009D0B969089808F101088847AAF1010985
:101A5000B9F1000F07DCF969089888476FF00100B9
:101A60000BB0BDE8F08F2B2804D02D280CD14FF0FF
:101A7000FF300490B969089808F101088847A9F176
:101A80000109B9F1000FE6DD411CE4D00A21FFF79E
:101A9000DAF90028DFDB029908F1010801EB810186
:101AA00000EB41000290B969089888470A21FFF7C6
:101AB000CAF9099AA9F10109B9F1000FC2F8008029
:101AC00001DD0028E7DAF969089888470499029847
:101AD00000FB016655EA040004D004F0404109000F
:101AE00002D006E0039898E0A40044EA9574AD00A3
:101AF000B61E04F00041080002D16D196441761E43
:101B0000159810F0240F03D04FF00B095C4803E048
:101B10004FF028096FF07D008246564507DAAAEBA0
:101B200006018944B9F1410F01DD4FF0410901205F
:101B30000021A9F10102FFF757FE024628400B469B
:101B40002140084301D0012100E00021501E0291F4
:101B500043F1FF3128402140084301D0012000E03B
:101B600000200299834651EA0B014FD0002108461C
:101B70004FF00000039900F4400039B100EB800001
:101B80004FF4400100EBD07001EA6000801501289D
:101B900002DD4FF0FF3000E013D0401C36D0029839
:101BA00060B3BBF1000F0CD14A4601200021FFF7C2
:101BB0001BFE28402140084301D0012000E0002006
:101BC000E0B101204A460021FFF70EFE034640190E
:101BD0000A4661412D1A8C4111D3B9F1400F09DD3C
:101BE000159810F0240F02D0AAF1340603E0AAF1F0
:101BF000170600E0761C00254FF0004406E05B1E4F
:101C000042F1FF3220EA030521EA0204CAF1010091
:101C1000B04206DA1B490398084301900020009067
:101C20000EE0039AC4F3D321E80A0A43164940EAB6
:101C300044500A433146CDE9000268460FF089FF5F
:101C4000159810F0240F0BD01598C00715D13868DF
:101C5000DDE90012031D3B600068C0E900120CE0E2
:101C600002A869460FF06CFF1598C00705D13868C7
:101C7000029A011D3960006802604046F0E60000EB
:101C800002FCFFFF0000F07F0000F03F2DE9FF4F56
:101C900092461D4685B04FF00041DDE9124BDDE96B
:101CA00014727F1E01EA4B50414940F0FF4940EA5F
:101CB0000108002122F020004928049102D04E287A
:101CC00028D04CE03BA0012607C88DE80700A96991
:101CD0000698641C88477F1E014606D41DF806003E
:101CE00018B121F0200181420BD0E969069888479C
:101CF000032E34D0082E32D06FF0010009B0BDE8B9
:101D0000F08F761C032E01D0082EE0D1601CCAF89B
:101D10000000DCE7A9690698641C88477F1E2AD466
:101D200020F02000412826D1A9690698641C884724
:101D30007F1E20D420F020004E281CD1A9690698CF
:101D4000641C88477F1E48F4002849F48009CAF8BB
:101D5000004001D4282806D0E969069888475FEA40
:101D6000CB7012D022E0A9690698641C88477F1EB8
:101D700001D4002803DAE96906988847BCE72928D6
:101D8000F1D1641CCAF80040E9E71BF0240F07D02A
:101D900028680499031D2B600068C0E9001805E05D
:101DA0002868021D2A600068C0F800902046A5E758
:101DB0000000F07F494E46494E495459000000004A
:101DC00070B505460C460A2000E06D1C00F052F884
:101DD00035B128780028F8D102E0641C00F04AF8F8
:101DE00014B120780028F8D1BDE870400A2000F036
:101DF00041B800000000000030B44FF0013C50F842
:101E0000042B51F8043BCCFA52F4D51A20D1FCB97A
:101E100050F8042B51F8043BCCFA52F4D51A17D1E0
:101E2000B4B950F8042B51F8043BCCFA52F4D51A4B
:101E30000ED16CB950F8042B51F8043BCCFA52F493
:101E4000D51A05D1002CDAD030BC4FF00000704715
:101E500029BAB1FA81F111F01801D1F120008440C2
:101E6000F2D1CA40CB4012F0FF0213F0FF0330BCA6
:101E7000D01A704708B569468DF800000320ABBE44
:101E800008BD0000FFE7FEE784B08DF80F00029167
:101E9000ADF806209DF80F000146009123281DD8BB
:101EA0000099DFE801F012131415161B1B1B1B1BF6
:101EB0001B1B1B1B1B1B1B1B1B1B1B1B1B1B1B1B72
:101EC0001B1B1B1B1B1B1718191A08E007E006E059
:101ED00005E004E003E002E001E000E0FFE70020AD
:101EE00004B070470020704780B582B041F28C701A
:101EF000C2F20000009040F64C71C2F200010022D4
:101F0000019208F001FD009840F24C71C2F200010C
:101F100008F0E0FC019802B080BD000080B586B0FA
:101F20000590049142F20400C2F200000078E8B982
:101F3000FFE742F20401C2F200010120087042F6FC
:101F4000A470C0F60100017840F2A420C2F20000A3
:101F50000290FEF7EDFA0298049909688DF80F10C7
:101F600005999DF80F20FEF79EFAFFE7059941F2CB
:101F70008C70C2F20000019008F0ACFC019808F0EF
:101F800063FC002006B080BD83B0029001918DF803
:101F9000032000208DF802009DF9020003B0704775
:101FA00080B586B00490ADF80E1000208DF80D00BD
:101FB00041F28C70C2F20000D0F8BC02029002988C
:101FC000D0F8140220B1FFE701208DF8170013E0CC
:101FD0000499BDF80E2041F28C70C2F2000001900D
:101FE00008F092FC019808F07DFD8DF80D009DF839
:101FF0000D008DF81700FFE79DF8170006B080BDB3
:1020000080B541F65C20C2F2000000F039FA80BDD4
:1020100082B001900198007810384AF6AB21CAF6D8
:10202000AA21A0FB011000090090009942F69C70C3
:10203000C0F60100405C0199C8650098042807D3E8
:10204000FFE701990868042262F30900886506E049
:102050000199086840F2FF3290438865FFE70198D4
:10206000806D02B07047000086B0059000208DF8AA
:1020700013000598806A03900598806910BBFFE7FC
:102080000398029003281BD80299DFE801F0020DA3
:102090000218059890F82F00C00720B1FFE7012033
:1020A0008DF81300FFE70CE00598C06AB0F1C07F1F
:1020B00004D1FFE701208DF81300FFE701E000E005
:1020C000FFE745E005988069B0F5005F25D1FFE79F
:1020D0000398019003281ED80199DFE801F0020659
:1020E000021101208DF8130016E0059890F82F00DA
:1020F000C00720B1FFE701208DF81300FFE70BE0D8
:102100000598C06AB0F1C07F04D1FFE701208DF8C7
:102110001300FFE700E0FFE719E0039800900328B1
:1021200004D3FFE70098032804D00EE001208DF8C7
:1021300013000BE0059890F82F00C00720B1FFE7CF
:1021400001208DF81300FFE700E0FFE7FFE7FFE75E
:102150009DF8130006B070477047000080B501205D
:1021600000F0D4FC80BD000081B0EFF3108072B6A7
:102170000090FFE7FEE7000083B002908DF80710A3
:10218000002000909DF8070018B9FFE7002000909C
:1021900017E09DF80700012804D1FFE74FF4807095
:1021A00000900DE09DF80700022804D1FFE74FF4EE
:1021B0000070009003E04FF440700090FFE7FFE7ED
:1021C000FFE743F61041C4F20201086820F44070B2
:1021D0000860009A086810430860086820F0F8005A
:1021E0000860029A086840EAC20040F002000860F5
:1021F000086840F48030086003B0704743F6004040
:10220000C4F202000068800500281FD5FFE743F6EE
:102210000041C4F20201086820F400700860FFE782
:1022200043F60041C4F20201086840F4006008600F
:10223000086820F400600860FFE743F60041C4F23C
:102240000201086840F400700860FFE743F60040B0
:10225000C4F202000068400500281FD5FFE743F6DE
:102260000041C4F20201086820F480600860FFE7C2
:1022700043F60041C4F20201086840F4805008604F
:10228000086820F480500860FFE743F60041C4F27C
:102290000201086840F480600860FFE770470000B2
:1022A00080B500F05BFB80BD43F60C40C4F2020039
:1022B0000068C00600280FD5FFE741F6E471C2F2BE
:1022C0000001C86940F01000C86143F60C41C4F237
:1022D000020110200860FFE743F60C40C4F2020040
:1022E0000068800600280FD5FFE741F6E471C2F2CE
:1022F0000001C86940F00800C86143F60C41C4F20F
:10230000020120200860FFE743F60C40C4F20200FF
:102310000068400600280FD5FFE741F6E471C2F2DD
:102320000001C86940F00400C86143F60C41C4F2E2
:10233000020140200860FFE743F60C40C4F20200AF
:102340000068000600280FD5FFE741F6E471C2F2ED
:102350000001C86940F00200C86143F60C41C4F2B4
:10236000020180200860FFE743F60C40C4F202003F
:102370000068C005002810D5FFE741F6E471C2F2FD
:102380000001C86940F00100C86143F60C41C4F285
:1023900002014FF480700860FFE743F60C40C4F27E
:1023A00002000068800700280FD5FFE741F6E471BE
:1023B000C2F20001C86940F02000C86143F60C4138
:1023C000C4F2020102200860FFE770477047000076
:1023D00080B584B047F61020C1F6FF700068039006
:1023E00047F61420C1F6FF700068029047F61820E7
:1023F000C1F6FF70006801900199039808440390AA
:10240000039888B1FFE7039840F26811C2F2000117
:1024100000910231082206F01FF80099029812314B
:10242000042206F019F8FFE704B080BD82B00090E6
:10243000009890F83500022807D0FFE70099802027
:10244000486501208DF807000EE00099052081F80D
:10245000350000980168086820F001000860FFE777
:1024600000208DF80700FFE79DF8070002B07047D5
:1024700081B00090009890F8350001B070470000DE
:1024800080B586B005900020039040F22800C2F28B
:102490000000006848F2B511C1F64E31A0FB0110F2
:1024A000800A02900598806D019001980068049060
:1024B00004980599C96DC840000700281AD5FFE7A0
:1024C0000598006800684007002812D5FFE70598C6
:1024D0000168086820F0040008600598C16D0820B4
:1024E0008840019988600599486D40F00100486571
:1024F000FFE7FFE704980599C96DC840C007A0B180
:10250000FFE7059800684069000600280CD5FFE742
:102510000598C16D01208840019988600599486D32
:1025200040F002004865FFE7FFE704980599C96D90
:10253000C8404007002814D5FFE7059800680068E8
:10254000800700280CD5FFE70598C16D042088405E
:10255000019988600599486D40F004004865FFE7DF
:10256000FFE704980599C96DC840C006002847D503
:10257000FFE7059800680068000700283FD5FFE7DF
:102580000598C16D10208840019988600598006801
:102590000068400300281AD5FFE705980068006826
:1025A0000003002809D4FFE70598006C20B1FFE77D
:1025B0000598016C8847FFE708E00598806C20B11A
:1025C000FFE70598816C8847FFE7FFE716E005986D
:1025D00000680068C005002807D4FFE70598016877
:1025E000086820F008000860FFE70598006C20B13B
:1025F000FFE70598016C8847FFE7FFE7FFE7FFE784
:1026000004980599C96DC8408006002840F18D8066
:10261000FFE7059800680068C006002840F1848044
:10262000FFE70598C16D20208840019988600598D2
:1026300090F83500052834D1FFE70598016808684F
:1026400020F01600086005980168486920F08000B5
:1026500048610598006C20B9FFE70598806C38B197
:10266000FFE705980168086820F008000860FFE7A8
:102670000598C16D3F208840019988600599012027
:1026800081F83500FFE70599002081F83400FFE765
:102690000598006D20B1FFE70598016D8847FFE7B9
:1026A0007BE0059800680068400300281AD5FFE722
:1026B0000598006800680003002809D4FFE7059822
:1026C000406C20B1FFE70598416C8847FFE708E0C0
:1026D0000598C06B20B1FFE70598C16B8847FFE7FD
:1026E000FFE720E0059800680068C005002811D4C5
:1026F000FFE705980168086820F010000860059958
:10270000012081F83500FFE70599002081F83400A9
:10271000FFE7FFE70598C06B20B1FFE70598C16BA5
:102720008847FFE7FFE7FFE7FFE70598406DA0B3A5
:10273000FFE70598406DC00730B3FFE70599052016
:1027400081F8350005980168086820F001000860EC
:10275000FFE70398013003900299884201D9FFE70F
:1027600007E0FFE7059800680068C0070028F0D17F
:10277000FFE70599012081F83500FFE70599002062
:1027800081F83400FFE7FFE70598C06C20B1FFE750
:102790000598C16C8847FFE7FFE706B080BD0000E1
:1027A00080B586B004900020039000F0C1FB029039
:1027B000049820B9FFE701208DF81700A3E00498E2
:1027C000406A08B1FFE7FFE70499022081F835006D
:1027D000FFE70499002081F83400FFE704980168BE
:1027E000086820F001000860FFE7049800680068AE
:1027F000C00790B1FFE700F09BFB0299401A062842
:102800000AD3FFE70499202048650499032081F842
:1028100035008DF8170076E0E7E704980068006857
:102820000390039848F23F01CFF210010840039053
:10283000049900914868D1F808C0CB680A6940EA59
:102840000C00184310434A6910438A691043CA694F
:102850001043096A01430398084303900498406AAF
:10286000042808D1FFE70499C86A096B014303985B
:1028700008430390FFE703980499096808600498E7
:10288000006840690390039820F0070003900498C3
:10289000416A0398084303900498406A04281AD1B7
:1028A000FFE70498816A0398084303900498C06A7C
:1028B00080B1FFE70498FFF7D7FB50B1FFE7049919
:1028C000402048650499012081F835008DF81700F3
:1028D00019E0FFE7FFE70398049909684861049845
:1028E000FFF796FB01900498C16D3F208840019945
:1028F0008860049900204865049A012182F8351007
:102900008DF81700FFE79DF8170006B080BD0000A6
:1029100080B584B0039000F00BFB02900398019007
:102920000198013048B1FFE740F2AC10C2F200005C
:102930000178019808440190FFE7FFE700F0F8FAFA
:102940000299401A0199884201D2FFE7F6E704B0E4
:1029500080BD000081B0009001B0704780B582B0AA
:102960000020019043F60C40C4F20200006810F40D
:10297000F97F35D0FFE741F6E470C2F2000000783D
:1029800001280AD1FFE741F6E471C2F20001C868EC
:1029900001904FF0FF30C86016E041F6E470C2F2DB
:1029A00000000078022807D1FFE741F6E470C2F288
:1029B00000000069019006E041F6E470C2F20000F8
:1029C00040690190FFE7FFE7FFF76EFC019800F018
:1029D00093F841F6E471C2F2000100200870FFE7AD
:1029E00043F60C40C4F202000068C007002860D023
:1029F000FFE743F60C41C4F202010120086041F6F2
:102A0000E470C2F200000078012830D1FFE741F6FF
:102A1000E470C2F200004168013941604068A8B129
:102A2000FFE741F6E470C2F200000090C068019038
:102A30000198FFF78FFF0099C8680130C860C86827
:102A400001900198097AFFF797FB0FE04FF0FF30F4
:102A5000019041F6E471C2F20001C86000200870E4
:102A6000FFF7CCFB0198FFF775FFFFE720E041F689
:102A7000E470C2F20000007802280AD1FFE7FFF7F5
:102A8000BDFB41F6E470C2F200000069FFF762FF8F
:102A900007E041F6E470C2F200004069FFF75AFF18
:102AA000FFE741F6E471C2F2000100200870FFE781
:102AB000FFE741F6E470C2F200000078C8B9FFE712
:102AC00043F61041C4F20201086820F0FF000860DC
:102AD000086820F080700860086820F000700860C6
:102AE000FFE741F6E471C2F2000100200876FFE73B
:102AF000FFE702B080BD000081B0009001B07047D8
:102B000081B0ADF8020001B07047000080B582B01E
:102B1000ADF8060043F61440C4F201000068BDF8A9
:102B2000061008420CD0FFE7BDF8060043F614413A
:102B3000C4F201010860BDF80600FFF7E1FFFFE7FE
:102B400002B080BD8BB00A900991002007900690DA
:102B500005900890FFE708980F2800F2A281FFE790
:102B60000899012088400790099800680799084053
:102B7000069006980799884240F08E81FFE70998F1
:102B8000406800F00300012807D0FFE7099840687B
:102B900000F0030002282FD1FFE70A988068059013
:102BA00008984100032000FA01F105988843059038
:102BB0000998C0680899490000FA01F1059808438E
:102BC000059005980A9988600A98406805900899C8
:102BD000012000FA01F105988843059009984068A2
:102BE000C0F30010089900FA01F105980843059018
:102BF00005980A994860FFE70998406800F00300CB
:102C0000032818D0FFE70A98C0680590089841008B
:102C1000032000FA01F1059888430590099880681F
:102C20000899490000FA01F10598084305900598B4
:102C30000A99C860FFE70998406800F0030002287D
:102C400026D1FFE70A9808996FF0030202EA5101C2
:102C50000844006A0590089800F0070081000F20E2
:102C600000FA01F1059888430590099800690899D0
:102C700001F00701890000FA01F105980843059069
:102C800005980A99089B02EA530211440862FFE77B
:102C90000A980068059008984100032000FA01F1A5
:102CA0000598884305900998406800F0030008994A
:102CB000490000FA01F105980843059005980A9922
:102CC0000860099880798007002800F0E480FFE719
:102CD000FFE70020049043F64400C4F202000168BC
:102CE00041F480410160006800F480400490049841
:102CF000FFE7089820F0030043F60801C4F2010141
:102D000040580590089800F0030081000F2000FA59
:102D100001F10598884305900A980021C4F2020148
:102D2000884203D1FFE70020039034E00A9840F284
:102D30000041C4F20201884203D1FFE70120029062
:102D400026E00A9840F60001C4F20201884203D14D
:102D5000FFE70220019018E00A9840F60041C4F213
:102D60000201884203D1FFE7032000900AE00A999C
:102D700041F20002C4F202020720914208BF04207F
:102D80000090FFE700980190FFE701980290FFE7AD
:102D900002980390FFE70398C0B2089901F003017D
:102DA000890000FA01F105980843059005980899F3
:102DB00021F0030143F60802C4F20102885043F6F1
:102DC0000040C4F201000068059006990598884308
:102DD000059009988079C00728B1FFE70699059802
:102DE00008430590FFE7059843F60041C4F201014E
:102DF000086043F60440C4F201000068059006999B
:102E0000059888430590099880798007002805D5A2
:102E1000FFE70699059808430590FFE7059843F6F4
:102E20000441C4F20101086043F60840C4F2010005
:102E3000006805900699059888430590099880795F
:102E4000C006002805D5FFE70699059808430590B8
:102E5000FFE7059843F60841C4F20101086043F614
:102E60000C40C4F20100006805900699059888435B
:102E70000590099880798006002805D5FFE7069916
:102E8000059808430590FFE7059843F60C41C4F206
:102E900001010860FFE7FFE7FFE7089801300890AD
:102EA00059E60BB07047000082B00190ADF80210F7
:102EB00001980069BDF80210084204D0FFE7012024
:102EC0008DF8010003E000208DF80100FFE79DF878
:102ED000010002B07047000083B00290ADF8061008
:102EE000029840690090009ABDF8060002EA0001CD
:102EF000904340EA01400299886103B070470000A6
:102F000082B00190ADF802108DF801209DF801000B
:102F100028B1FFE7BDF802000199886105E0BDF81E
:102F20000200000401998861FFE702B070470000C9
:102F300042F22800C2F200000068704781B00090A1
:102F400001B0704782B001908DF80310ADF80020F9
:102F500002B0704780B58AB009900998006840694E
:102F60000490099800684068039000200290099836
:102F700090F83E008DF807009DF81100C00778B169
:102F8000FFE79DF80D00C00750B1FFE7029840F041
:102F900001000290099801686FF480704861FFE7B2
:102FA0009DF8110000F002010020B0EB510F0FD08E
:102FB000FFE79DF80D00C00750B1FFE7029840F011
:102FC00002000290099801686FF400704861FFE701
:102FD0009DF8110000F004010020B0EB910F50D0DB
:102FE000FFE79DF80D00C00700284AD0FFE79DF8D5
:102FF00007008DF823000998408D0790099890F8F4
:103000003D008DF81B000998006B05909DF823008A
:1030100020281AD1FFE70798B8B9FFE79DF81B00F1
:1030200021280ED0FFE79DF81B00292809D0FFE7D3
:103030009DF81B00282808D1FFE70598212804D116
:10304000FFE7099804F036FE1AE0099801686FF46A
:1030500080604861029840F0040002909DF80700EB
:10306000102805D0FFE79DF80700402807D1FFE7AB
:1030700009980168086840F400700860FFE7FFE7FE
:10308000FFE79DF8110000F008010020B0EBD10F20
:103090000FD0FFE79DF80D00C00750B1FFE7029881
:1030A00040F008000290099801686FF400604861E0
:1030B000FFE7029848B1FFE7029A0999086C1043AC
:1030C0000864099803F0B6FCFFE70AB080BD000071
:1030D00080B588B007900020059007980068406888
:1030E00004900798C06A0390079890F83E008DF806
:1030F0000B00079890F83D008DF80A009DF80B0032
:10310000102806D0FFE79DF80B00402840F0008112
:10311000FFE7079800688069059007980068406994
:1031200006900698C007A0B9FFE703990120B1F502
:103130002A0F019008D0FFE7039800F1AC40B0FAE5
:1031400080F040090190FFE70198C00708B1FFE750
:10315000A1E10698C00780B1FFE79DF8110000F0DB
:1031600002010020B0EB510F07D0FFE7079803F0F2
:103170009BFB079804F010FAC9E09DF8180000F0D6
:1031800008010020B0EBD10F0DD0FFE79DF8110032
:1031900000F002010020B0EB510F04D0FFE70798C8
:1031A00004F036F8B2E09DF8180000F002010020AB
:1031B000B0EB510F0DD0FFE79DF8110000F00201B8
:1031C0000020B0EB510F04D0FFE7079804F044F85B
:1031D0009BE09DF8140000F004010020B0EB910F7B
:1031E00050D0FFE707980068406800F40060B0F531
:1031F000006F46D0FFE79DF818100020B0EBD11FFC
:1032000016D0FFE79DF8110000F004010020B0EB9C
:10321000910F0DD0FFE79DF8180000F00401002089
:10322000B0EB910F04D1FFE7079803F051FF27E0BF
:103230009DF8180000F004010020B0EB910F1DD0A4
:10324000FFE79DF8110000F002010020B0EB510FE4
:1032500014D0FFE79DF80A00212804D1FFE7079862
:1032600003F0C6FE09E09DF80B00402804D1FFE7FB
:10327000079804F009FAFFE7FFE700E0FFE7FFE740
:10328000FFE741E007980068406800F40060B0F58F
:10329000006F38D0FFE79DF8180000F040010020D3
:1032A000B0EB911F16D0FFE79DF8110000F004016C
:1032B0000020B0EB910F0DD0FFE79DF8180000F053
:1032C00004010020B0EB910F04D1FFE7079803F051
:1032D000F1FD17E09DF8180000F004010020B0EBAC
:1032E000910F0DD0FFE79DF8110000F002010020C2
:1032F000B0EB510F04D0FFE7079803F00BFD00E09F
:10330000FFE7FFE7FFE7FFE7FFE7FFE7FFE7C2E0D1
:103310000798006C28B1FFE707980068406906909D
:1033200008E0079800688069059007980068406980
:103330000690FFE79DF8180000F002010020B0EBB6
:10334000510F17D0FFE79DF8110000F00201002097
:10335000B0EB510F0ED0FFE70798006C28B1FFE7E4
:103360000798006880690590FFE70798059904F0C1
:1033700049FC8FE09DF8180000F010010020B0EB30
:10338000111F0DD0FFE79DF8110000F00201002091
:10339000B0EB510F04D0FFE7079804F0FBFC78E096
:1033A0009DF80A00212805D0FFE79DF80A0029288A
:1033B00036D1FFE79DF818100020B0EBD11F16D0D2
:1033C000FFE79DF8110000F004010020B0EB910F21
:1033D0000DD0FFE79DF8180000F004010020B0EBCD
:1033E000910F04D1FFE7079804F0D6FB17E09DF892
:1033F000180000F004010020B0EB910F0DD0FFE7A2
:103400009DF8110000F002010020B0EB510F04D034
:10341000FFE7079804F0AAFB00E0FFE7FFE737E0CB
:103420009DF8180000F040010020B0EB911F16D06D
:10343000FFE79DF8110000F004010020B0EB910FB0
:103440000DD0FFE79DF8180000F004010020B0EB5C
:10345000910F04D1FFE7079804F050FB17E09DF8A7
:10346000180000F004010020B0EB910F0DD0FFE731
:103470009DF8110000F002010020B0EB510F04D0C4
:10348000FFE7079804F022FB00E0FFE7FFE7FFE714
:10349000FFE7FFE7FFE708B080BD000081B00090C4
:1034A00001B0704780B58EB00C900C9820B9FFE742
:1034B00001208DF8370043E10C9890F83D0040B9A9
:1034C000FFE70C99002081F83C000C9800F03EFDCD
:1034D000FFE70C99242081F83D000C9801680868EA
:1034E00020F0010008600C980168086840F4004072
:1034F00008600C980168086820F40040086002F039
:103500004DF80A900C98406848F2A061C0F20101A1
:1035100088420BD8FFE70A9948F28042C0F21E02A7
:103520000020914238BF012009900AE00A9940F634
:103530000012C0F23D020020914238BF01200990E4
:10354000FFE70998012804D1FFE701208DF8370033
:10355000F6E00A984DF68361C4F21B31A0FB01101E
:10356000800C0B900C980068406820F03F000B998D
:1035700008430C99096848600C980068006A20F0BC
:103580003F0008900C98406848F2A061C0F2010129
:10359000884204D8FFE70B98013007900EE00B98A3
:1035A0004FF49671484344F6D351C1F26201A0FB37
:1035B0000101012000EB91100790FFE7089807999F
:1035C00008430C99096808620C980068C0694CF6B9
:1035D000FF71884306900C98406848F2A061C0F2E1
:1035E000010188421FD8FFE70A9801380C99496801
:1035F0004900B0FBF1F001306FF31F30032803D80E
:10360000FFE7042005900BE00A9801380C994968FF
:103610004900B0FBF1F001306FF31F300590FFE778
:10362000059804904CE00C98806868B9FFE70A9808
:1036300001380C99496801EB4101B0FBF1F0013010
:103640006FF31F3003900DE00A9801380C99496818
:1036500019225143B0FBF1F00130042161F31F3016
:103660000390FFE70398000518B9FFE701200290D7
:1036700023E00C98806868B9FFE70A9801380C9934
:10368000496801EB4101B0FBF1F001306FF31F30ED
:1036900001900DE00A9801380C99496819225143AC
:1036A000B0FBF1F00130042161F31F300190FFE71E
:1036B000019840F400400290FFE702980490FFE771
:1036C0000698049908430C990968C8610C98006829
:1036D000006820F0C0000C9B1968DA691B6A1A4365
:1036E000104308600C980068806848F2FF318843F6
:1036F0000C9A1168D36812691A43104388600C98B9
:103700000068C06820F0FF000C9B19685A699B692B
:103710001A431043C8600C980168086840F0010023
:1037200008600C99002008640C9A202182F83D1052
:103730000C9908630C9981F83E008DF83700FFE77B
:103740009DF837000EB080BD81B0009001B0704789
:1037500081B0009001B0704781B0009001B0704717
:1037600081B0009001B0704781B0009001B0704707
:1037700010B58CB0844610980F98DDF838E0CDF87D
:1037800028C0ADF82610ADF82420ADF82230ADF8F1
:103790002000FFF7CDFB07900A9890F83D00202805
:1037A00040F0F481FFE70A9807996A461160022108
:1037B000C0F210010122192304F05EFC20B1FFE7E2
:1037C00002208DF82F00E5E1FFE70A9890F83C0011
:1037D000012804D1FFE702208DF82F00DAE10A99D1
:1037E000012081F83C00FFE7FFE70A9800680068C5
:1037F000C00738B9FFE70A980168086840F001007F
:103800000860FFE70A980168086820F40060086013
:103810000A99222081F83D000A99402081F83E0053
:103820000A99002008640E980A994862BDF82000A1
:103830000A9948850A98408D0A9908850A990020B6
:10384000CFF6FF70C8620A98BDF82610BDF8242094
:10385000BDF82230DDF840C0079CEE46CEF80440AB
:10386000CEF800C003F0A2FF20B1FFE701208DF8E1
:103870002F008FE10A98008DA0B9FFE7FFE7002035
:1038800006900A980068406906900A980068806966
:1038900006900698FFE70A980168086840F40070EF
:1038A00008604DE00A98008D01281AD1FFE70A98B8
:1038B0000168086820F480600860FFE70020059038
:1038C0000A980068406905900A9800688069059028
:1038D0000598FFE70A980168086840F400700860DE
:1038E0002DE00A98008D02281AD1FFE70A98016896
:1038F000086820F4806008600A980168086840F44D
:1039000000600860FFE7002004900A9800684069A2
:1039100004900A980068806904900498FFE70DE01D
:10392000FFE7002003900A980068406903900A9816
:103930000068806903900398FFE7FFE7FFE7FFE770
:10394000FFE70A98008D002800F00E81FFE70A9833
:10395000008D032800F2CC80FFE70A98008D012833
:103960001ED1FFE70A981099079A04F06DFC20B168
:10397000FFE701208DF82F000CE10A98006800692C
:103980000A99496A08700A99486A013048620A9996
:10399000088D013808850A99488D01384885A6E0C8
:1039A0000A98008D02283CD1FFE70A98109B0799DE
:1039B0006A4611600421C0F20101002204F05CFBA0
:1039C00020B1FFE701208DF82F00E3E00A9801689D
:1039D000086840F4007008600A98006800690A9955
:1039E000496A08700A99486A013048620A99088D44
:1039F000013808850A99488D013848850A98006879
:103A000000690A99496A08700A99486A013048624F
:103A10000A99088D013808850A99488D013848852A
:103A200064E00A98109B07996A4611600421C0F26D
:103A30000101002204F020FB20B1FFE701208DF8F6
:103A40002F00A7E00A980168086820F480600860E9
:103A50000A98006800690A99496A08700A99486AD0
:103A6000013048620A99088D013808850A99488D05
:103A7000013848850A98109B07996A46116004210D
:103A8000C0F20101002204F0F7FA20B1FFE70120A3
:103A90008DF82F007EE00A980168086840F40070F5
:103AA00008600A98006800690A99496A08700A99CA
:103AB000486A013048620A99088D013808850A99D8
:103AC000488D013848850A98006800690A99496A52
:103AD00008700A99486A013048620A99088D0138CD
:103AE00008850A99488D01384885FFE7FFE73AE0E5
:103AF0000A981099079A04F0A7FB20B1FFE701206C
:103B00008DF82F0046E00A98006800690A99496A12
:103B100008700A99486A013048620A99088D01388C
:103B200008850A99488D013848850A9800684069D7
:103B300000F004010120B0EB910F13D1FFE70A98C8
:103B4000006800690A99496A08700A99486A013050
:103B500048620A99088D013808850A99488D01380C
:103B60004885FFE7FFE7ECE60A99202081F83D0051
:103B70000A99002081F83E00FFE70A99002081F8A9
:103B80003C00FFE700208DF82F0003E002208DF8B5
:103B90002F00FFE79DF82F000CB010BD80B585B059
:103BA00084460898DDF81CE0CDF80CC0ADF80A108A
:103BB000ADF80820ADF80630ADF804000020009004
:103BC000039890F83D00202840F0B080FFE740F2D5
:103BD0002800C2F20000006848F21F51C5F2EB1144
:103BE000A0FB0110C00844F6D351C1F26201A0FB52
:103BF00001108009192148430090FFE7009801381F
:103C000000900098C8B9FFE7039900200863039A61
:103C1000202182F83D10039981F83E000399086C39
:103C200040F020000864FFE70399002081F83C0081
:103C3000FFE701208DF813007CE0FFE703980068A0
:103C4000806900F002010020B0EB510FD6D1FFE7F0
:103C5000FFE7039890F83C00012804D1FFE7022019
:103C60008DF8130066E00399012081F83C00FFE71E
:103C7000FFE7039800680068C00738B9FFE70398BA
:103C80000168086840F001000860FFE703980168D8
:103C9000086820F4006008600399222081F83D0044
:103CA0000399402081F83E00039900200864079999
:103CB000039A5162BDF80410039A51850399498D06
:103CC000039A1185039A0021CFF6FF71D162BDF8E6
:103CD0000A10039A5164BDF80810039A9164BDF864
:103CE0000610039AD164039908650398016808686F
:103CF00040F48060086003980168086840F48070B0
:103D00000860FFE70399002081F83C00FFE7039873
:103D1000008D38B1FFE703980168486840F4E0601F
:103D20004860FFE700208DF8130003E002208DF8C3
:103D30001300FFE79DF8130005B080BD10B588B0F3
:103D400084460C980B98DDF828E0CDF818C0ADF843
:103D50001610ADF81420ADF81230ADF81000FFF7D2
:103D6000E7F80390069890F83D00202840F0E680A0
:103D7000FFE7069803996A4611600221C0F210011C
:103D80000122192304F078F920B1FFE702208DF811
:103D90001F00D7E0FFE7069890F83C00012804D107
:103DA000FFE702208DF81F00CCE00699012081F882
:103DB0003C00FFE7FFE7069800680068C00738B9D5
:103DC000FFE706980168086840F001000860FFE717
:103DD00006980168086820F40060086006992120B0
:103DE00081F83D000699402081F83E0006990020A8
:103DF00008640A9806994862BDF81000069948853B
:103E00000698408D0699088506990020CFF6FF7028
:103E1000C8620698BDF81610BDF81420BDF812301F
:103E2000DDF830C0039CEE46CEF80440CEF800C06A
:103E300003F0AEFD20B1FFE701208DF81F0081E007
:103E4000FFE70698008D002849D0FFE706980C99F7
:103E5000039A04F099FA80B1FFE70698006C0428F1
:103E600007D1FFE706980168086840F40070086011
:103E7000FFE701208DF81F0064E006980168406AA2
:103E8000007808610699486A013048620699088DF1
:103E9000013808850699488D0138488506980068DC
:103EA000406900F004010120B0EB910F16D1FFE74B
:103EB0000698008D90B1FFE706980168406A007887
:103EC00008610699486A013048620699088D0138F0
:103ED00008850699488D01384885FFE7B1E70698BF
:103EE0000C99039A04F07CF880B1FFE70698006C07
:103EF000042807D1FFE706980168086840F40070BD
:103F00000860FFE701208DF81F001BE0069801689C
:103F1000086840F4007008600699202081F83D0090
:103F20000699002081F83E00FFE70699002081F8FD
:103F30003C00FFE700208DF81F0003E002208DF811
:103F40001F00FFE79DF81F0008B010BD80B58CB0C2
:103F50000B9000200A9009900890079006900B980B
:103F6000006845F20041C4F20001884273D1FFE7C6
:103F7000FFE70020059043F63000C4F2020001681C
:103F800041F002010160006800F002000590059810
:103F9000FFE74FF440700690122007900120089030
:103FA0000320099004200A9040F20040C4F202006D
:103FB00006A9FEF7C7FDFFE70020049043F6400086
:103FC000C4F20200016841F400110160006800F4CD
:103FD000001004900498FFE741F65C20C2F2000054
:103FE000039046F21001C4F2020101604FF000712B
:103FF000416000218160C1604FF4806202614161D3
:104000008161C1614FF4403202624162FEF7C8FB38
:1040100018B1FFE7FEF7A8F8FFE7FFE70B9841F6B6
:104020005C21C2F2000181630B988863FFE71F20C7
:10403000009000220192114600F0BEF8009800F0B6
:10404000B1F8019A20200290114600F0B5F80298CC
:1040500000F0A8F8FFE70CB080BD000081B0009030
:1040600001B0704781B0009001B0704740F2AC10D1
:10407000C2F20000027842F22801C2F20001086890
:10408000104408607047000080B543F60041C4F258
:104090000201086840F400700860086840F480601D
:1040A0000860086840F480700860032000F09EF803
:1040B0000F2000F005F800F03BF8002080BD000064
:1040C00080B582B0009040F22800C2F20000006883
:1040D00040F2AC11C2F200010A784FF47A71B1FBE0
:1040E000F2F1B0FBF1F001F03FFE20B1FFE701205B
:1040F0008DF8070018E000980F280DD8FFE7009909
:104100004FF0FF30002200F057F8009840F2B01155
:10411000C2F20001086003E001208DF8070003E00F
:1041200000208DF80700FFE79DF8070002B080BD72
:1041300080B586B0FFE70020059043F64400C4F246
:104140000200016841F480410160006800F4804091
:1041500005900598FFE7FFE70020049043F6400034
:10416000C4F20200016841F080510160006800F073
:10417000805004900498FFE70420019000220292EE
:10418000114600F019F8019800F00CF8029A51203D
:104190000390114600F010F8039800F003F806B001
:1041A00080BD000080B582B08DF807009DF9070042
:1041B00009F0EAFA02B080BD80B586B08DF817002C
:1041C000049103920020029009F0F6FA02909DF902
:1041D0001700019002980499039A05F083F80146AC
:1041E000019809F0F1FA06B080BD000080B582B0F8
:1041F0000190019809F00AFB02B080BD82B00190E5
:104200008DF8031002B0704782B00190ADF8021033
:10421000BDF80200019909684862002002B07047A9
:1042200084B003908DF80B10ADF808200398006857
:10423000406A00909DF80B0048B9FFE7BDF80810F0
:10424000009840EA014003990968886233E00398C6
:104250000068816A009800EB1140009000208DF802
:104260000700FFE79DF807009DF80B100139884211
:1042700013D2FFE7039800689DF8071000EB810058
:10428000D0F80411009800EB11400090FFE79DF872
:10429000070001308DF80700E4E7BDF8081000982A
:1042A00040EA0140039909689DF80B2001EB820167
:1042B000C1F80001FFE7002004B0704780B582B06C
:1042C00001900198D0F8040407F0AEF902B080BD67
:1042D00080B582B001908DF80310019AD2F80404E1
:1042E0009DF80310C1EBC10302EB8302926C07F04F
:1042F00079F802B080BD000080B582B001908DF8E1
:104300000310019AD2F804049DF80310C1EBC10315
:1043100002EB8302D2F8082207F00AF902B080BD4E
:1043200080B582B001900198D0F8040407F082F9BA
:1043300002B080BD80B584B002908DF807109DF862
:104340000700000600280FD5FFE702989DF8071028
:1043500001F00F01C1EBC10100EB81003C30009086
:104360000099012048700FE002989DF8071001F0B5
:104370000F01C1EBC10100EB810000F5FE70009060
:10438000009900204870FFE79DF8070000F00F003B
:1043900000990870FFE7029890F8BC03012804D147
:1043A000FFE702208DF80F0014E00299012081F848
:1043B000BC03FFE7FFE702980068009908F0FEF8E9
:1043C000FFE70299002081F8BC03FFE700208DF889
:1043D0000F00FFE79DF80F0004B080BD80B584B0EA
:1043E00002908DF807109DF8070000F00F00029969
:1043F0004968884204D9FFE701208DF80F004DE09D
:104400009DF80700000600280FD5FFE702989DF8E9
:10441000071001F00F01C1EBC10100EB81003C303E
:1044200000900099012048700FE002989DF8071055
:1044300001F00F01C1EBC10100EB810000F5FE703E
:104440000090009900204870FFE7009900208870D4
:104450009DF8070000F00F0000990870FFE7029830
:1044600090F8BC03012804D1FFE702208DF80F006B
:1044700014E00299012081F8BC03FFE7FFE70298EE
:104480000068009908F016FCFFE70299002081F807
:10449000BC03FFE700208DF80F00FFE79DF80F0039
:1044A00004B080BD82B001908DF8031001989DF892
:1044B000031001F00F01C1EBC10100EB8100D0F846
:1044C000140202B07047000080B586B004908DF8E9
:1044D0000F10ADF80C208DF80B3000208DF80A007D
:1044E0009DF80F00000600280FD5FFE704989DF8FF
:1044F0000F1001F00F01C1EBC10100EB81003C3056
:1045000001900199012048700FE004989DF80F1068
:1045100001F00F01C1EBC10100EB810000F5FE705D
:104520000190019900204870FFE79DF80F0000F00E
:104530000F0001990870BDF80C00019988609DF882
:104540000B000199C8700198407820B1FFE70199EC
:104550000878C880FFE79DF80B00022804D1FFE728
:10456000019900200871FFE7FFE7049890F8BC0369
:10457000012804D1FFE702208DF8170015E0049907
:10458000012081F8BC03FFE7FFE704980068019968
:1045900007F0D0FEFFE70499002081F8BC03FFE795
:1045A0009DF80A008DF81700FFE79DF8170006B088
:1045B00080BD000080B586B005908DF81310039281
:1045C000029305989DF8131001F00F01C1EBC10192
:1045D00000EB810000F5FE70019003980199C8601E
:1045E00002980199486101990020886101994870F9
:1045F0009DF8130000F00F000199087005980069FC
:10460000012804D1FFE7039801990861FFE79DF8AD
:104610001300000738B9FFE7059A10680199127C6A
:1046200008F000FA06E0059A10680199127C08F07B
:10463000E5FBFFE7002006B080BD000080B584B038
:1046400002908DF807109DF8070000F00F00029906
:104650004968884204D9FFE701208DF80F0058E02F
:104660009DF80700000600280FD5FFE702989DF887
:10467000071001F00F01C1EBC10100EB81003C30DC
:1046800000900099012048700DE002989DF80710F5
:10469000C1EBC10100EB810000F5FE7000900099B4
:1046A00000204870FFE70099012088709DF80700FE
:1046B00000F00F0000990870FFE7029890F8BC0323
:1046C000012804D1FFE702208DF80F0021E00299B4
:1046D000012081F8BC03FFE7FFE70298006800991A
:1046E00008F038FB9DF80700000740B9FFE7029A81
:1046F0001068117C02F5717208F08CFAFFE7FFE791
:104700000299002081F8BC03FFE700208DF80F001C
:10471000FFE79DF80F0004B080BD000080B586B0B3
:1047200005908DF813100392029305989DF81310CD
:1047300001F00F01C1EBC10100EB81003C300190A1
:1047400003980199C8600298019948610199002075
:1047500088610199012048709DF8130000F00F0056
:104760000199087005980069012804D1FFE70398B2
:1047700001990861FFE79DF81300000738B9FFE7CA
:10478000059A10680199127C08F04CF906E0059A28
:1047900010680199127C08F031FBFFE7002006B099
:1047A00080BD000080B58CB00B900B9800680A901B
:1047B0000A9809900B98006808F052FD002840F014
:1047C0001A83FFE70B98006808F0B6FD08B9FFE709
:1047D00011E30B98006808F0AFFD8007002807D5AB
:1047E000FFE70B980168486900F002004861FFE7A5
:1047F0000B98006808F0A0FDC006002862D5FFE70E
:104800000B980168886920F0100088610A98006A96
:1048100002900B98029901F00F01C1EBC10100EB6E
:10482000810000F5FE700890029800F4F01102205B
:10483000B0EB514F23D1FFE7BDF8080047F6F07108
:1048400008421BD0FFE70A980899C968029AC2F388
:104850000A1208F07FFD029847F6F07100EA0103A2
:10486000089AD06800EB1310D060029800EA0102A9
:104870000899886900EB12108861FFE71BE0029835
:1048800000F4F0110620B0EB514F12D1FFE70A9867
:104890000B9901F57171082208F05CFD029847F64A
:1048A000F07100EA01020899886900EB1210886132
:1048B00000E0FFE7FFE70B980168886940F010000F
:1048C0008861FFE70B98006808F036FD00030028B8
:1048D00070D5FFE7002004900B98006808F0DAFC20
:1048E0000690FFE70698002863D0FFE79DF81800C0
:1048F000C007002856D0FFE70B9800689DF81010FD
:1049000008F002FD05909DF81400C00760B1FFE7B4
:104910000998049900EB41110120C1F8080B0B988C
:10492000049904F063FDFFE79DF8140000070028D8
:104930000CD5FFE70998049900EB41110820C1F854
:10494000080B0B98049904F00BFDFFE79DF8140089
:10495000C006002808D5FFE70998049900EB41112B
:104960001020C1F8080BFFE79DF81400800600280E
:1049700008D5FFE70998049900EB41112020C1F800
:10498000080BFFE79DF815008006002809D5FFE712
:104990000998049900EB41114FF40050C1F8080B3D
:1049A000FFE7FFE70498013004900698400806905E
:1049B00098E7FFE70B98006808F0BEFC400300286A
:1049C00040F1AC80FFE70B98006808F051FC0690BE
:1049D00000200490FFE70698002800F09E80FFE783
:1049E0009DF81800C007002800F09080FFE70B98A2
:1049F00000689DF8101008F05FFC05909DF8140009
:104A0000C00700283ED0FFE7049800F00F01012006
:104A100000FA01F10391039B099AD2F834189943E3
:104A2000C2F834180999049A01EB4211C1F8080937
:104A30000B98006901281FD1FFE70B980499C1EB7F
:104A4000C10100EB81014A6C886C104488640498B1
:104A500088B9FFE70B980499C1EBC10100EB810015
:104A6000006D40B9FFE70B99086801F571720121EB
:104A700008F0D0F8FFE7FFE70B989DF81010FFF75C
:104A800027FCFFE79DF814000007002808D5FFE782
:104A90000998049900EB41110820C1F80809FFE7C3
:104AA0009DF81400C006002808D5FFE7099804996E
:104AB00000EB41111020C1F80809FFE79DF8140030
:104AC0004006002808D5FFE70998049900EB41113A
:104AD0004020C1F80809FFE79DF81400800700286E
:104AE00008D5FFE70998049900EB41110220C1F8AD
:104AF0000809FFE79DF814000006002805D5FFE728
:104B00000B98049904F064FDFFE7FFE70498013077
:104B100004900698400806905DE7FFE70B98006850
:104B200008F00AFCC00F00B3FFE70999D1F80408A8
:104B300020F00100C1F804080B9890F8F403012854
:104B400008D1FFE70B98002180F8F4130B98FFF7CA
:104B500055FB03E00B9800F03BFBFFE70B98016867
:104B6000486900F000404861FFE70B98006808F0D2
:104B7000E3FB0005002811D5FFE70998D0F80808E5
:104B8000C00720B1FFE70B9800F0B0FBFFE70B98E0
:104B90000168486900F400604861FFE70B9800680D
:104BA00008F0CAFBC004002840F19080FFE7099993
:104BB000D1F8040820F00100C1F804080B9800683F
:104BC000102108F0FDFA00200790FFE707980B99E5
:104BD000496888423BD2FFE70998079900EB4111E9
:104BE0004FF67F30C1F808090999079A01EB421284
:104BF000D2F8001921F40011C2F800190999079A96
:104C000001EB4212D2F8001941F00061C2F800191C
:104C10000999079A01EB4211C1F8080B0998079905
:104C200000EB4111D1F8000B20F40010C1F8000B8B
:104C30000998079900EB4111D1F8000B40F0006092
:104C4000C1F8000BFFE7079801300790BEE709990C
:104C5000D1F81C0840F00110C1F81C080B98006B3B
:104C600078B1FFE70999D1F8840840F00B00C1F84A
:104C700084080999D1F8440840F00B00C1F84408B1
:104C80000FE00999D1F8140842F22B021043C1F841
:104C900014080999D1F8100840F00B00C1F8100869
:104CA000FFE70999D1F8000820F4FE60C1F8000878
:104CB0000B9A1068117C02F5717207F0ABFF0B982C
:104CC0000168486900F480504861FFE70B9800686C
:104CD00008F032FB800400281FD5FFE70B9800681E
:104CE00007F098FB0B98006808F094FA0B99C860DD
:104CF0000B980068019000F04BFC014601980B9A5C
:104D0000127B08F01FFC0B9800F046FA0B98016824
:104D1000486900F400504861FFE70B98006808F00C
:104D20000BFB000700280AD5FFE70B9800F05AFAA2
:104D30000B980168486900F008004861FFE70B988C
:104D4000006808F0F9FAC00200280ED5FFE700203D
:104D500004900B989DF8101000F050F80B98016823
:104D6000486900F480104861FFE70B98006808F07C
:104D7000E3FA800200280ED5FFE7002004900B988C
:104D80009DF8101000F048F80B980168486900F48D
:104D900000104861FFE70B98006808F0CDFA40006A
:104DA00000280AD5FFE70B98FFF788FA0B980168EF
:104DB000486900F080404861FFE70B98006808F000
:104DC000BBFA4007002815D5FFE70B98006840683C
:104DD00002909DF808004007002804D5FFE70B98D3
:104DE000FFF79EFAFFE7029A0B98016848681043A4
:104DF0004860FFE7FFE70CB080BD000080B582B0DF
:104E000001908DF803100198D0F804049DF8031068
:104E100006F0A2FC02B080BD80B582B001908DF892
:104E200003100198D0F804049DF8031006F0C0FCAC
:104E300002B080BD2DE9F04F97B01590159820B9BC
:104E4000FFE701208DF85B0049E115980068149098
:104E5000159890F8BD0340B9FFE71599002081F837
:104E6000BC03159800F040F9FFE71599032081F87D
:104E7000BD031498C06BC005002804D4FFE7159942
:104E800000200861FFE71598006807F0C1FD15983C
:104E900010900168119141688268C368D0F810C011
:104EA00044698569C669076AD0F82480D0F82890DB
:104EB000D0F82CA0D0F830B0D0F834E0684612908A
:104EC000C0F824E01198DDF848E0CEF820B0CEF824
:104ED0001CA0CEF81890CEF81480CEF81070CEF842
:104EE0000C60CEF80850CEF80440CEF800C007F0B1
:104EF000A7FA40B1FFE71599022081F8BD03012010
:104F00008DF85B00EBE01598006800210F9108F028
:104F10007BFA0F988DF84F00FFE79DF84F00159929
:104F20004968884245D2FFE715989DF84F10C1EBBC
:104F3000C10100EB8101012081F83D009DF84F0087
:104F40001599C0EBC00201EB820181F83C009DF88D
:104F50004F001599C0EBC00201EB8201A1F842009D
:104F600015989DF84F10C1EBC10100EB81010020A5
:104F700081F83F0015999DF84F20C2EBC20201EB6A
:104F80008201486415999DF84F20C2EBC20201EBE3
:104F90008201886415999DF84F20C2EBC20201EB93
:104FA00082010865FFE79DF84F0001308DF84F0042
:104FB000B3E700208DF84F00FFE79DF84F001599EB
:104FC000496888423ED2FFE715989DF84F10C1EB23
:104FD000C10100EB8101002081F8FD019DF84F1017
:104FE000159AC1EBC10302EB830282F8FC111599FB
:104FF0009DF84F20C2EBC20201EB820181F8FF0154
:1050000015999DF84F20C2EBC20201EB8201C1F855
:10501000040215999DF84F20C2EBC20201EB8201F8
:10502000C1F8080215999DF84F20C2EBC20201EBAE
:105030008201C1F81002FFE79DF84F0001308DF8A2
:105040004F00BAE715980C9001680D91416882688D
:10505000C368D0F810C044698569C669076AD0F88A
:105060002480D0F82890D0F82CA0D0F830B0D0F818
:1050700034E068460E90C0F824E00D98DDF838E082
:10508000CEF820B0CEF81CA0CEF81890CEF8148040
:10509000CEF81070CEF80C60CEF80850CEF8044070
:1050A000CEF800C007F052FB40B1FFE7159902208F
:1050B00081F8BD0301208DF85B0010E015990020F8
:1050C0000B9081F838001599012081F8BD031598DF
:1050D000006807F025FB0B988DF85B00FFE79DF853
:1050E0005B0017B0BDE8F08F80B58AB00990002052
:1050F0000890079006900590049009980068B0F118
:10510000A04F47D1FFE7FFE70020039043F63000B0
:10511000C4F20200016841F001010160006800F082
:10512000010003900398FFE74FF4C0500490022061
:10513000059000200690032007900A200890002088
:10514000C4F2020004A9FDF7FDFCFFE743F63401B9
:10515000C4F20201086840F080000860FFE7002008
:10516000029043F64400C4F20200016841F4804119
:105170000160006800F4804002900298FFE7FFE7BA
:105180004320019000221146FFF716F80198FFF71F
:1051900009F8FFE70AB080BD80B582B00190012018
:1051A0008DF803000198C068022803D0FFE7FCF7E0
:1051B000DBFFFFE70198D0F804049DF8031006F028
:1051C000F5FB0198D0F8040406F066FB02B080BD40
:1051D00080B582B001900198D0F8040406F0ACFBD1
:1051E00002B080BD80B582B001900198D0F804046F
:1051F00006F0B4FB02B080BD80B584B002908DF89B
:105200000710FFE7029890F8BC03012804D1FFE7DC
:1052100002208DF80F001AE00299012081F8BC03EA
:10522000FFE7FFE79DF80700029981F83800029830
:1052300000689DF8071008F057F9FFE70299002071
:1052400081F8BC03FFE700208DF80F00FFE79DF811
:105250000F0004B080BD000080B582B001900199BC
:10526000D1F8040401F5717106F0CAFB02B080BDEB
:1052700080B584B00290029800680190FFE7029820
:1052800090F8BC03012804D1FFE702208DF80F003D
:1052900027E00299012081F8BC03FFE7FFE70298AD
:1052A000806A01280BD1FFE702988069012806D0A7
:1052B000FFE70199886B40F480308863FFE702982C
:1052C000006807F04DFF0298006807F013FAFFE747
:1052D0000299002081F8BC03FFE700208DF80F0041
:1052E000FFE79DF80F0004B080BD000080B582B0DC
:1052F00001900198D0F8040406F004FC01980168BC
:10530000D1F8000E40F00100C1F8000E0198006ACB
:1053100048B1FFE74EF61051CEF20001086840F0A8
:1053200006000860FFE702B080BD000080B584B0D1
:1053300002900191029820B9FFE701208DF80F003B
:1053400021E1019843F60041C4F20201096801F02D
:105350000701884212D9FFE7019943F60040C4F2E1
:1053600002000170006800F007000199884204D033
:10537000FFE701208DF80F0005E1FFE702980078B4
:10538000800700282AD5FFE7029800784007002808
:1053900009D5FFE743F60801C4F20201086840F4AA
:1053A000E0500860FFE7029800780007002809D560
:1053B000FFE743F60801C4F20201086840F46040C8
:1053C0000860FFE743F60801C4F20201086820F014
:1053D000F000029A926810430860FFE70298007894
:1053E000C00700286ED0FFE702984068012811D15D
:1053F000FFE743F60000C4F20200006800F4003149
:105400000020B0EB514F04D1FFE701208DF80F00D1
:10541000B9E02CE002984068022805D0FFE7029826
:105420004068032811D1FFE743F60000C4F20200F0
:10543000006800F000710020B0EB516F04D1FFE76D
:1054400001208DF80F009EE010E043F60000C4F24A
:105450000200006800F002010020B0EB510F04D1FF
:10546000FFE701208DF80F008DE0FFE7FFE743F62F
:105470000801C4F20201086820F00300029A526891
:1054800010430860FDF754FD0090FFE743F6080065
:10549000C4F20200006800F00C0002994968B0EB09
:1054A000810F0ED0FFE7FDF743FD0099401A41F24E
:1054B0008931884204D3FFE703208DF80F0062E0B2
:1054C000E4E7FFE7019843F60041C4F202010968EE
:1054D00001F00701884212D2FFE7019943F600402C
:1054E000C4F202000170006800F0070001998842D0
:1054F00004D0FFE701208DF80F0044E0FFE7029899
:105500000078400700280CD5FFE743F60801C4F2F5
:105510000201086820F4E050029AD2681043086043
:10552000FFE702980078000700280DD5FFE743F653
:105530000801C4F20201086820F46040029A12696E
:1055400040EAC2000860FFE700F03AF843F60801BD
:10555000C4F202010968C9B20A0942F68471C0F6B0
:105560000101895CC84040F22801C2F200010860D4
:1055700040F2B010C2F200000068FEF7A1FD00206A
:105580008DF80F00FFE79DF80F0004B080BD00000C
:1055900040F22800C2F200000068704780B5FFF7B3
:1055A000F7FF43F60801C4F202010968C1F3822241
:1055B00042F69471C0F60101895CC84080BD0000CC
:1055C00080B586B00020059004900390029043F6C9
:1055D0000800C4F20200006800F00C0001460191CE
:1055E00040B1FFE7019804280AD0FFE70198082896
:1055F0000CD04FE042F20040C0F2F40002904FE0C5
:1056000047F64000C0F27D10029049E043F60400E6
:10561000C4F20200016801F03F01059100684002F8
:10562000002813D5FFE743F60400C4F20200006827
:10563000C0F3881047F64001C0F27D11A0FB0101C4
:10564000059A0023FAF779FE049012E043F604006D
:10565000C4F202000068C0F3881042F20041C0F2B8
:10566000F401A0FB0101059A0023FAF766FE0490FD
:10567000FFE743F60400C4F20200006800F4403182
:10568000022000EBD130039004980399B0FBF1F0B5
:10569000029005E042F20040C0F2F4000290FFE701
:1056A000029806B080BD000080B586B004900498D2
:1056B00020B9FFE701208DF8170050E30498007827
:1056C000C007002800F0A580FFE743F60800C4F2F9
:1056D0000200006800F00C00042813D0FFE743F636
:1056E0000800C4F20200006800F00C0008281ED177
:1056F000FFE743F60400C4F20200006840020028FD
:1057000015D5FFE743F60000C4F20200006800F47C
:1057100000310020B0EB514F08D0FFE704984068FB
:1057200020B9FFE701208DF8170018E370E0FFE7CC
:1057300004984068B0F5803F09D1FFE743F60001C7
:10574000C4F20201086840F48030086020E0049848
:105750004068B0F5A02F0DD1FFE743F60001C4F279
:105760000201086840F480200860086840F4803036
:1057700008600CE043F60001C4F20201086820F45E
:1057800080300860086820F480200860FFE7FFE7A9
:10579000FFE704984068E8B1FFE7FDF7C9FB039015
:1057A000FFE743F60000C4F20200006800F4003195
:1057B0000020B0EB514F0CD1FFE7FDF7B9FB039987
:1057C000401A652804D3FFE703208DF81700C6E2CE
:1057D000E7E71CE0FDF7ACFB0390FFE743F60000B2
:1057E000C4F20200006800F400310020B0EB514F19
:1057F0000CD0FFE7FDF79CFB0399401A652804D302
:10580000FFE703208DF81700A9E2E7E7FFE7FFE7CE
:10581000FFE7049800788007002840F19680FFE7B2
:1058200043F60800C4F20200006810F00C0F13D019
:10583000FFE743F60800C4F20200006800F00C0025
:1058400008282CD1FFE743F60400C4F202000068E8
:105850004002002823D4FFE743F60000C4F2020010
:10586000006800F002010020B0EB510F09D0FFE703
:105870000498C068012804D0FFE701208DF81700C4
:105880006DE243F60001C4F20201086820F0F8005E
:10589000049A126940EAC2000860FFE754E00498E5
:1058A000C06870B3FFE70021C4F2472101200860FF
:1058B000FDF73EFB0390FFE743F60000C4F2020051
:1058C000006800F002010020B0EB510F0CD1FFE79F
:1058D000FDF72EFB0399401A032804D3FFE70320AA
:1058E0008DF817003BE2E7E743F60001C4F202013E
:1058F000086820F0F800049A126940EAC2000860C3
:1059000021E00021C4F2472100200860FDF710FBD0
:105910000390FFE743F60000C4F20200006800F0C5
:1059200002010020B0EB510F0CD0FFE7FDF700FBA8
:105930000399401A032804D3FFE703208DF81700CA
:105940000DE2E7E7FFE7FFE7FFE7049800780007CD
:1059500000284BD5FFE70498406918B3FFE740F6ED
:105960008061C4F2472101200860FDF7E1FA03904D
:10597000FFE743F67400C4F20200006800F0020181
:105980000020B0EB510F0CD1FFE7FDF7D1FA0399DE
:10599000401A032804D3FFE703208DF81700DEE147
:1059A000E7E722E040F68061C4F24721002008606A
:1059B000FDF7BEFA0390FFE743F67400C4F202005D
:1059C000006800F002010020B0EB510F0CD0FFE79F
:1059D000FDF7AEFA0399401A032804D3FFE703202A
:1059E0008DF81700BBE1E7E7FFE7FFE704980078D1
:1059F0004007002840F1CE80FFE700208DF8070027
:105A000043F64000C4F202000068C000002815D42C
:105A1000FFE7FFE70020009043F64000C4F20200D9
:105A2000016841F080510160006800F080500090F2
:105A30000098FFE701208DF80700FFE747F200001C
:105A4000C4F200000068C005002822D4FFE747F236
:105A50000001C4F20001086840F480700860FDF79E
:105A600067FA0390FFE747F20000C4F20000006805
:105A7000C00500280CD4FFE7FDF75AFA0399401A35
:105A8000032804D3FFE703208DF8170067E1EAE756
:105A9000FFE7FFE704988068012809D1FFE743F694
:105AA0007001C4F20201086840F0010008601FE0C4
:105AB0000498806805280DD1FFE743F67001C4F211
:105AC0000201086840F004000860086840F0010026
:105AD00008600CE043F67001C4F20201086820F08F
