:020000040800F2
:100000007825002081020008E16F00081D4C0008DF
:10001000DD6F0008C50600089DB300080000000061
:10002000000000000000000000000000097A000845
:100030005109000800000000057A0008997A0008BC
:100040009B0200089B0200089B0200089B0200081C
:10005000990A00089B020008550900089B02000845
:100060009B0200089B0200089B020008F907000899
:100070009B0200089B0200089B0200089B020008EC
:100080009B0200089B0200089B0200080000000081
:100090000000000000000000000000009B020008BB
:1000A0009B0200089B0200089B0200089B020008BC
:1000B0009B0200086D7B00089B020008314C000881
:1000C000214C00089B0200089B0200089B020008CC
:1000D0009B0200089B0200089B0200080000000031
:1000E0009B0200089B0200089B0200080000000021
:1000F0000000000000000000000000009B0200085B
:10010000000000009B0200089B0200089B02000800
:1001100000000000000000000000000000000000DF
:100120009B0200089B0200089B0200089B0200083B
:100130009B0200080000000000000000000000001A
:1001400000000000000000000000000051700008E6
:100150009B0200089B0200089B0200089B0200080B
:100160009B0200089B020008000000000000000045
:10017000000000000000000000000000000000007F
:1001800000000000C50B0008000000000000000097
:100190009B0200089B02000800F002F800F060F8E3
:1001A0000AA090E8000C82448344AAF10107DA45D2
:1001B00001D100F055F8AFF2090EBAE80F0013F0C4
:1001C000010F18BFFB1A43F00103184750F8000055
:1001D00070F800000A444FF0000C10F8013B13F0D7
:1001E000070408BF10F8014B1D1108BF10F8015B90
:1001F000641E05D010F8016B641E01F8016BF9D183
:1002000013F0080F1EBF10F8014BAD1C0C1B09D1D9
:100210006D1E58BF01F801CBFAD505E014F8016B4B
:1002200001F8016B6D1EF9D59142D6D370470000DD
:100230000023002400250026103A28BF78C1FBD8EF
:10024000520728BF30C148BF0B6070471FB50FF081
:1002500024FA9DE8030000F021F91FBD10B510BD80
:1002600000F0AEF91146FFF7F1FF0BF0CDF900F009
:10027000CCF903B4FFF7F2FF03BC00F0FDF9000076
:100280000948804709480047FEE7FEE7FEE7FEE72A
:10029000FEE7FEE7FEE7FEE7FEE7FEE70448054966
:1002A000054A064B70470000597B00089901000879
:1002B000781F002078250020782100207821002058
:1002C00070B5064600F0CEF8056806F10B0020F088
:1002D0000704B4429CBF002070BD2B466A68BAB1C7
:1002E0001068A04210D304F1080188423CBF506856
:1002F000586007D35168101941601168091B0160EB
:1003000058601460101D70BD13465268002AE7D172
:100310002146284600F0AEF80028DED170BD53EA31
:10032000020C00F069802DE9F04B4FF00006002B25
:100330001FBFB3FA83F503FA05F424FA05F65E400D
:1003400012BF1643B2FA82F502FA05F4C5F1200590
:100350001EBF22FA05FC44EA0C04203556EA044C80
:100360004FEA144418BF641C4FF000084FF0000916
:10037000904271EB030C39D3002919BFB1FA81F710
:1003800001FA07F6B0FA80F700FA07F6C7F120077E
:100390001EBF20FA07FC46EA0C062037B6FBF4FC29
:1003A000A7EB0507103F07F01F0BCBF120062CFA37
:1003B00006F60CFA0BFB44BFB3460026202FA4BF61
:1003C0005E464FF0000B5BEA060C08BF4FF0010BD6
:1003D00019EB0B0948EB0608ABFB027C06FB02CCD1
:1003E0000BFB03CCC01B71EB0C01C1E70B460246B3
:1003F00041464846BDE8F08B13B5084318BF4FF09F
:10040000FF300146AFF30080BDE81C4070474FF05D
:10041000000200B5134694469646203922BFA0E854
:100420000C50A0E80C50B1F12001BFF4F7AF090760
:1004300028BFA0E80C5048BF0CC05DF804EB890051
:1004400028BF40F8042B08BF704748BF20F8022B94
:1004500011F0804F18BF00F8012B704770477047AC
:100460007047000000487047B00100207047704797
:100470007047704738B504460A4600206946AFF316
:100480000080002808BF38BD02460099204600F0D1
:1004900075F8012038BD012000F08AB8F8B5AFF337
:1004A0000080054600200C46102000BF0646A81913
:1004B000A0420DD9324669460020AFF30080070004
:1004C00008BF00F075F80098A04218BF0546C4198F
:1004D000FFF7C8FF05600746F01D20F0070046192A
:1004E000284600F00AF8B44208BFF8BDA21B314606
:1004F0003868BDE8F84000F041B800210160C0E96B
:10050000011070471020704770B50446051FFFF7B3
:10051000A9FF0068002C14BF446870BD002C18BFF0
:10052000AC423CBF20466468F8D301680A18AA426E
:1005300018BF456003D12A68054611440160286848
:100540004119A1421CBF6C6070BD6168696021687F
:100550000844286070BD10B500F00CF8006810BDAC
:1005600010B5044600F006F8046010BD004870475E
:10057000A801002000487047A801002003464068F9
:100580008C46002818BF88423CBF03464068F8D319
:1005900018681844884207D00CF1030020F00700C7
:1005A000001D411A521A0146081D0A60FFF7ACBF30
:1005B00010B500F039F8BDE8104000F02FB87047D2
:1005C0007546FFF7D3FFAE4605006946534620F057
:1005D0000700854618B020B5FFF760FEBDE8204053
:1005E0004FF000064FF000074FF000084FF0000BEF
:1005F000AC46ACE8C009ACE8C009ACE8C009ACE85E
:10060000C00921F007018D46704710B50446AFF3CD
:1006100000802046BDE81040FFF72BBE002801D027
:1006200000F02AB87047000010B5012805D000215D
:1006300003A000F027F8012010BD09A1F8E7000091
:1006400053494752544D454D3A204F7574206F66BB
:100650002068656170206D656D6F72790000000023
:100660003A2048656170206D656D6F727920636F07
:10067000727275707465640001491820ABBEFEE7A4
:100680002600020070B505460C460A2000E06D1CED
:1006900000F011F835B128780028F8D102E0641C88
:1006A00000F009F814B120780028F8D1BDE87040B6
:1006B0000A20AFF3008008B569468DF800000320DA
:1006C000ABBE08BDFFE7FEE784B08DF80F000291D6
:1006D000ADF806209DF80F000146009123281DD893
:1006E0000099DFE801F012131415161B1B1B1B1BCE
:1006F0001B1B1B1B1B1B1B1B1B1B1B1B1B1B1B1B4A
:100700001B1B1B1B1B1B1718191A08E007E006E030
:1007100005E004E003E002E001E000E0FFE7002084
:1007200004B070470020704780B582B041F2EC60A1
:10073000C2F20000009040F6B061C2F20001002257
:10074000019207F0EDFE009840F2B061C2F20001A4
:1007500007F0CCFE019802B080BD000080B584B0E7
:1007600003900291039941F2EC60C2F20000019003
:1007700007F0BCFE019807F073FE002004B080BDB6
:1007800083B0029001918DF8032000208DF80200C3
:100790009DF9020003B0704780B586B00490ADF8B3
:1007A0000E1000208DF80D0041F2EC60C2F2000046
:1007B000D0F8BC0202900298D0F8140220B1FFE7F2
:1007C00001208DF8170013E00499BDF80E2041F2C6
:1007D000EC60C2F20000019007F0A2FE019807F061
:1007E0008DFF8DF80D009DF80D008DF81700FFE7C7
:1007F0009DF8170006B080BD80B541F6BC10C2F26E
:10080000000000F039FA80BD82B0019001980078B4
:1008100010384AF6AB21CAF6AA21A0FB0110000944
:10082000009000994FF6D010C0F60000405C01998E
:10083000C8650098042807D3FFE7019908680422D7
:1008400062F30900886506E00199086840F2FF320A
:1008500090438865FFE70198806D02B07047000003
:1008600086B0059000208DF813000598806A0390EB
:100870000598806910BBFFE70398029003281BD8F6
:100880000299DFE801F0020D0218059890F82F0098
:10089000C00720B1FFE701208DF81300FFE70CE04F
:1008A0000598C06AB0F1C07F04D1FFE701208DF840
:1008B0001300FFE701E000E0FFE745E005988069ED
:1008C000B0F5005F25D1FFE70398019003281ED8FB
:1008D0000199DFE801F00206021101208DF81300F2
:1008E00016E0059890F82F00C00720B1FFE701201F
:1008F0008DF81300FFE70BE00598C06AB0F1C07FE8
:1009000004D1FFE701208DF81300FFE700E0FFE7C7
:1009100019E003980090032804D3FFE70098032808
:1009200004D00EE001208DF813000BE0059890F83C
:100930002F00C00720B1FFE701208DF81300FFE76B
:1009400000E0FFE7FFE7FFE79DF8130006B0704700
:100950007047000080B5012000F0D4FC80BD00008D
:1009600081B0EFF3108072B60090FFE7FEE7000061
:1009700083B002908DF80710002000909DF80700CA
:1009800018B9FFE70020009017E09DF80700012844
:1009900004D1FFE74FF4807000900DE09DF8070050
:1009A000022804D1FFE74FF40070009003E04FF4F9
:1009B00040700090FFE7FFE7FFE743F61041C4F205
:1009C0000201086820F440700860009A086810432B
:1009D0000860086820F0F8000860029A086840EA99
:1009E000C20040F002000860086840F480300860EF
:1009F00003B0704743F60040C4F20200006880056F
:100A000000281FD5FFE743F60041C4F20201086841
:100A100020F400700860FFE743F60041C4F20201D1
:100A2000086840F400600860086820F4006008600E
:100A3000FFE743F60041C4F20201086840F4007089
:100A40000860FFE743F60040C4F20200006840057A
:100A500000281FD5FFE743F60041C4F202010868F1
:100A600020F480600860FFE743F60041C4F2020111
:100A7000086840F480500860086820F480500860DE
:100A8000FFE743F60041C4F20201086840F48060C9
:100A90000860FFE77047000080B500F05BFB80BD99
:100AA00043F60C40C4F202000068C00600280FD5CF
:100AB000FFE741F62C71C2F20001C86940F0100056
:100AC000C86143F60C41C4F2020110200860FFE740
:100AD00043F60C40C4F202000068800600280FD5DF
:100AE000FFE741F62C71C2F20001C86940F008002E
:100AF000C86143F60C41C4F2020120200860FFE700
:100B000043F60C40C4F202000068400600280FD5EE
:100B1000FFE741F62C71C2F20001C86940F0040001
:100B2000C86143F60C41C4F2020140200860FFE7AF
:100B300043F60C40C4F202000068000600280FD5FE
:100B4000FFE741F62C71C2F20001C86940F00200D3
:100B5000C86143F60C41C4F2020180200860FFE73F
:100B600043F60C40C4F202000068C005002810D50E
:100B7000FFE741F62C71C2F20001C86940F00100A4
:100B8000C86143F60C41C4F202014FF48070086062
:100B9000FFE743F60C40C4F202000068800700281B
:100BA0000FD5FFE741F62C71C2F20001C86940F091
:100BB0002000C86143F60C41C4F202010220086023
:100BC000FFE770477047000080B584B047F61020FB
:100BD000C1F6FF700068039047F61420C1F6FF705D
:100BE0000068029047F61820C1F6FF700068019077
:100BF0000199039808440390039888B1FFE703988C
:100C000040F26411C2F2000100910231082205F0A5
:100C10009BFC009902981231042205F095FCFFE735
:100C200004B080BD82B00090009890F83500022892
:100C300007D0FFE700998020486501208DF8070064
:100C40000EE00099052081F83500009801680868D9
:100C500020F001000860FFE700208DF80700FFE7A3
:100C60009DF8070002B0704781B00090009890F89E
:100C7000350001B07047000080B586B005900020B7
:100C8000039040F22400C2F20000006848F2B5115F
:100C9000C1F64E31A0FB0110800A02900598806DCC
:100CA000019001980068049004980599C96DC840A6
:100CB000000700281AD5FFE705980068006840077C
:100CC000002812D5FFE705980168086820F00400A5
:100CD00008600598C16D08208840019988600599D1
:100CE000486D40F001004865FFE7FFE7049805996B
:100CF000C96DC840C007A0B1FFE70598006840690A
:100D0000000600280CD5FFE70598C16D012088403A
:100D1000019988600599486D40F002004865FFE739
:100D2000FFE704980599C96DC8404007002814D50D
:100D3000FFE7059800680068800700280CD5FFE7EA
:100D40000598C16D04208840019988600599486D17
:100D500040F004004865FFE7FFE704980599C96D76
:100D6000C840C006002847D5FFE70598006800681E
:100D7000000700283FD5FFE70598C16D1020884087
:100D800001998860059800680068400300281AD51A
:100D9000FFE70598006800680003002809D4FFE712
:100DA0000598006C20B1FFE70598016C8847FFE7C4
:100DB00008E00598806C20B1FFE70598816C8847B2
:100DC000FFE7FFE716E0059800680068C005002807
:100DD00007D4FFE705980168086820F0080008605C
:100DE000FFE70598006C20B1FFE70598016C884784
:100DF000FFE7FFE7FFE7FFE704980599C96DC840E3
:100E00008006002840F18D80FFE7059800680068A3
:100E1000C006002840F18480FFE70598C16D2020BE
:100E2000884001998860059890F83500052834D1EC
:100E3000FFE705980168086820F01600086005982B
:100E40000168486920F0800048610598006C20B96D
:100E5000FFE70598806C38B1FFE7059801680868DE
:100E600020F008000860FFE70598C16D3F2088402A
:100E7000019988600599012081F83500FFE70599FF
:100E8000002081F83400FFE70598006D20B1FFE7EE
:100E90000598016D8847FFE77BE0059800680068CA
:100EA000400300281AD5FFE7059800680068000392
:100EB000002809D4FFE70598406C20B1FFE70598AA
:100EC000416C8847FFE708E00598C06B20B1FFE759
:100ED0000598C16B8847FFE7FFE720E005980068A9
:100EE0000068C005002811D4FFE70598016808686C
:100EF00020F0100008600599012081F83500FFE717
:100F00000599002081F83400FFE7FFE70598C06BE2
:100F100020B1FFE70598C16B8847FFE7FFE7FFE7D0
:100F2000FFE70598406DA0B3FFE70598406DC00747
:100F300030B3FFE70599052081F835000598016871
:100F4000086820F001000860FFE703980130039073
:100F50000299884201D9FFE707E0FFE7059800689A
:100F60000068C0070028F0D1FFE70599012081F84B
:100F70003500FFE70599002081F83400FFE7FFE71F
:100F80000598C06C20B1FFE70598C16C8847FFE762
:100F9000FFE706B080BD000080B586B00490002059
:100FA000039000F0A9FB0290049820B9FFE701200C
:100FB0008DF81700A3E00498406A08B1FFE7FFE747
:100FC0000499022081F83500FFE70499002081F898
:100FD0003400FFE704980168086820F00100086009
:100FE000FFE7049800680068C00790B1FFE700F0D1
:100FF00083FB0299401A06280AD3FFE704992020B0
:1010000048650499032081F835008DF8170076E0D3
:10101000E7E70498006800680390039848F23F01EE
:10102000CFF2100108400390049900914868D1F86C
:1010300008C0CB680A6940EA0C00184310434A69AB
:1010400010438A691043CA691043096A014303982F
:10105000084303900498406A042808D1FFE70499E4
:10106000C86A096B0143039808430390FFE703989C
:10107000049909680860049800684069039003981F
:1010800020F0070003900498416A039808430390F6
:101090000498406A04281AD1FFE70498816A0398EB
:1010A000084303900498C06A80B1FFE70498FFF7F3
:1010B000D7FB50B1FFE7049940204865049901200F
:1010C00081F835008DF8170019E0FFE7FFE7039876
:1010D0000499096848610498FFF796FB0190049809
:1010E000C16D3F20884001998860049900204865BF
:1010F000049A012182F835108DF81700FFE79DF85A
:10110000170006B080BD000080B584B0039000F0E9
:10111000F3FA0290039801900198013048B1FFE77B
:1011200040F2A010C2F2000001780198084401903A
:10113000FFE7FFE700F0E0FA0299401A01998842C0
:1011400001D2FFE7F6E704B080BD000081B0009057
:1011500001B0704780B582B00020019043F60C408A
:10116000C4F20200006810F4F97F35D0FFE741F6C1
:101170002C70C2F20000007801280AD1FFE741F686
:101180002C71C2F20001C86801904FF0FF30C860B6
:1011900016E041F62C70C2F200000078022807D158
:1011A000FFE741F62C70C2F200000069019006E0F2
:1011B00041F62C70C2F2000040690190FFE7FFE7A2
:1011C000FFF76EFC019800F093F841F62C71C2F223
:1011D000000100200870FFE743F60C40C4F2020053
:1011E0000068C007002860D0FFE743F60C41C4F256
:1011F00002010120086041F62C70C2F20000007864
:10120000012830D1FFE741F62C70C2F2000041689E
:10121000013941604068A8B1FFE741F62C70C2F285
:1012200000000090C06801900198FFF78FFF0099BF
:10123000C8680130C860C86801900198097AFFF752
:1012400097FB0FE04FF0FF30019041F62C71C2F296
:101250000001C86000200870FFF7CCFB0198FFF781
:1012600075FFFFE720E041F62C70C2F20000007825
:1012700002280AD1FFE7FFF7BDFB41F62C70C2F24E
:1012800000000069FFF762FF07E041F62C70C2F230
:1012900000004069FFF75AFFFFE741F62C71C2F2E8
:1012A000000100200870FFE7FFE741F62C70C2F252
:1012B00000000078C8B9FFE743F61041C4F202010C
:1012C000086820F0FF000860086820F0807008605F
:1012D000086820F000700860FFE741F62C71C2F248
:1012E000000100200876FFE7FFE702B080BD0000A4
:1012F00081B0009001B0704781B0ADF8020001B03C
:101300007047000080B582B0ADF8060043F6144087
:10131000C4F201000068BDF8061008420CD0FFE7D7
:10132000BDF8060043F61441C4F201010860BDF89F
:101330000600FFF7E1FFFFE702B080BD8BB00A9027
:10134000099100200790069005900890FFE7089803
:101350000F2800F2A281FFE708990120884007903A
:1013600009980068079908400690069807998842EE
:1013700040F08E81FFE70998406800F003000128E3
:1013800007D0FFE70998406800F0030002282FD13A
:10139000FFE70A988068059008984100032000FA4A
:1013A00001F10598884305900998C068089949009B
:1013B00000FA01F105980843059005980A9988609C
:1013C0000A98406805900899012000FA01F10598F3
:1013D0008843059009984068C0F30010089900FA06
:1013E00001F105980843059005980A994860FFE7C0
:1013F0000998406800F00300032818D0FFE70A9816
:10140000C068059008984100032000FA01F1059892
:1014100088430590099880680899490000FA01F10D
:1014200005980843059005980A99C860FFE7099850
:10143000406800F00300022826D1FFE70A980899C7
:101440006FF0030202EA51010844006A059008980F
:1014500000F0070081000F2000FA01F10598884391
:10146000059009980069089901F00701890000FAC0
:1014700001F105980843059005980A99089B02EA2E
:10148000530211440862FFE70A9800680590089823
:101490004100032000FA01F105988843059009985E
:1014A000406800F003000899490000FA01F105982E
:1014B0000843059005980A99086009988079800783
:1014C000002800F0E480FFE7FFE70020049043F6E7
:1014D0004400C4F20200016841F4804101600068E8
:1014E00000F4804004900498FFE7089820F003007F
:1014F00043F60801C4F2010140580590089800F035
:10150000030081000F2000FA01F10598884305903F
:101510000A980021C4F20201884203D1FFE70020AB
:10152000039034E00A9840F20041C4F2020188427C
:1015300003D1FFE70120029026E00A9840F600015F
:10154000C4F20201884203D1FFE70220019018E0B3
:101550000A9840F60041C4F20201884203D1FFE735
:10156000032000900AE00A9941F20002C4F202024C
:101570000720914208BF04200090FFE700980190E7
:10158000FFE701980290FFE702980390FFE70398B6
:10159000C0B2089901F00301890000FA01F1059831
:1015A000084305900598089921F0030143F60802C5
:1015B000C4F20102885043F60040C4F20100006802
:1015C0000590069905988843059009988079C00789
:1015D00028B1FFE70699059808430590FFE70598AD
:1015E00043F60041C4F20101086043F60440C4F22E
:1015F00001000068059006990598884305900998B0
:1016000080798007002805D5FFE7069905980843EB
:101610000590FFE7059843F60441C4F20101086014
:1016200043F60840C4F20100006805900699059849
:101630008843059009988079C006002805D5FFE702
:101640000699059808430590FFE7059843F6084179
:10165000C4F20101086043F60C40C4F201000068C6
:101660000590069905988843059009988079800629
:10167000002805D5FFE70699059808430590FFE780
:10168000059843F60C41C4F201010860FFE7FFE74B
:10169000FFE708980130089059E60BB0704700004A
:1016A00083B00290ADF80610029840690090009A4D
:1016B000BDF8060002EA0001904340EA01400299A9
:1016C000886103B07047000082B00190ADF802104D
:1016D0008DF801209DF8010028B1FFE7BDF8020058
:1016E0000199886105E0BDF8020000040199886154
:1016F000FFE702B07047000041F67070C2F20000D0
:101700000068704781B0009001B0704782B00190CE
:101710008DF80310ADF8002002B0704780B58AB094
:101720000990099800684069049009980068406829
:10173000039000200290099890F83E008DF8070071
:101740009DF81100C00778B1FFE79DF80D00C007B4
:1017500050B1FFE7029840F001000290099801683B
:101760006FF480704861FFE79DF8110000F00201FE
:101770000020B0EB510F0FD0FFE79DF80D00C00720
:1017800050B1FFE7029840F002000290099801680A
:101790006FF400704861FFE79DF8110000F004014C
:1017A0000020B0EB910F50D0FFE79DF80D00C0076F
:1017B00000284AD0FFE79DF807008DF8230009981C
:1017C000408D0790099890F83D008DF81B0009980E
:1017D000006B05909DF8230020281AD1FFE7079899
:1017E000B8B9FFE79DF81B0021280ED0FFE79DF850
:1017F0001B00292809D0FFE79DF81B00282808D1E5
:10180000FFE70598212804D1FFE7099804F02EFB93
:101810001AE0099801686FF480604861029840F00E
:10182000040002909DF80700102805D0FFE79DF8FE
:101830000700402807D1FFE709980168086840F4CD
:1018400000700860FFE7FFE7FFE79DF8110000F078
:1018500008010020B0EBD10F0FD0FFE79DF80D007D
:10186000C00750B1FFE7029840F0080002900998C5
:1018700001686FF400604861FFE7029848B1FFE734
:10188000029A0999086C10430864099803F0A0FAB9
:10189000FFE70AB080BD000080B588B00790002047
:1018A000059007980068406804900798C06A039004
:1018B000079890F83E008DF80B00079890F83D00CF
:1018C0008DF80A009DF80B00102806D0FFE79DF860
:1018D0000B00402840F00081FFE70798006880690E
:1018E000059007980068406906900698C007A0B95F
:1018F000FFE703990120B1F52A0F019008D0FFE717
:10190000039800F1AC40B0FA80F040090190FFE785
:101910000198C00708B1FFE7A1E10698C00780B1B0
:10192000FFE79DF8110000F002010020B0EB510F1D
:1019300007D0FFE7079803F085F9079803F0FAFF4F
:10194000C9E09DF8180000F008010020B0EBD10FAD
:101950000DD0FFE79DF8110000F002010020B0EB70
:10196000510F04D0FFE7079803F020FEB2E09DF886
:10197000180000F002010020B0EB510F0DD0FFE77E
:101980009DF8110000F002010020B0EB510F04D0CF
:10199000FFE7079803F02EFE9BE09DF8140000F08F
:1019A00004010020B0EB910F50D0FFE707980068CA
:1019B000406800F40060B0F5006F46D0FFE79DF886
:1019C00018100020B0EBD11F16D0FFE79DF81100D2
:1019D00000F004010020B0EB910F0DD0FFE79DF85F
:1019E000180000F004010020B0EB910F04D1FFE7D4
:1019F000079803F03BFD27E09DF8180000F0040174
:101A00000020B0EB910F1DD0FFE79DF8110000F012
:101A100002010020B0EB510F14D0FFE79DF80A003F
:101A2000212804D1FFE7079803F0B0FC09E09DF8F6
:101A30000B00402804D1FFE7079803F0F3FFFFE70E
:101A4000FFE700E0FFE7FFE7FFE741E007980068F6
:101A5000406800F40060B0F5006F38D0FFE79DF8F3
:101A6000180000F040010020B0EB911F16D0FFE7F6
:101A70009DF8110000F004010020B0EB910F0DD093
:101A8000FFE79DF8180000F004010020B0EB910F73
:101A900004D1FFE7079803F0DBFB17E09DF818007F
:101AA00000F004010020B0EB910F0DD0FFE79DF88E
:101AB000110000F002010020B0EB510F04D0FFE74D
:101AC000079803F0F5FA00E0FFE7FFE7FFE7FFE71D
:101AD000FFE7FFE7FFE7C2E00798006C28B1FFE7E8
:101AE000079800684069069008E0079800688069D8
:101AF00005900798006840690690FFE79DF8180078
:101B000000F002010020B0EB510F17D0FFE79DF865
:101B1000110000F002010020B0EB510F0ED0FFE7E2
:101B20000798006C28B1FFE7079800688069059066
:101B3000FFE70798059904F041F98FE09DF8180038
:101B400000F010010020B0EB111F0DD0FFE79DF851
:101B5000110000F002010020B0EB510F04D0FFE7AC
:101B6000079804F0F3F978E09DF80A00212805D0E1
:101B7000FFE79DF80A00292836D1FFE79DF81810E5
:101B80000020B0EBD11F16D0FFE79DF8110000F048
:101B900004010020B0EB910F0DD0FFE79DF8180075
:101BA00000F004010020B0EB910F04D1FFE707988B
:101BB00004F0CEF817E09DF8180000F004010020B2
:101BC000B0EB910F0DD0FFE79DF8110000F002017E
:101BD0000020B0EB510F04D0FFE7079804F0A2F803
:101BE00000E0FFE7FFE737E09DF8180000F0400154
:101BF0000020B0EB911F16D0FFE79DF8110000F018
:101C000004010020B0EB910F0DD0FFE79DF8180004
:101C100000F004010020B0EB910F04D1FFE707981A
:101C200004F048F817E09DF8180000F004010020C7
:101C3000B0EB910F0DD0FFE79DF8110000F002010D
:101C40000020B0EB510F04D0FFE7079804F01AF81A
:101C500000E0FFE7FFE7FFE7FFE7FFE7FFE708B088
:101C600080BD000081B0009001B0704780B58EB09B
:101C70000C900C9820B9FFE701208DF8370043E164
:101C80000C9890F83D0040B9FFE70C99002081F8CE
:101C90003C000C9800F028FBFFE70C99242081F809
:101CA0003D000C980168086820F0010008600C985D
:101CB0000168086840F4004008600C9801680868F2
:101CC00020F40040086001F037FE0A900C9840684C
:101CD00048F2A061C0F2010188420BD8FFE70A99DF
:101CE00048F28042C0F21E020020914238BF01201B
:101CF00009900AE00A9940F60012C0F23D02002065
:101D0000914238BF01200990FFE70998012804D1CA
:101D1000FFE701208DF83700F6E00A984DF6836161
:101D2000C4F21B31A0FB0110800C0B900C980068D2
:101D3000406820F03F000B9908430C9909684860FF
:101D40000C980068006A20F03F0008900C984068EA
:101D500048F2A061C0F20101884204D8FFE70B9865
:101D6000013007900EE00B984FF49671484344F60B
:101D7000D351C1F26201A0FB0101012000EB9110DF
:101D80000790FFE70898079908430C9909680862CB
:101D90000C980068C0694CF6FF71884306900C9857
:101DA000406848F2A061C0F2010188421FD8FFE7F5
:101DB0000A9801380C9949684900B0FBF1F00130EC
:101DC0006FF31F30032803D8FFE7042005900BE0D2
:101DD0000A9801380C9949684900B0FBF1F00130CC
:101DE0006FF31F300590FFE7059804904CE00C98C6
:101DF000806868B9FFE70A9801380C99496801EBD7
:101E00004101B0FBF1F001306FF31F3003900DE0A2
:101E10000A9801380C99496819225143B0FBF1F036
:101E20000130042161F31F300390FFE703980005A0
:101E300018B9FFE70120029023E00C98806868B988
:101E4000FFE70A9801380C99496801EB4101B0FBA2
:101E5000F1F001306FF31F3001900DE00A98013866
:101E60000C99496819225143B0FBF1F0013004216B
:101E700061F31F300190FFE7019840F400400290A9
:101E8000FFE702980490FFE70698049908430C992D
:101E90000968C8610C980068006820F0C0000C9BBD
:101EA0001968DA691B6A1A43104308600C980068C5
:101EB000806848F2FF3188430C9A1168D368126930
:101EC0001A43104388600C980068C06820F0FF0037
:101ED0000C9B19685A699B691A431043C8600C9897
:101EE0000168086840F0010008600C99002008644F
:101EF0000C9A202182F83D100C9908630C9981F806
:101F00003E008DF83700FFE79DF837000EB080BD2A
:101F100081B0009001B0704781B0009001B070476F
:101F200081B0009001B0704781B0009001B070475F
:101F300081B0009001B0704780B585B084460898A4
:101F4000DDF81CE0CDF80CC0ADF80A10ADF80820A3
:101F5000ADF80630ADF8040000200090039890F82A
:101F60003D00202840F0B080FFE740F22400C2F29C
:101F70000000006848F21F51C5F2EB11A0FB0110F0
:101F8000C00844F6D351C1F26201A0FB01108009E0
:101F9000192148430090FFE700980138009000980D
:101FA000C8B9FFE7039900200863039A202182F84B
:101FB0003D10039981F83E000399086C40F0200021
:101FC0000864FFE70399002081F83C00FFE7012047
:101FD0008DF813007CE0FFE703980068806900F04B
:101FE00002010020B0EB510FD6D1FFE7FFE70398C5
:101FF00090F83C00012804D1FFE702208DF813007F
:1020000066E00399012081F83C00FFE7FFE70398B1
:1020100000680068C00738B9FFE7039801680868DE
:1020200040F001000860FFE703980168086820F4A9
:10203000006008600399222081F83D000399402048
:1020400081F83E000399002008640799039A5162C1
:10205000BDF80410039A51850399498D039A11859F
:10206000039A0021CFF6FF71D162BDF80A10039ADE
:102070005164BDF80810039A9164BDF80610039AE4
:10208000D1640399086503980168086840F480608A
:10209000086003980168086840F480700860FFE7F2
:1020A0000399002081F83C00FFE70398008D38B1C8
:1020B000FFE703980168486840F4E0604860FFE784
:1020C00000208DF8130003E002208DF81300FFE7D5
:1020D0009DF8130005B080BD10B588B084460C98FB
:1020E0000B98DDF828E0CDF818C0ADF81610ADF863
:1020F0001420ADF81230ADF81000FFF7FDFA039090
:10210000069890F83D00202840F0E680FFE706980A
:1021100003996A4611600221C0F2100101221923BD
:1021200004F086F820B1FFE702208DF81F00D7E009
:10213000FFE7069890F83C00012804D1FFE7022051
:102140008DF81F00CCE00699012081F83C00FFE7E4
:10215000FFE7069800680068C00738B9FFE70698EF
:102160000168086840F001000860FFE70698016810
:10217000086820F4006008600699212081F83D007D
:102180000699402081F83E000699002008640A98CC
:1021900006994862BDF81000069948850698408D5A
:1021A0000699088506990020CFF6FF70C862069848
:1021B000BDF81610BDF81420BDF81230DDF830C09F
:1021C000039CEE46CEF80440CEF800C003F0BCFC01
:1021D00020B1FFE701208DF81F0081E0FFE706989E
:1021E000008D002849D0FFE706980C99039A04F067
:1021F00043F980B1FFE70698006C042807D1FFE798
:1022000006980168086840F400700860FFE7012044
:102210008DF81F0064E006980168406A0078086144
:102220000699486A013048620699088D0138088588
:102230000699488D0138488506980068406900F085
:1022400004010120B0EB910F16D1FFE70698008D35
:1022500090B1FFE706980168406A00780861069926
:10226000486A013048620699088D01380885069948
:10227000488D01384885FFE7B1E706980C99039A25
:1022800003F08AFF80B1FFE70698006C042807D1AD
:10229000FFE706980168086840F400700860FFE7EF
:1022A00001208DF81F001BE006980168086840F4C3
:1022B000007008600699202081F83D0006990020F2
:1022C00081F83E00FFE70699002081F83C00FFE717
:1022D00000208DF81F0003E002208DF81F00FFE7AB
:1022E0009DF81F0008B010BD80B58CB00B90002089
:1022F0000A9009900890079006900B98006845F2A4
:102300000041C4F20001884273D1FFE7FFE70020DB
:10231000059043F63000C4F20200016841F002016A
:102320000160006800F0020005900598FFE74FF497
:102330004070069012200790012008900320099019
:1023400004200A9040F20040C4F2020006A9FEF701
:10235000F5FFFFE70020049043F64000C4F20200BE
:10236000016841F400110160006800F4001004905D
:102370000498FFE741F6BC10C2F20000039046F259
:102380001001C4F2020101604FF0007141600021B0
:102390008160C1604FF48062026141618161C1610D
:1023A0004FF4403202624162FEF7F6FD18B1FFE7DA
:1023B000FEF7D6FAFFE7FFE70B9841F6BC11C2F231
:1023C000000181630B988863FFE71F2000900022C3
:1023D0000192114600F0BEF8009800F0B1F8019AA1
:1023E00020200290114600F0B5F8029800F0A8F8FD
:1023F000FFE70CB080BD000081B0009001B07047D5
:1024000081B0009001B0704740F2A010C2F200000D
:10241000027841F67071C2F2000108681044086049
:102420007047000080B543F60041C4F2020108681D
:1024300040F400700860086840F480600860086834
:1024400040F480700860032000F09EF80F2000F038
:1024500005F800F03BF8002080BD000080B582B098
:10246000009040F22400C2F20000006840F2A01187
:10247000C2F200010A784FF47A71B1FBF2F1B0FBBD
:10248000F1F001F03FFE20B1FFE701208DF80700D9
:1024900018E000980F280DD8FFE700994FF0FF30A3
:1024A000002200F057F8009840F2A411C2F2000197
:1024B000086003E001208DF8070003E000208DF89C
:1024C0000700FFE79DF8070002B080BD80B586B029
:1024D000FFE70020059043F64400C4F202000168C3
:1024E00041F480410160006800F480400590059847
:1024F000FFE7FFE70020049043F64000C4F202002B
:10250000016841F080510160006800F08050049043
:102510000498FFE70420019000220292114600F087
:1025200019F8019800F00CF8029A51200390114616
:1025300000F010F8039800F003F806B080BD00002A
:1025400080B582B08DF807009DF9070008F028FFDC
:1025500002B080BD80B586B08DF81700049103925B
:102560000020029008F034FF02909DF917000190BE
:1025700002980499039A04F035FD0146019808F089
:102580002FFF06B080BD000080B582B00190019899
:1025900008F048FF02B080BD82B001908DF80310B2
:1025A00002B0704782B00190ADF80210BDF8020091
:1025B000019909684862002002B0704784B0039016
:1025C0008DF80B10ADF8082003980068406A009061
:1025D0009DF80B0048B9FFE7BDF80810009840EAE5
:1025E000014003990968886233E003980068816AB2
:1025F000009800EB1140009000208DF80700FFE7E5
:102600009DF807009DF80B100139884213D2FFE7AF
:10261000039800689DF8071000EB8100D0F80411C2
:10262000009800EB11400090FFE79DF80700013093
:102630008DF80700E4E7BDF80810009840EA014073
:10264000039909689DF80B2001EB8201C1F8000194
:10265000FFE7002004B0704780B582B00190019878
:10266000D0F8040406F0ECFD02B080BD80B582B065
:1026700001908DF80310019AD2F804049DF803101C
:10268000C1EBC10302EB8302926C06F0B7FC02B00F
:1026900080BD000080B582B001908DF80310019AD2
:1026A000D2F804049DF80310C1EBC10302EB8302CE
:1026B000D2F8082206F048FD02B080BD80B582B095
:1026C00001900198D0F8040406F0C0FD02B080BD6E
:1026D00080B584B002908DF807109DF807000006C1
:1026E00000280FD5FFE702989DF8071001F00F01B1
:1026F000C1EBC10100EB81003C300090009901204A
:1027000048700FE002989DF8071001F00F01C1EB2F
:10271000C10100EB810000F5FE70009000990020DF
:102720004870FFE79DF8070000F00F00009908705F
:10273000FFE7029890F8BC03012804D1FFE70220CC
:102740008DF80F0014E00299012081F8BC03FFE727
:10275000FFE702980068009907F03CFDFFE7029947
:10276000002081F8BC03FFE700208DF80F00FFE791
:102770009DF80F0004B080BD80B584B002908DF844
:1027800007109DF8070000F00F0002994968884281
:1027900004D9FFE701208DF80F004DE09DF80700F8
:1027A000000600280FD5FFE702989DF8071001F0FA
:1027B0000F01C1EBC10100EB81003C30009000999A
:1027C000012048700FE002989DF8071001F00F01FA
:1027D000C1EBC10100EB810000F5FE700090009993
:1027E00000204870FFE70099002088709DF80700DE
:1027F00000F00F0000990870FFE7029890F8BC0302
:10280000012804D1FFE702208DF80F0014E002999F
:10281000012081F8BC03FFE7FFE7029800680099F8
:1028200008F054F8FFE70299002081F8BC03FFE7A5
:1028300000208DF80F00FFE79DF80F0004B080BD69
:1028400082B001908DF8031001989DF8031001F0FB
:102850000F01C1EBC10100EB8100D0F8140202B0FE
:102860007047000080B586B004908DF80F10ADF869
:102870000C208DF80B3000208DF80A009DF80F0019
:10288000000600280FD5FFE704989DF80F1001F00F
:102890000F01C1EBC10100EB81003C3001900199B7
:1028A000012048700FE004989DF80F1001F00F010F
:1028B000C1EBC10100EB810000F5FE7001900199B0
:1028C00000204870FFE79DF80F0000F00F0001990D
:1028D0000870BDF80C00019988609DF80B00019903
:1028E000C8700198407820B1FFE701990878C88046
:1028F000FFE79DF80B00022804D1FFE701990020B3
:102900000871FFE7FFE7049890F8BC03012804D1A1
:10291000FFE702208DF8170015E00499012081F8E7
:10292000BC03FFE7FFE704980068019907F00EFB7E
:10293000FFE70499002081F8BC03FFE79DF80A0037
:102940008DF81700FFE79DF8170006B080BD000066
:1029500080B586B005908DF8131003920293059808
:102960009DF8131001F00F01C1EBC10100EB8100D4
:1029700000F5FE70019003980199C86002980199D2
:102980004861019900208861019948709DF8130001
:1029900000F00F000199087005980069012804D122
:1029A000FFE7039801990861FFE79DF8130000070E
:1029B00038B9FFE7059A10680199127C07F03EFECE
:1029C00006E0059A10680199127C08F023F8FFE7E9
:1029D000002006B080BD000080B584B002908DF864
:1029E00007109DF8070000F00F000299496888421F
:1029F00004D9FFE701208DF80F0058E09DF807008B
:102A0000000600280FD5FFE702989DF8071001F097
:102A10000F01C1EBC10100EB81003C300090009937
:102A2000012048700DE002989DF80710C1EBC1012C
:102A300000EB810000F5FE700090009900204870C6
:102A4000FFE70099012088709DF8070000F00F0053
:102A500000990870FFE7029890F8BC03012804D1A0
:102A6000FFE702208DF80F0021E00299012081F894
:102A7000BC03FFE7FFE702980068009907F076FFC4
:102A80009DF80700000740B9FFE7029A1068117C23
:102A900002F5717207F0CAFEFFE7FFE70299002016
:102AA00081F8BC03FFE700208DF80F00FFE79DF8D9
:102AB0000F0004B080BD000080B586B005908DF891
:102AC00013100392029305989DF8131001F00F0163
:102AD000C1EBC10100EB81003C30019003980199EA
:102AE000C8600298019948610199002088610199A4
:102AF000012048709DF8130000F00F000199087044
:102B000005980069012804D1FFE70398019908613D
:102B1000FFE79DF81300000738B9FFE7059A106832
:102B20000199127C07F08AFD06E0059A1068019968
:102B3000127C07F06FFFFFE7002006B080BD0000A9
:102B400080B58CB00B900B9800680A900A98099099
:102B50000B98006808F090F9002840F01A83FFE70E
:102B60000B98006808F0F4F908B9FFE711E30B9837
:102B7000006808F0EDF98007002807D5FFE70B98FB
:102B80000168486900F002004861FFE70B9800689F
:102B900008F0DEF9C006002862D5FFE70B9801684F
:102BA000886920F0100088610A98006A02900B98EA
:102BB000029901F00F01C1EBC10100EB810000F5AA
:102BC000FE700890029800F4F0110220B0EB514F13
:102BD00023D1FFE7BDF8080047F6F07108421BD08B
:102BE000FFE70A980899C968029AC2F30A1208F026
:102BF000BDF9029847F6F07100EA0103089AD0681F
:102C000000EB1310D060029800EA0102089988696D
:102C100000EB12108861FFE71BE0029800F4F0114E
:102C20000620B0EB514F12D1FFE70A980B9901F53E
:102C30007171082208F09AF9029847F6F07100EADB
:102C400001020899886900EB1210886100E0FFE733
:102C5000FFE70B980168886940F010008861FFE782
:102C60000B98006808F074F90003002870D5FFE79E
:102C7000002004900B98006808F018F90690FFE710
:102C80000698002863D0FFE79DF81800C0070028C9
:102C900056D0FFE70B9800689DF8101008F040F937
:102CA00005909DF81400C00760B1FFE709980499EA
:102CB00000EB41110120C1F8080B0B98049904F0B6
:102CC00015FAFFE79DF81400000700280CD5FFE770
:102CD0000998049900EB41110820C1F8080B0B98E2
:102CE000049904F0BDF9FFE79DF81400C006002820
:102CF00008D5FFE70998049900EB41111020C1F8AD
:102D0000080BFFE79DF814008006002808D5FFE7B0
:102D10000998049900EB41112020C1F8080BFFE746
:102D20009DF815008006002809D5FFE70998049949
:102D300000EB41114FF40050C1F8080BFFE7FFE72B
:102D400004980130049006984008069098E7FFE741
:102D50000B98006808F0FCF84003002840F1AC80B4
:102D6000FFE70B98006808F08FF8069000200490A9
:102D7000FFE70698002800F09E80FFE79DF8180006
:102D8000C007002800F09080FFE70B9800689DF8CE
:102D9000101008F09DF805909DF81400C007002859
:102DA0003ED0FFE7049800F00F01012000FA01F186
:102DB0000391039B099AD2F834189943C2F8341846
:102DC0000999049A01EB4211C1F808090B980069AE
:102DD00001281FD1FFE70B980499C1EBC10100EB5B
:102DE00081014A6C886C10448864049888B9FFE7B4
:102DF0000B980499C1EBC10100EB8100006D40B953
:102E0000FFE70B99086801F57172012107F00EFDCB
:102E1000FFE7FFE70B989DF81010FFF727FCFFE78F
:102E20009DF814000007002808D5FFE709980499C9
:102E300000EB41110820C1F80809FFE79DF81400D4
:102E4000C006002808D5FFE70998049900EB411156
:102E50001020C1F80809FFE79DF81400400600287B
:102E600008D5FFE70998049900EB41114020C1F80B
:102E70000809FFE79DF814008007002808D5FFE740
:102E80000998049900EB41110220C1F80809FFE7F5
:102E90009DF814000006002805D5FFE70B9804995B
:102EA00004F016FAFFE7FFE7049801300490069853
:102EB000400806905DE7FFE70B98006808F048F8C7
:102EC000C00F00B3FFE70999D1F8040820F0010012
:102ED000C1F804080B9890F8F403012808D1FFE723
:102EE0000B98002180F8F4130B98FFF755FB03E0D3
:102EF0000B9800F03BFBFFE70B980168486900F076
:102F000000404861FFE70B98006808F021F80005D1
:102F1000002811D5FFE70998D0F80808C00720B1AC
:102F2000FFE70B9800F0B0FBFFE70B9801684869DA
:102F300000F400604861FFE70B98006808F008F8AB
:102F4000C004002840F19080FFE70999D1F80408F7
:102F500020F00100C1F804080B980068102107F068
:102F60003BFF00200790FFE707980B9949688842CC
:102F70003BD2FFE70998079900EB41114FF67F30EC
:102F8000C1F808090999079A01EB4212D2F8001911
:102F900021F40011C2F800190999079A01EB4212B5
:102FA000D2F8001941F00061C2F800190999079A96
:102FB00001EB4211C1F8080B0998079900EB411188
:102FC000D1F8000B20F40010C1F8000B0998079904
:102FD00000EB4111D1F8000B40F00060C1F8000B8C
:102FE000FFE7079801300790BEE70999D1F81C0860
:102FF00040F00110C1F81C080B98006B78B1FFE796
:103000000999D1F8840840F00B00C1F884080999A7
:10301000D1F8440840F00B00C1F844080FE00999CA
:10302000D1F8140842F22B021043C1F81408099990
:10303000D1F8100840F00B00C1F81008FFE709991B
:10304000D1F8000820F4FE60C1F800080B9A10685F
:10305000117C02F5717207F0E9FB0B980168486971
:1030600000F480504861FFE70B98006807F070FF9C
:10307000800400281FD5FFE70B98006806F0D6FFF4
:103080000B98006807F0D2FE0B99C8600B98006897
:10309000019000F04BFC014601980B9A127B08F05E
:1030A0005DF80B9800F046FA0B980168486900F447
:1030B00000504861FFE70B98006807F049FF0007E0
:1030C00000280AD5FFE70B9800F05AFA0B98016820
:1030D000486900F008004861FFE70B98006807F0B6
:1030E00037FFC00200280ED5FFE7002004900B98A0
:1030F0009DF8101000F050F80B980168486900F432
:1031000080104861FFE70B98006807F021FF8002FC
:1031100000280ED5FFE7002004900B989DF81010B2
:1031200000F048F80B980168486900F40010486105
:10313000FFE70B98006807F00BFF400000280AD556
:10314000FFE70B98FFF788FA0B980168486900F0D1
:1031500080404861FFE70B98006807F0F9FE4007E0
:10316000002815D5FFE70B980068406802909DF88D
:1031700008004007002804D5FFE70B98FFF79EFAE8
:10318000FFE7029A0B980168486810434860FFE720
:10319000FFE70CB080BD000080B582B001908DF8D3
:1031A00003100198D0F804049DF8031006F0E0F82D
:1031B00002B080BD80B582B001908DF803100198F7
:1031C000D0F804049DF8031006F0FEF802B080BDAC
:1031D0002DE9F04F97B01590159820B9FFE7012021
:1031E0008DF85B0049E1159800681490159890F8E7
:1031F000BD0340B9FFE71599002081F8BC0315987D
:1032000000F040F9FFE71599032081F8BD031498F9
:10321000C06BC005002804D4FFE7159900200861A1
:10322000FFE71598006807F0FFF9159810900168FE
:10323000119141688268C368D0F810C044698569FB
:10324000C669076AD0F82480D0F82890D0F82CA05E
:10325000D0F830B0D0F834E068461290C0F824E0DE
:103260001198DDF848E0CEF820B0CEF81CA0CEF8DA
:103270001890CEF81480CEF81070CEF80C60CEF80E
:103280000850CEF80440CEF800C006F0E5FE40B18C
:10329000FFE71599022081F8BD0301208DF85B003E
:1032A000EBE01598006800210F9107F0B9FE0F9828
:1032B0008DF84F00FFE79DF84F0015994968884247
:1032C00045D2FFE715989DF84F10C1EBC10100EB07
:1032D0008101012081F83D009DF84F001599C0EB58
:1032E000C00201EB820181F83C009DF84F00159966
:1032F000C0EBC00201EB8201A1F8420015989DF8D5
:103300004F10C1EBC10100EB8101002081F83F00AB
:1033100015999DF84F20C2EBC20201EB820148646F
:1033200015999DF84F20C2EBC20201EB820188641F
:1033300015999DF84F20C2EBC20201EB820108658E
:10334000FFE79DF84F0001308DF84F00B3E70020F4
:103350008DF84F00FFE79DF84F00159949688842A6
:103360003ED2FFE715989DF84F10C1EBC10100EB6D
:103370008101002081F8FD019DF84F10159AC1EBE5
:10338000C10302EB830282F8FC1115999DF84F20CE
:10339000C2EBC20201EB820181F8FF0115999DF891
:1033A0004F20C2EBC20201EB8201C1F80402159961
:1033B0009DF84F20C2EBC20201EB8201C1F8080266
:1033C00015999DF84F20C2EBC20201EB8201C1F8B2
:1033D0001002FFE79DF84F0001308DF84F00BAE76B
:1033E00015980C9001680D9141688268C368D0F807
:1033F00010C044698569C669076AD0F82480D0F88E
:103400002890D0F82CA0D0F830B0D0F834E068463E
:103410000E90C0F824E00D98DDF838E0CEF820B02A
:10342000CEF81CA0CEF81890CEF81480CEF810700C
:10343000CEF80C60CEF80850CEF80440CEF800C0AC
:1034400006F090FF40B1FFE71599022081F8BD0317
:1034500001208DF85B0010E0159900200B9081F899
:1034600038001599012081F8BD031598006806F011
:1034700063FF0B988DF85B00FFE79DF85B0017B0CA
:10348000BDE8F08F80B58AB00990002008900790C1
:1034900006900590049009980068B0F1A04F47D1BC
:1034A000FFE7FFE70020039043F63000C4F202007C
:1034B000016841F001010160006800F00100039023
:1034C0000398FFE74FF4C0500490022005900020BD
:1034D0000690032007900A2008900020C4F2020002
:1034E00004A9FDF72BFFFFE743F63401C4F2020104
:1034F000086840F080000860FFE70020029043F673
:103500004400C4F20200016841F480410160006897
:1035100000F4804002900298FFE7FFE7432001900B
:1035200000221146FFF716F80198FFF709F8FFE7A8
:103530000AB080BD80B582B0019001208DF80300F3
:103540000198C068022803D0FFE7FDF709FAFFE7FA
:103550000198D0F804049DF8031006F033F80198A0
:10356000D0F8040405F0A4FF02B080BD80B582B09D
:1035700001900198D0F8040405F0EAFF02B080BD84
:1035800080B582B001900198D0F8040405F0F2FFF4
:1035900002B080BD80B584B002908DF80710FFE7BF
:1035A000029890F8BC03012804D1FFE702208DF8AF
:1035B0000F001AE00299012081F8BC03FFE7FFE742
:1035C0009DF80700029981F83800029800689DF87C
:1035D000071007F095FDFFE70299002081F8BC0372
:1035E000FFE700208DF80F00FFE79DF80F0004B003
:1035F00080BD000080B582B001900199D1F804042B
:1036000001F5717106F008F802B080BD80B584B094
:103610000290029800680190FFE7029890F8BC03BE
:10362000012804D1FFE702208DF80F0027E002995E
:10363000012081F8BC03FFE7FFE70298806A0128B8
:103640000BD1FFE702988069012806D0FFE70199B6
:10365000886B40F480308863FFE70298006807F0C9
:103660008BFB0298006806F051FEFFE702990020EC
:1036700081F8BC03FFE700208DF80F00FFE79DF8FD
:103680000F0004B080BD000080B582B001900198A9
:10369000D0F8040406F042F801980168D1F8000E51
:1036A00040F00100C1F8000E0198006A48B1FFE740
:1036B0004EF61051CEF20001086840F00600086096
:1036C000FFE702B080BD000080B584B00290019198
:1036D000029820B9FFE701208DF80F0021E1019841
:1036E00043F60041C4F20201096801F00701884273
:1036F00012D9FFE7019943F60040C4F202000170BD
:10370000006800F007000199884204D0FFE701201B
:103710008DF80F0005E1FFE7029800788007002888
:103720002AD5FFE7029800784007002809D5FFE76F
:1037300043F60801C4F20201086840F4E050086052
:10374000FFE7029800780007002809D5FFE743F655
:103750000801C4F20201086840F460400860FFE715
:1037600043F60801C4F20201086820F0F000029A52
:10377000926810430860FFE702980078C0070028AD
:103780006ED0FFE702984068012811D1FFE743F6A9
:103790000000C4F20200006800F400310020B0EB29
:1037A000514F04D1FFE701208DF80F00B9E02CE064
:1037B00002984068022805D0FFE702984068032875
:1037C00011D1FFE743F60000C4F20200006800F0E8
:1037D00000710020B0EB516F04D1FFE701208DF89C
:1037E0000F009EE010E043F60000C4F20200006803
:1037F00000F002010020B0EB510F04D1FFE70120DF
:103800008DF80F008DE0FFE7FFE743F60801C4F2F3
:103810000201086820F00300029A52681043086011
:10382000FDF76AFF0090FFE743F60800C4F20200CC
:10383000006800F00C0002994968B0EB810F0ED0CF
:10384000FFE7FDF759FF0099401A41F2893188429C
:1038500004D3FFE703208DF80F0062E0E4E7FFE701
:10386000019843F60041C4F20201096801F0070122
:10387000884212D2FFE7019943F60040C4F20200E9
:103880000170006800F007000199884204D0FFE74A
:1038900001208DF80F0044E0FFE702980078400710
:1038A00000280CD5FFE743F60801C4F202010868BE
:1038B00020F4E050029AD26810430860FFE70298B3
:1038C0000078000700280DD5FFE743F60801C4F291
:1038D0000201086820F46040029A126940EAC200BE
:1038E0000860FFE700F03AF843F60801C4F202016D
:1038F0000968C9B20A094FF6B811C0F60001895C1F
:10390000C84040F22401C2F20001086040F2A41055
:10391000C2F200000068FEF7A1FD00208DF80F0044
:10392000FFE79DF80F0004B080BD000040F22400C6
:10393000C2F200000068704780B5FFF7F7FF43F65A
:103940000801C4F202010968C1F382224FF6C811CE
:10395000C0F60001895CC84080BD000080B586B01B
:103960000020059004900390029043F60800C4F2F2
:103970000200006800F00C000146019140B1FFE731
:10398000019804280AD0FFE7019808280CD04FE0DE
:1039900042F20040C0F2F40002904FE047F64000CF
:1039A000C0F27D10029049E043F60400C4F2020028
:1039B000016801F03F01059100684002002813D51D
:1039C000FFE743F60400C4F202000068C0F3881069
:1039D00047F64001C0F27D11A0FB0101059A0023CA
:1039E000FCF79DFC049012E043F60400C4F20200D0
:1039F0000068C0F3881042F20041C0F2F401A0FB5D
:103A00000101059A0023FCF78AFC0490FFE743F6C6
:103A10000400C4F20200006800F44031022000EB10
:103A2000D130039004980399B0FBF1F0029005E0C7
:103A300042F20040C0F2F4000290FFE7029806B0A4
:103A400080BD000080B586B00490049820B9FFE7DF
:103A500001208DF8170050E304980078C007002873
:103A600000F0A580FFE743F60800C4F202000068FA
:103A700000F00C00042813D0FFE743F60800C4F25E
:103A80000200006800F00C0008281ED1FFE743F692
:103A90000400C4F2020000684002002815D5FFE7C8
:103AA00043F60000C4F20200006800F40031002078
:103AB000B0EB514F08D0FFE70498406820B9FFE70A
:103AC00001208DF8170018E370E0FFE704984068C4
:103AD000B0F5803F09D1FFE743F60001C4F20201CF
:103AE000086840F48030086020E004984068B0F531
:103AF000A02F0DD1FFE743F60001C4F202010868D0
:103B000040F480200860086840F4803008600CE0D1
:103B100043F60001C4F20201086820F48030086016
:103B2000086820F480200860FFE7FFE7FFE70498BB
:103B30004068E8B1FFE7FDF7DFFD0390FFE743F6DC
:103B40000000C4F20200006800F400310020B0EB75
:103B5000514F0CD1FFE7FDF7CFFD0399401A6528BF
:103B600004D3FFE703208DF81700C6E2E7E71CE067
:103B7000FDF7C2FD0390FFE743F60000C4F2020028
:103B8000006800F400310020B0EB514F0CD0FFE78B
:103B9000FDF7B2FD0399401A652804D3FFE703201F
:103BA0008DF81700A9E2E7E7FFE7FFE7FFE70498D2
:103BB00000788007002840F19680FFE743F6080070
:103BC000C4F20200006810F00C0F13D0FFE743F6B8
:103BD0000800C4F20200006800F00C0008282CD194
:103BE000FFE743F60400C4F2020000684002002828
:103BF00023D4FFE743F60000C4F20200006800F09F
:103C000002010020B0EB510F09D0FFE70498C06813
:103C1000012804D0FFE701208DF817006DE243F67C
:103C20000001C4F20201086820F0F800049A126949
:103C300040EAC2000860FFE754E00498C06870B32F
:103C4000FFE70021C4F2472101200860FDF754FD81
:103C50000390FFE743F60000C4F20200006800F0A2
:103C600002010020B0EB510F0CD1FFE7FDF744FD3E
:103C70000399401A032804D3FFE703208DF81700A7
:103C80003BE2E7E743F60001C4F20201086820F0D6
:103C9000F800049A126940EAC200086021E000219D
:103CA000C4F2472100200860FDF726FD0390FFE7DE
:103CB00043F60000C4F20200006800F00201002098
:103CC000B0EB510F0CD0FFE7FDF716FD0399401A3A
:103CD000032804D3FFE703208DF817000DE2E7E780
:103CE000FFE7FFE7FFE704980078000700284BD5BF
:103CF000FFE70498406918B3FFE740F68061C4F21B
:103D0000472101200860FDF7F7FC0390FFE743F629
:103D10007400C4F20200006800F002010020B0EB61
:103D2000510F0CD1FFE7FDF7E7FC0399401A032878
:103D300004D3FFE703208DF81700DEE1E7E722E078
:103D400040F68061C4F2472100200860FDF7D4FCF2
:103D50000390FFE743F67400C4F20200006800F02D
:103D600002010020B0EB510F0CD0FFE7FDF7C4FCBF
:103D70000399401A032804D3FFE703208DF81700A6
:103D8000BBE1E7E7FFE7FFE704980078400700287A
:103D900040F1CE80FFE700208DF8070043F6400099
:103DA000C4F202000068C000002815D4FFE7FFE756
:103DB0000020009043F64000C4F20200016841F088
:103DC00080510160006800F0805000900098FFE78B
:103DD00001208DF80700FFE747F20000C4F2000061
:103DE0000068C005002822D4FFE747F20001C4F2B2
:103DF0000001086840F480700860FDF77DFC0390C6
:103E0000FFE747F20000C4F200000068C005002888
:103E10000CD4FFE7FDF770FC0399401A032804D384
:103E2000FFE703208DF8170067E1EAE7FFE7FFE708
:103E300004988068012809D1FFE743F67001C4F2B5
:103E40000201086840F0010008601FE004988068E3
:103E500005280DD1FFE743F67001C4F2020108689E
:103E600040F004000860086840F0010008600CE0C1
:103E700043F67001C4F20201086820F001000860F6
:103E8000086820F004000860FFE7FFE7FFE70498F8
:103E90008068F8B1FFE7FDF72FFC0390FFE743F6DA
:103EA0007000C4F20200006800F002010020B0EBD4
:103EB000510F0ED1FFE7FDF71FFC0399401A41F2A5
:103EC0008931884204D3FFE703208DF8170014E1FD
:103ED000E5E71EE0FDF710FC0390FFE743F67000F6
:103EE000C4F20200006800F002010020B0EB510FA4
:103EF0000ED0FFE7FDF700FC0399401A41F289312B
:103F0000884204D3FFE703208DF81700F5E0E5E7CA
:103F1000FFE79DF80700012809D1FFE743F64001BC
:103F2000C4F20201086820F080500860FFE7FFE754
:103F300004988069002800F0DC80FFE743F6080061
:103F4000C4F20200006800F00C00082800F0858030
:103F5000FFE70498806902285CD1FFE76021C4F282
:103F6000472100200860FDF7C7FB0390FFE743F6F9
:103F70000000C4F20200006800F000710020B0EB05
:103F8000516F0CD0FFE7FDF7B7FB0399401A0328E8
:103F900004D3FFE703208DF81700AEE0E7E70499AC
:103FA000C869D1F820C04B6A8A6A40EA0C0040EA2E
:103FB0008310D2034FF6FF739A43A2F58032104369
:103FC000C96A40EA016043F60401C4F202010860D4
:103FD0006021C4F2472101200860FDF78DFB0390AA
:103FE000FFE743F60000C4F20200006800F0007131
:103FF0000020B0EB516F0CD1FFE7FDF77DFB03997B
:10400000401A032804D3FFE703208DF8170074E05B
:10401000E7E721E06021C4F2472100200860FDF7B6
:104020006BFB0390FFE743F60000C4F20200006858
:1040300000F000710020B0EB516F0CD0FFE7FDF7EE
:104040005BFB0399401A032804D3FFE703208DF894
:10405000170052E0E7E7FFE74AE00498806901288B
:1040600004D1FFE701208DF8170046E043F6040075
:10407000C4F202000068029004988069012831D0DF
:10408000FFE7029800F480000499C969884229D1A9
:10409000FFE7029800F03F000499096A884221D1A5
:1040A000FFE7029847F6C07108400499496AB0EBEF
:1040B000811F17D1FFE7029800F440300499896A04
:1040C000C9034FF6FF729143A1F58031884209D1AF
:1040D000FFE7029800F070600499C96AB0EB016FC5
:1040E00004D0FFE701208DF8170006E0FFE7FFE7A7
:1040F000FFE700208DF81700FFE79DF8170006B0D6
:1041000080BD000080B582B00190019803F09AFC58
:1041100002B080BD81B0009001B0704781B00090C6
:1041200001B0704785B003900291FFE7039890F8C3
:104130003C00012804D1FFE702208DF813006CE059
:104140000399012081F83C00FFE7FFE70399022073
:1041500081F83D000398006840680190039800686A
:1041600080680090019820F070000190029801682A
:1041700001980843019001980399096848600398E1
:1041800000680021C4F2010188422AD0FFE70398A9
:104190000068B0F1804F24D0FFE70398006840F238
:1041A0000041C4F2000188421BD0FFE70398006879
:1041B00040F60001C4F20001884212D0FFE70398E4
:1041C000006840F60041C4F20001884209D0FFE7D0
:1041D0000398006844F20001C4F2010188420ED144
:1041E000FFE7009820F08000009002984168009856
:1041F000084300900098039909688860FFE70399D5
:10420000012081F83D00FFE70399002081F83C0080
:10421000FFE700208DF81300FFE79DF8130005B0BD
:104220007047000080B582B00090009820B9FFE789
:1042300001208DF807003FE0009890F83D0040B95C
:10424000FFE70099002081F83C00009800F038F862
:10425000FFE70099022081F83D00009951F8040B16
:1042600003F08EFC0099012081F84600FFE70099D9
:10427000012081F83E00009981F83F00009981F803
:104280004000009981F84100FFE7FFE70099012015
:1042900081F84200009981F84300009981F84400B8
:1042A000009981F84500FFE70099012081F83D0061
:1042B00000208DF80700FFE79DF8070002B080BDE1
:1042C00080B584B003900398006840F20041C4F2C6
:1042D000000188421BD1FFE7FFE70020029043F670
:1042E0004000C4F20200016841F002010160006870
:1042F00000F0020002900298FFE71D2000900022CB
:104300001146FEF727F90098FEF71AF91BE003980B
:10431000006840F60001C4F20001884212D1FFE7B4
:10432000FFE70020019043F64000C4F2020001685C
:1043300041F004010160006800F004000190019860
:10434000FFE7FFE7FFE704B080BD000083B0019006
:10435000019890F83D00012804D0FFE701208DF876
:104360000B0058E00199022081F83D000198016896
:10437000C86840F00100C860019800680021C4F2DC
:10438000010188422AD0FFE701980068B0F1804F10
:1043900024D0FFE70198006840F20041C4F2000118
:1043A00088421BD0FFE70198006840F60001C4F284
:1043B0000001884212D0FFE70198006840F60041F2
:1043C000C4F20001884209D0FFE70198006844F276
:1043D0000001C4F20101884212D1FFE70198006890
:1043E000806800F0070000900098062807D0FFE7DB
:1043F00001980168086840F001000860FFE706E0E6
:1044000001980168086840F001000860FFE700209B
:104410008DF80B00FFE79DF80B0003B0704700001C
:1044200080B586B00490039100208DF80B00FFE763
:10443000049890F83C00012804D1FFE702208DF891
:104440001700ABE00499012081F83C00FFE7FFE78B
:104450000499022081F83D0004980068806801906A
:10446000019820F077000190019820F47F4001909E
:1044700001980499096888600398006800900028F2
:1044800072D0FFE7009810286ED0FFE70098202830
:104490006AD0FFE70098302866D0FFE700984028F0
:1044A00055D0FFE70098502837D0FFE700986028E4
:1044B00040D0FFE7009870280BD0FFE70098B0F5D8
:1044C000805F05D0FFE70098B0F5005F16D052E09E
:1044D00055E004980068039B5A689968DB6803F00C
:1044E00009FC0498006880680190019840F077000A
:1044F0000190019804990968886040E00498006878
:10450000039B5A689968DB6803F0F4FB0498016820
:10451000886840F48040886031E004980068039A1D
:104520005168D26803F09AFD04980068502103F0A6
:10453000FBFB24E004980068039A5168D26803F0FA
:10454000B5FD04980068602103F0EEFB17E00498C5
:104550000068039A5168D26803F080FD04980068EF
:10456000402103F0E1FB0AE0049800680399096820
:1045700003F0DAFB03E001208DF80B00FFE704995C
:10458000012081F83D00FFE70499002081F83C00FC
:10459000FFE79DF80B008DF81700FFE79DF8170067
:1045A00006B080BD81B0009001B0704780B582B088
:1045B000019001980068006900F002010020B0EB52
:1045C000510F28D0FFE701980068C06800F0020191
:1045D0000020B0EB510F1DD0FFE7019801686FF08C
:1045E000020008610199012008770198006880693C
:1045F000800720B1FFE70198FFF7D4FF06E001989C
:1046000000F048F9019800F03DFAFFE70199002019
:104610000877FFE7FFE701980068006900F00401F0
:104620000020B0EB910F29D0FFE701980068C06827
:1046300000F004010020B0EB910F1ED0FFE70198BD
:1046400001686FF004000861019902200877019861
:104650000068806910F4407F04D0FFE70198FFF7FD
:10466000A1FF06E0019800F015F9019800F00AFAA0
:10467000FFE7019900200877FFE7FFE7019800684E
:10468000006900F008010020B0EBD10F28D0FFE74F
:1046900001980068C06800F008010020B0EBD10F5D
:1046A0001DD0FFE7019801686FF0080008610199CB
:1046B0000420087701980068C069800720B1FFE7EF
:1046C0000198FFF76FFF06E0019800F0E3F801980A
:1046D00000F0D8F9FFE7019900200877FFE7FFE72E
:1046E00001980068006900F010010020B0EB111F74
:1046F00029D0FFE701980068C06800F01001002091
:10470000B0EB111F1ED0FFE7019801686FF0100099
:10471000086101990820087701980068C06910F4C1
:10472000407F04D0FFE70198FFF73CFF06E00198C7
:1047300000F0B0F8019800F0A5F9FFE7019900201A
:104740000877FFE7FFE7019800680069C00780B1BC
:10475000FFE701980068C068C00748B1FFE701980B
:1047600001686FF001000861019800F04FFAFFE75F
:10477000FFE7019800680069C1B20020B0EBD11FCB
:1047800013D0FFE701980068C068C1B20020B0EB09
:10479000D11F09D0FFE7019801686FF08000086120
:1047A0000198FFF7B7FCFFE7FFE701980068006991
:1047B00000F040010020B0EB911F14D0FFE70198FA
:1047C0000068C06800F040010020B0EB911F09D0E4
:1047D000FFE7019801686FF040000861019800F060
:1047E00019FAFFE7FFE701980068006900F020016F
:1047F0000020B0EB511F14D0FFE701980068C0689B
:1048000000F020010020B0EB511F09D0FFE7019814
:1048100001686FF0200008610198FFF77FFCFFE757
:10482000FFE702B080BD000080B588B0079000208F
:10483000069005900490039002900798006840F657
:104840000001C4F20001884221D1FFE7FFE7002008
:10485000019043F63000C4F20200016841F0020109
:104860000160006800F0020001900198FFE78020DD
:10487000029002200390002104910591069040F2DD
:104880000040C4F2020002A9FCF758FDFFE708B09F
:1048900080BD000081B0009001B0704780B586B047
:1048A00004900391029200208DF80700FFE704981E
:1048B00090F83C00012804D1FFE702208DF8170092
:1048C00089E00499012081F83C00FFE7FFE70298A6
:1048D00000900C2800F270800099DFE801F0076D6D
:1048E0006D6D206D6D6D3A6D6D6D530004980068AF
:1048F000039903F02FFA04980168886940F00800D2
:10490000886104980168886920F004008861039830
:1049100002690498016888691043886150E004982E
:104920000068039903F07CFA04980168886940F4F0
:104930000060886104980168886920F4806088615B
:104940000398026904980168886940EA0220886136
:1049500036E004980068039903F0CCFA04980168E3
:10496000C86940F00800C86104980168C86920F06F
:104970000400C8610398026904980168C86910437B
:10498000C8611DE004980068039903F01DFB0498BA
:104990000168C86940F40060C86104980168C8698A
:1049A00020F48060C8610398026904980168C869AE
:1049B00040EA0220C86103E001208DF80700FFE70C
:1049C000FFE70499002081F83C00FFE79DF807000D
:1049D0008DF81700FFE79DF8170006B080BD0000B6
:1049E00080B582B00090009820B9FFE701208DF8D3
:1049F00007003FE0009890F83D0040B9FFE70099BC
:104A0000002081F83C00009800F038F8FFE700999A
:104A1000022081F83D00009951F8040B03F0B0F832
:104A20000099012081F84600FFE70099012081F8F4
:104A30003E00009981F83F00009981F840000099FC
:104A400081F84100FFE7FFE70099012081F842006B
:104A5000009981F84300009981F84400009981F899
:104A60004500FFE70099012081F83D0000208DF806
:104A70000700FFE79DF8070002B080BD81B00090FD
:104A800001B0704781B0009001B0704780B58AB026
:104A900008900791079828B9FFE7089890F83E001A
:104AA00005901CE00798042805D1FFE7089890F8C6
:104AB0003F00049010E00798082805D1FFE7089808
:104AC00090F84000039004E0089890F841000390AB
:104AD000FFE703980490FFE704980590FFE7059827
:104AE000012804D0FFE701208DF827008AE007980D
:104AF00028B9FFE70899022081F83E001EE00798D8
:104B0000042806D1FFE70899022081F83F000290AF
:104B100012E00798082806D1FFE70899022081F8DB
:104B20004000019005E00899022081F841000190C1
:104B3000FFE701980290FFE70298FFE708980068F6
:104B40000799012203F0BAF8089800680021C4F21E
:104B50000101884207D1FFE708980168486C40F4DA
:104B600000404864FFE7089800680021C4F2010192
:104B700088422AD0FFE708980068B0F1804F24D01F
:104B8000FFE70898006840F20041C4F20001884243
:104B90001BD0FFE70898006840F60001C4F200014E
:104BA000884212D0FFE70898006840F60041C4F23E
:104BB0000001884209D0FFE70898006844F200012C
:104BC000C4F20101884212D1FFE7089800688068AA
:104BD00000F0070006900698062807D0FFE708981F
:104BE0000168086840F001000860FFE706E00898E7
:104BF0000168086840F001000860FFE700208DF8B8
:104C00002700FFE79DF827000AB080BD81B0009023
:104C100001B0704781B0009001B07047FFE7FEE738
:104C200080B541F61C20C2F20000FCF777FD80BD84
:104C300080B541F61C20C2F20000FCF72DFE01F009
:104C4000CFFC80BD81B000900098C06AB0F52A0FFB
:104C500004D1FFE700990120C8620BE00098C06A08
:104C6000B0F12A4F04D1FFE700990820C86200E0A4
:104C7000FFE7FFE701B0704780B584B003900020E4
:104C800002900398806B0190019890F83D008DF898
:104C9000030040F22400C2F20000006848F21F51F5
:104CA000C5F2EB11A0FB0110C00844F6D351C1F2CC
:104CB0006201A0FB01108009232148430290FFE715
:104CC000029830B9FFE70199086C40F020000864B1
:104CD0000CE0029801380290FFE701980068006834
:104CE00000F40070B0F5007FEAD0FFE70198406B58
:104CF00028B1FFE70198416B0020C863FFE70198E6
:104D0000806B28B1FFE70198816B0020C863FFE743
:104D100001980168086820F480600860019900200B
:104D200048850198406B28B1FFE70198416B00204E
:104D30000865FFE70198806B28B1FFE70198816B58
:104D400000200865FFE701980168086820F001006D
:104D50000860019890F83D0060280ED1FFE70199A6
:104D6000202081F83D000199002081F83E00019942
:104D700008640198FCF7C6FC27E09DF8030000F0EA
:104D80002800282814D1FFE701980168086840F03E
:104D90000100086001980168086840F480600860BC
:104DA0000199002008630199282081F83D0008E05E
:104DB0000199202081F83D000199002081F83E00F2
:104DC000FFE70198FCF74EFFFFE704B080BD00004D
:104DD00080B584B00390039890F83D008DF80B00E7
:104DE000039890F83E008DF80A009DF80A001028FC
:104DF00005D0FFE79DF80A0040280CD1FFE79DF899
:104E00000B00222807D1FFE703980168086820F407
:104E100000600860FFE79DF80B0000F028002828DC
:104E200008D1FFE70399002008630399282081F83F
:104E30003D001AE003980068406800F40060B0F597
:104E4000006F0ED0FFE79DF80B00602809D0FFE748
:104E50000399202081F83D000399002081F83E004D
:104E6000FFE7039900200863FFE7039800684068A4
:104E7000000500285DD5FFE703980168486820F425
:104E8000006048600398406B90F8350001281DD001
:104E9000FFE70398416B44F67940C0F600000865CF
:104EA0000398406BFBF7BEFE78B1FFE703980168FB
:104EB000086820F0010008600399202081F83D0077
:104EC0000398406B016D8847FFE731E00398816BE1
:104ED00044F67940C0F6000008650398806BFBF744
:104EE000A1FE20B3FFE703980068406900F040018D
:104EF0000120B0EB911F0BD1FFE703980068006918
:104F00000399496A08700399486A01304862FFE7CB
:104F100003980168086820F00100086003992020C8
:104F200081F83D000398806B016D8847FFE7FFE73C
:104F300045E0039890F83D00602826D1FFE70399EB
:104F4000202081F83D000399002008640398006840
:104F5000406900F040010120B0EB911F0BD1FFE749
:104F60000398006800690399496A08700399486AC0
:104F700001304862FFE703980168086820F00100EB
:104F800008600398FCF7BEFB18E0039800684069CE
:104F900000F040010120B0EB911F0BD1FFE7039817
:104FA000006800690399496A08700399486A0130EA
:104FB0004862FFE70398FCF755FEFFE7FFE7039819
:104FC000006C01909DF80400C00790B9FFE70198BC
:104FD00000F0020002280CD0FFE7019800F0040066
:104FE000042806D0FFE79DF804000007002807D535
:104FF000FFE703980168486820F4E0604860FFE735
:10500000039890F83D008DF80B000398006C400762
:10501000002818D5FFE79DF80B00282813D1FFE7DB
:1050200003990020CFF6FF70C8620399002008633F
:10503000039A202182F83D10039981F83E000398DD
:10504000FCF766FFFFE704B080BD000082B000906F
:1050500000980068406900F480610120B0EB912F56
:105060001ED1FFE7009801686FF4806048610099E5
:1050700000200863009A202182F83D10009981F8F1
:105080003E000099086C40F004000864FFE70099B6
:10509000002081F83C00FFE701208DF8070003E0C5
:1050A00000208DF80700FFE79DF8070002B0704769
:1050B00080B582B001900198C06A00900198408D3F
:1050C000042815D1FFE701980168486820F4806042
:1050D00048600198006800690199496A087001995F
:1050E000486A013048620199488D01384885ACE032
:1050F0000198408D032824D1FFE701980168486892
:1051000020F480604860009804280BD0FFE70098E6
:10511000022807D0FFE701980168086820F4806042
:105120000860FFE70198006800690199496A087002
:105130000199486A013048620199488D01384885D3
:1051400082E00198408D02286ED1FFE70098012887
:1051500004D0FFE70098102807D1FFE70198016805
:10516000086820F4806008601CE00098042804D0DF
:10517000FFE70098022807D1FFE701980168086857
:1051800040F4806008600CE00098102807D0FFE72A
:1051900001980168086840F40070086000E0FFE7CB
:1051A000FFE7FFE70198006800690199496A087004
:1051B0000199486A013048620199488D0138488553
:1051C0000198006800690199496A08700199486A64
:1051D000013048620199488D01384885019801687D
:1051E000486820F4407048600199202081F83D0013
:1051F000019890F83E0040280AD1FFE7019900206D
:1052000081F83E00019908630198FCF78DFE0AE0E1
:105210000199002081F83E0001991220086301984D
:10522000FCF77AFEFFE70EE001980068006901993B
:10523000496A08700199486A013048620199488DAD
:1052400001384885FFE7FFE7FFE702B080BD0000B7
:1052500080B582B00190019890F83D00222840F07E
:105260009380FFE70198408D0090009804281BD39D
:10527000FFE70198006800690199496A087001997F
:10528000486A013048620199488D01384885019883
:10529000408D032807D1FFE701980168486820F492
:1052A00080604860FFE76EE00198C06A022868D01D
:1052B000FFE70098012804D0FFE70098002860D19C
:1052C000FFE7019801F09CF8D0BBFFE70198016867
:1052D000086820F48060086001980168486820F43C
:1052E000E06048600198006800690199496A0870A7
:1052F0000199486A013048620199488D0138488512
:105300000199202081F83D00019890F83E00402846
:105310000AD1FFE70199002081F83E000199086356
:105320000198FCF701FE0AE00199002081F83E0097
:105330000199122008630198FCF7EEFDFFE71FE0DA
:1053400001980168486820F4E060486001980068AE
:1053500000690199496A08700199486A01304862F8
:105360000199488D013848850199202081F83D0038
:105370000199002081F83E000198FCF773FCFFE7DB
:1053800000E0FFE7FFE7FFE702B080BD80B582B035
:1053900001900198C06A0090019890F83D00212882
:1053A00060D1FFE70198408D70B1FFE70198016877
:1053B000406A007808610199486A013048620199A1
:1053C000488D013848854CE0009808281ED0FFE73A
:1053D000009820281AD0FFE7009810F5803F15D0DC
:1053E000FFE701980168486820F4E060486001998F
:1053F000112008630199002081F83E0001992020C6
:1054000081F83D000198FCF78BFD29E001980168C7
:10541000486820F4E060486001980168086840F43A
:10542000007008600199002008630199202081F82C
:105430003D00019890F83E00402808D1FFE701990F
:10544000002081F83E000198FCF772FD07E0019909
:10545000002081F83E000198FCF762FDFFE7FFE7BE
:10546000FFE700E0FFE702B080BD000080B584B038
:105470000390039890F83D008DF80B00039890F886
:105480003E008DF80A000398C06A01900398008DD1
:10549000002852D1FFE79DF80B0021284DD1FFE7EE
:1054A000019808281ED0FFE7019820281AD0FFE7AE
:1054B000019810F5803F15D0FFE703980168486810
:1054C00020F4E060486003991120086303990020EC
:1054D00081F83E000399202081F83D000398FCF7F5
:1054E0001FFD29E003980168486820F4E0604860E7
:1054F00003980168086840F4007008600399002070
:1055000008630399202081F83D00039890F83E003D
:10551000402808D1FFE70399002081F83E00039856
:10552000FCF706FD07E00399002081F83E00039890
:10553000FCF7F6FCFFE7FFE735E09DF80B002128BC
:105540000AD0FFE79DF80A0040282AD1FFE79DF81E
:105550000B00222825D1FFE70398408D38B9FFE7DB
:1055600003980168486820F48060486018E0039858
:1055700090F83E00402804D1FFE7039800F052FA6B
:105580000DE003980168406A007808610399486A51
:10559000013048620399488D01384885FFE7FFE7ED
:1055A00000E0FFE7FFE704B080BD000081B000909D
:1055B0000098406CC0B20099096808610098406B7F
:1055C00028B1FFE70098406BC06B48B9FFE700982F
:1055D000806B60B1FFE70098806BC06B38B1FFE76C
:1055E00000980168486840F400604860FFE701B037
:1055F000704700008EB00D900D9890F83E008DF829
:1056000033000D98C06A0B900D98006B0A900D98AE
:1056100090F83D00222840F07C81FFE70D98006D56
:1056200098B9FFE79DF8330040280ED1FFE7FFE768
:10563000002009900D980068406909900D98006855
:10564000806909900998FFE762E10D98006DF0B953
:10565000FFE70D980069B0F5404F18D1FFE7FFE76D
:10566000002008900D980068406908900D98006827
:10567000806908900898FFE70D980168086840F471
:10568000807008600D99086D013008653FE10D9844
:10569000408DA0B9FFE7FFE7002007900D98006854
:1056A000406907900D980068806907900798FFE7A8
:1056B0000D980168086840F40070086023E10D98B7
:1056C000408D012840F09080FFE70B9810F5803F57
:1056D00036D1FFE70D980168086820F48060086003
:1056E0000D98006840680005002814D5FFE70D9864
:1056F0000168086820F480600860FFE700200690D9
:105700000D980068406906900D98006880690690C1
:105710000698FFE713E0FFE7002005900D9800686A
:10572000406905900D980068806905900598FFE72D
:105730000D980168086840F400700860FFE752E0C7
:105740000B98082834D0FFE70B98202830D0FFE7CB
:105750000A98122804D1FFE70B98012828D1FFE707
:105760000B9804280FD0FFE70B9802280BD0FFE717
:105770000B98102807D0FFE70D980168086820F4FF
:105780008060086006E00D980168086840F4806059
:105790000860FFE7FFE7002004900D98006840696B
:1057A00004900D980068806904900498FFE719E060
:1057B0000D980168086820F480600860FFE7002009
:1057C00003900D980068406903900D980068806907
:1057D00003900398FFE70D980168086840F4007093
:1057E0000860FFE7FFE78DE00D98408D022851D15A
:1057F000FFE70B98042815D0FFE70B98022811D07B
:10580000FFE70B9810280DD0FFE70D980168086896
:1058100020F4806008600D980168086840F400601A
:10582000086006E00D980168086840F48060086030
:10583000FFE70D9800684068000500281CD5FFE7C9
:105840000B9810F5803F10D0FFE70B9801280CD083
:10585000FFE70B98082808D0FFE70B98102804D022
:10586000FFE70B98202807D1FFE70D9801684868EB
:1058700040F480504860FFE7FFE7002002900D9859
:105880000068406902900D98006880690290029853
:10589000FFE736E00D980168086840F48060086012
:1058A0000D9800684068000500281CD5FFE70B989C
:1058B00010F5803F10D0FFE70B9801280CD0FFE7D0
:1058C0000B98082808D0FFE70B98102804D0FFE7B2
:1058D0000B98202807D1FFE70D980168486840F42D
:1058E00080504860FFE7FFE7002001900D980068B6
:1058F000406901900D980068806901900198FFE768
:10590000FFE7FFE7FFE70D9900200865FFE7FFE7E6
:105910000DE0FFE7002000900D98006840690090BE
:105920000D980068806900900098FFE7FFE70EB0CF
:105930007047000081B00090009890F83E00402829
:1059400016D1FFE70098006D40B9FFE70098406C62
:1059500000F0FE0000990968086108E00098406CBA
:1059600040F00100C0B2009909680861FFE757E004
:1059700000980069B0F5804F31D1FFE7009890F8AA
:105980003D00212808D1FFE70098406C00F0FE00A0
:1059900000990968086108E00098406C40F0010037
:1059A000C0B2009909680861FFE70098406B28B110
:1059B000FFE70098406BC06B48B9FFE70098806B29
:1059C00060B1FFE70098806BC06B38B1FFE70098CB
:1059D0000168486840F400604860FFE71FE00098F5
:1059E000006D50B9FFE70098406C00F44070C009AA
:1059F000F03000990968086110E00098006D0128F6
:105A00000AD1FFE70098406C00F44070C009F13003
:105A100000990968086100E0FFE7FFE7FFE7FFE79B
:105A200001B0704780B582B00190019890F83D00B8
:105A30008DF803000198006DE8B9FFE70198C06C8C
:105A400001280BD1FFE70198806CC0B20199096869
:105A500008610199086D023008650BE00198806CBF
:105A600080B2000A0199096808610199086D013046
:105A70000865FFE765E00198006D01280BD1FFE79D
:105A80000198806CC0B20199096808610199086D9C
:105A90000130086554E00198006D02284ED1FFE7FF
:105AA0009DF8030022280BD1FFE7019801680868E0
:105AB00040F4807008600199086D013008653CE091
:105AC0000198408D98B1FFE79DF8030021280ED181
:105AD000FFE701980168406A007808610199486A07
