:020000040800F2
:10000000B008002091010008553E0008E92B0008C7
:10001000513E000849050008FD3F000800000000AF
:100020000000000000000000000000005D3E00082D
:100030006D05000800000000593E0008613E000800
:10004000AB010008AB010008AB010008AB010008E0
:10005000AB010008AB010008AB010008AB010008D0
:10006000AB010008AB010008AB010008AB010008C0
:10007000AB010008AB0100084D050008AB0100080A
:10008000AB0100085D050008AB010008AB010008EA
:10009000AB010008AB010008AB010008AB01000890
:1000A000AB010008AB010008AB010008AB01000880
:1000B000AB010008AB0100086D3E0008FD2B0008F5
:1000C000ED2B0008AB010008AB010008AB010008F4
:1000D000AB010008ED3F0008AB010008AB010008D0
:1000E000AB010008AB010008AB01000800F002F80A
:1000F00000F03EF80AA090E8000C82448344AAF184
:100100000107DA4501D100F033F8AFF2090EBAE881
:100110000F0013F0010F18BFFB1A43F0010318473B
:10012000DC730000FC730000103A24BF78C878C16B
:10013000FAD8520724BF30C830C144BF04680C60ED
:10014000704700000023002400250026103A28BF35
:1001500078C1FBD8520728BF30C148BF0B60704739
:100160001FB59DE8030000F0DBF81FBD10B510BD02
:1001700000F068F91146FFF7F3FF04F0B3F800F060
:1001800086F903B4FFF7F2FF03BC00F0B7F90000F3
:100190000948804709480047FEE7FEE7FEE7FEE71B
:1001A000FEE7FEE7FEE7FEE7FEE7FEE70448054957
:1001B000054A064B70470000693E0008ED00000844
:1001C000B0020020B0080020B0040020B0040020DD
:1001D00070B5064600F088F8056806F10B0020F0BF
:1001E0000704B4429CBF002070BD2B466A68BAB1B8
:1001F0001068A04210D304F1080188423CBF506847
:10020000586007D35168101941601168091B0160DB
:1002100058601460101D70BD13465268002AE7D163
:100220002146284600F068F80028DED170BD10B5E0
:10023000203AC0F00B80B1E81850A0E81850B1E89F
:100240001850A0E81850203ABFF4F5AF5FEA027CDE
:1002500024BFB1E81850A0E8185044BF18C918C00E
:10026000BDE810405FEA827C24BF51F8043B40F8AF
:10027000043B08BF7047D20728BF31F8023B48BF94
:1002800011F8012B28BF20F8023B48BF00F8012BD2
:1002900070474FF0000200B5134694469646203949
:1002A00022BFA0E80C50A0E80C50B1F12001BFF42F
:1002B000F7AF090728BFA0E80C5048BF0CC05DF895
:1002C00004EB890028BF40F8042B08BF704748BFE3
:1002D00020F8022B11F0804F18BF00F8012B704757
:1002E00070477047704700000048704720000020AA
:1002F000704770477047704738B504460A4600207B
:100300006946AFF30080002808BF38BD0246009957
:10031000204600F075F8012038BD012000F08AB8B1
:10032000F8B5AFF30080054600200C46102000BF52
:100330000646A819A0420DD9324669460020AFF3FF
:100340000080070008BF00F075F80098A04218BFB1
:100350000546C419FFF7C8FF05600746F01D20F0E9
:1003600007004619284600F00AF8B44208BFF8BD55
:10037000A21B31463868BDE8F84000F041B80021C2
:100380000160C0E9011070471020704770B5044645
:10039000051FFFF7A9FF0068002C14BF446870BD5B
:1003A000002C18BFAC423CBF20466468F8D30168FB
:1003B0000A18AA4218BF456003D12A6805461144AD
:1003C000016028684119A1421CBF6C6070BD616862
:1003D000696021680844286070BD10B500F00CF811
:1003E000006810BD10B5044600F006F8046010BDAA
:1003F000004870471800002000487047180000208F
:10040000034640688C46002818BF88423CBF03461C
:100410004068F8D318681844884207D00CF10300EC
:1004200020F00700001D411A521A0146081D0A60FB
:10043000FFF7ACBF10B500F039F8BDE8104000F090
:100440002FB870477546FFF7D3FFAE4605006946E3
:10045000534620F00700854618B020B5FFF7A6FEEA
:10046000BDE820404FF000064FF000074FF00008B5
:100470004FF0000BAC46ACE8C009ACE8C009ACE8F2
:10048000C009ACE8C00921F007018D46704710B5DE
:100490000446AFF300802046BDE81040FFF771BE70
:1004A000002801D000F02AB87047000010B50128DC
:1004B00005D0002103A000F027F8012010BD09A1FC
:1004C000F8E7000053494752544D454D3A204F75C7
:1004D00074206F662068656170206D656D6F72793C
:1004E000000000003A2048656170206D656D6F72F4
:1004F0007920636F72727570746564000149182009
:10050000ABBEFEE72600020070B505460C460A2089
:1005100000E06D1C00F011F835B128780028F8D102
:1005200002E0641C00F009F814B120780028F8D12A
:10053000BDE870400A20AFF3008008B569468DF829
:1005400000000320ABBE08BDFEE7000080B540F20E
:100550005410C2F2000000F087F880BD80B540F270
:100560001010C2F2000000F07FF880BD704700005C
:10057000EFF3108072B600BFFEE70000014690F86E
:100580002100022813D10868D1E90FC3026822F0C4
:100590000E020260026822F001020260012000FAED
:1005A00003F2CCF8042081F82100002002E00420AE
:1005B00088630120002281F82020704780B590F8E0
:1005C0002110022923D10268116821F00E01116067
:1005D0002F211368C4F202018A4240F20401C4F2DE
:1005E000020123F00103136015DD3023C4F202037E
:1005F0009A421CD04423C4F202039A421AD05823D0
:10060000C4F202039A421AD14FF480331FE004214E
:100610008163012080BD0823C4F202039A420CD0FA
:100620001C23C4F202039A4209D110230FE04FF4B5
:1006300080730CE04FF4805309E0012307E001F1DF
:10064000680C4FF08073624508BF4FF480130B6055
:10065000416B4FF48072028401B18847002080BD55
:1006600090F821007047000010B5D0E90FCE016866
:10067000DCF800300A6823FA0EF35C0724D512F088
:10068000040421D00A68920603D40A6822F0040206
:100690000A602F22C4F20202914240F20402C4F224
:1006A000020253DD3023C4F20203994266D0442390
:1006B000C4F20203994264D05823C4F2020399425F
:1006C00064D14FF4802369E09C0727D512F002041F
:1006D00024D00A68920606D40A6822F00A020A6048
:1006E000012280F821202F22C4F20202914240F21E
:1006F0000402C4F2020235DD3023C4F2020399423F
:1007000050D04423C4F2020399424ED05823C4F27D
:10071000020399424ED14FF4003353E01B0758BFF8
:1007200010BD12F0080210D00A6822F00E020A6012
:10073000012101FA0EF2CCF804208163016B4FF421
:1007400080720029028418BF884710BD0823C4F2B4
:100750000203994218D01C23C4F20203994215D116
:1007600040231BE00823C4F20203994220D01C233B
:10077000C4F2020399421DD1202323E04FF4806389
:100780000CE04FF4804309E0042307E002F1680421
:100790004FF08063A14208BF4FF480031360C16A29
:1007A000B9B9D2E74FF400730CE04FF4005309E0FD
:1007B000022307E002F168044FF00073A14208BF72
:1007C0004FF400131360816A0022002980F8202072
:1007D000BBD0884710BD0000002804BF012070472F
:1007E0002DE9F04101684FF6F872CBF6FD724CF638
:1007F000CD430A44CCF6CC43A2FB03236FF003079E
:1008000007EA93030027C4F2020700F1040E00F187
:100810001008C0E90F739EE8045098E870010B6857
:1008200043F6F077BB431A4342EA0C0242EA0E0257
:1008300022432A43324342EA08020A6000214FF46D
:10084000807281630284BDE8F04108467047000071
:10085000F0B590F820C0BCF1010F2FD090F821C066
:100860004FF0010EBCF1010F80F820E023D14FF0D2
:10087000020C80F821C04FF0000CC0F838C0D0E95D
:1008800000C4C56AC66BDCF80070102C27F00107A5
:10089000CCF80070006C0EFA00F070600846CCF8DE
:1008A000043004BF10460A46CCF80800CCF80C20EF
:1008B00035B10E200BE0002180F820100220F0BDA1
:1008C000DCF8000020F00400CCF800000A20DCF87E
:1008D00000100843CCF80000DCF8000040F00100F4
:1008E000CCF800000020F0BDB0B5044600F01EF9C1
:1008F000054640F21000C2F200000078611C18BFEB
:10090000044400BF00F012F9401BA042FAD3B0BD6E
:100910002DE9F04F82B041F20042C4F201020E68AC
:100920000423904208BF0323002E009300F0EC80C4
:1009300040F20C4E40F2004CC4F2010E0022C4F210
:10094000010C01244FF0000A4FF000093FE001259F
:1009500002F00C040F27A7402BEA070705FA04F45E
:100960003C4343F826404E68F303DCF8003054BFA4
:1009700023EA080343EA0803CCF80030DCF804302B
:10098000B40354BF23EA080343EA0803CCF8043055
:10099000F402DCF8083054BF23EA080343EA0803F2
:1009A000B402CCF80830DEF800304FF0010454BF38
:1009B00023EA080343EA0803CEF800300E680AF180
:1009C000010A36FA0AF302F1040200F09D8004FAEB
:1009D0000AFB16EA0B08F1D04B684FF6FF75C1F21F
:1009E0001005AB4210DC122B50D8DFE803F0330ABD
:1009F00041454F4F4F4F4F4F4F4F4F4F4F4F4F4826
:100A00004C00D1F80C9041E04FF6FF75C1F2210582
:100A1000AB420FDC0025C1F21105AB421AD0002514
:100A2000C1F21205AB4215D00025C1F22105AB423F
:100A300010D02BE00025C1F22205AB420AD00025E0
:100A4000C1F23105AB4205D00025C1F23205AB42FF
:100A50001CD100BF8B6843B1012B14BFC0F814B088
:100A6000C0F810B04FF0080910E04FF004090DE095
:100A7000CB6803F1080909E04FF0000906E0CB68F4
:100A800003F1040902E0CB6803F10C0913460546A3
:100A9000B8F5807F24BF203B04352E680F279F4088
:100AA000BE4309FA03F333432B60CB79DB067FF5B2
:100AB00085AF41F21804C4F2020423684FEA9A0693
:100AC00043F001032360236840F6000403F00103B0
:100AD0000193019BACF57E7353F826B0C4F2010478
:100AE000A0420FD040F60044C4F20104A0423FF4FB
:100AF0002EAF41F20004C4F20104009DA04208BFE1
:100B0000022525E7002523E702B0BDE8F08F0000AD
:100B1000C26802EA0103914341EA0341016170475F
:100B2000002A08BF090401617047000040F2A820B4
:100B3000C2F2000000687047704700007047000074
:100B4000F0B581B00446006800254669426894F813
:100B50003E1002F48077F20508D53FB16FF4807241
:100B600042610268012542F400420260B20505D5E7
:100B7000002F1EBF02356FF400724261720516D558
:100B8000AFB1628D94F83D30D4F830C0202908BF51
:100B9000002A1DD06FF48062402905F104054261EE
:100BA00001D0102903D1016841F4007101603005C2
:100BB00005D527B1206808356FF4006141612DB17A
:100BC000206C28432064204602F092F801B0F0BD6A
:100BD00003F0F702212A04D0282B08BFBCF1210F13
:100BE000D8D194F83D10E26AB2F1080318BF01238E
:100BF000203A18BF0122134208BF28291CD02129FE
:100C000034D10021CFF6FF71E1622121216320213F
:100C100084F83D10002184F83E10416821F4E06121
:100C200041606FF480614161016821F4806101607D
:100C3000204600F09BFFBAE70021CFF6FF71E1628A
:100C4000416821F4E06141606FF4806141610168B5
:100C500021F48061016000202021206384F83D1090
:100C600084F83E00204600F0CFFBA0E76FF48061DF
:100C700041619CE7F0B581B0076804467868E26A94
:100C800094F83E3094F83DE0402B01D0102B0CD16D
:100C9000BE697D69E90733D1B2F12A4F00F04F8276
:100CA000B2F52A0F00F04B822CE0216C00F40073A7
:100CB00000290CBFBE6900267D69A9073BD5D3B3C7
:100CC000206C002818BFBE6994F83D0000F0280091
:100CD000282840F08D80786820F4806078600120BA
:100CE00020EA960130064FF0180058BF0C20225A17
:100CF000002084F83C002046FFF720FF01B0F0BD43
:100D0000810542D4290700F4007C44D5BCF1000FD2
:100D100041D0606B616CC9B2396118B1806A00283A
:100D200040F0D280A06B002800F00982806A002881
:100D300040F0CA8003E2E90665D5002B63D094F841
:100D40003D50786820F4E060786000200090786979
:100D50000090386840F0010038600098386820F44E
:100D6000806038607868000540F1458105F0F70043
:100D70002646222840F01E8156F8380F016849683F
:100D800026F80E1C36F80E1C1CE1E06AB0F52A0F9E
:100D90006CD101206FE0A90740F19C80BCF1000FED
:100DA00000F0988094F83E30E06A226B94F83D1091
:100DB000222940F0A880216D002908BF402B00F0B7
:100DC000A280216D002940F092812169B1F5404F48
:100DD00040F08D810020009078690090B869009003
:100DE0000098386840F480703860206D013036E239
:100DF0000020009079690091B9690091009984F808
:100E00003C0001B0F0BD0EF0F701212940F08480D4
:100E1000290605F0040240F1358110F4806000F0ED
:100E20003181002A40F02E8194F83D00618D002927
:100E300000F08581616A11F8012B3A616162618D70
:100E400001396185618D002908BF292840F077812B
:100E5000786820F48060786021202063282084F85E
:100E60003D00204600F082FE01B0F0BDE06AB0F126
:100E70002A4F01D10820E06294F83E0040280AD1B0
:100E8000206D616C002801F0FE0018BF40F00100E9
:100E9000386101B0F0BD2069B0F5804F68D194F899
:100EA0003D00616C212801F0FE0118BF013139615C
:100EB000606B08B1806A38B9A06B002800F03F81F0
:100EC000806A002800F03B81786840F40060786018
:100ED00001B0F0BD7968720701F4006156D40029B1
:100EE00040F02D81690605F0040140F1198110F4EC
:100EF000806000F01581002940F01281204602F048
:100F000017F801B0F0BD0020009078690090B86932
:100F10000090009801B0F0BD690605F0040240F1B0
:100F2000BD8010F4806000F0B980002A40F0B680E7
:100F300094F83D00618D002900F001813969626AF1
:100F40001170616A01316162618D01396185618D64
:100F5000002908BF2A2840F0F2802068416821F467
:100F60008061416022202063282084F83D00B9E0A0
:100F7000206D002800F0A480206D012840F0DF8063
:100F8000606C062101EAD010F13081E7002940F0C1
:100F9000D680290605F0040140F1CC8010F4806071
:100FA00000F0C880002940F0C580204602F086F895
:100FB00001B0F0BD56F8340F0168496826F80A1CE4
:100FC00036F80A1C19B1216C41F0040121647968DA
:100FD00021F400617960FFF743FB01280BD03068F2
:100FE00042F61141C0F600014163FFF7E7FA10B184
:100FF0003068416B8847608DF8B1206841694907C6
:1010000008D50069616A0870606A01306062608DAD
:101010000138608520684169490608D50069616A20
:101020000870606A01306062608D01386085608D93
:1010300018B1206C40F004002064206C20B12046E0
:1010400001F056FE01B0F0BD2A2D07D1002020632B
:10105000282084F83D00204600F086FD94F83D00ED
:10106000282833D10020CFF6FF70E0620020202135
:10107000206384F83D1084F83E00204600F0C4F957
:1010800001B0F0BD002A18BF002B58D0608D002899
:1010900055D0606A10F8011B39610BE0002A18BFB7
:1010A000002B4CD0608D002849D03869616A0870E7
:1010B000606A01306062608D0138608501B0F0BD0A
:1010C000606C062101EAD010F030E1E6206B2228A6
:1010D00018BF222D33D100202021206384F83D1039
:1010E00084F83E00204600F03FFD01B0F0BD618D68
:1010F00051B1618D012924D1202818BF082857D16A
:10110000386820F480603860002000907869009092
:10111000B86900900098386840F4007038609DE02D
:10112000002918BFBCF1000F09D0204601F08CFE49
:1011300001B0F0BD002918BFBCF1000F19D101B0FA
:10114000F0BD618D02291CD110285BD80121142229
:101150008140C0F20102114254D0396841F48061EB
:1011600039600021009179690091B9690091009975
:1011700057E0BEF1210F2AD1204601F05BFF01B0FC
:10118000F0BD396841F480613960796809055ED540
:10119000421E1F2A58D80121914048F28102C8F20C
:1011A0000002114250D0786840F4805078604EE0E0
:1011B00010F5803F12D1386820F48060386078687C
:1011C0000005A1D5386820F4806038603FE0402BEE
:1011D000B5D1204601F0D0FF01B0F0BD122A02D1F6
:1011E00001287FF48DAF1028ECD8012101FA00F01E
:1011F0001421C0F201010842E4D0386840F4806054
:10120000386024E0396841F40061396000210091C0
:1012100079690091B96900910099396821F4806178
:1012200039607968090519D5421E1F2A1AD801218B
:10123000914048F28102C8F20002114212D078684F
:1012400040F48050786009E010F5803FABD000207A
:10125000009078690090B86900900098002020659F
:1012600001B0F0BD10F5803FE9D0F7E7704700000E
:10127000F0B581B0B0B3044690F83D0028B9002025
:1012800084F83C00204600F003FC242084F83D0054
:101290002068016821F001010160016841F400410A
:1012A0000160016821F40041016000F0F7FD48F29F
:1012B0008041C0F21E0140F60012656888424FF07E
:1012C0000001C0F23D0248F2A16C4FF0000338BFAC
:1012D00001219042C0F2010C38BF0123654538BF9F
:1012E0000B4613B1012001B0F0BD4DF68361C4F28D
:1012F0001B31A0FB011221684FEA924E4B684FF45C
:10130000967623F03F0343EA92434B6044F6D3536F
:101310000F6A0EFB06F6C1F26203A6FB033627F046
:101320003F03B709654538BF970C7A1C1A430A6218
:10133000CA6948F2A0674CF6FF73C0F20107BD42CC
:1013400022EA030C0AD801386A00B0FBF2F001303F
:101350006FF31F30042898BF04202BE0A368A0F18E
:10136000010E9BB119206843BEFBF0F0042201304E
:1013700062F31F30000512D09BB119206843BEFBF9
:10138000F0F00422013062F31F3011E005EB45005C
:10139000BEFBF0F001306FF31F300005ECD10120EF
:1013A00008E005EB4500BEFBF0F001306FF31F30A5
:1013B00040F4004040EA0C00C8610868D4E9072303
:1013C00020F0C000104318430860886848F2FF32DC
:1013D00004F10C0790438CCF18431043A669886032
:1013E000C86820F0FF0038433043C860086840F008
:1013F0000100086000202021206484F83D10206353
:1014000084F83E0001B0F0BD704700007047000056
:101410007047000070470000704700002DE9F04F52
:1014200085B004460020984617460E460490FFF704
:101430007DFB94F83D10202920D1DDE90EBA054648
:101440002068806910F0020914D0FFF76FFB401B81
:101450001A28F5D300202021206384F83D1084F859
:101460003E00216CB9F1000F41F02001216484F8A5
:101470003C0003D194F83C00012803D1022005B0C0
:10148000BDE8F08F0121206884F83C100168C9078D
:1014900003D1016841F0010101600168DDF840906D
:1014A00021F400610160222084F83D00402084F88E
:1014B0003E0000202064C4F824B0A4F82AA0608D67
:1014C000314620850020CFF6FF70E06220463A4684
:1014D0004346CDF80090019501F0A2FE18B101201D
:1014E00005B0BDE8F08F208D022810D0012824D04F
:1014F000002838D100200390206841690391816958
:1015000003910399016841F40071016037E020689C
:10151000016841F400610160EFF3108072B60020B1
:1015200003902068416903918169039103990168DF
:1015300021F48061016062B621E02068016821F435
:1015400080610160EFF3108072B600200390206884
:1015500041690391816903910399016841F4007124
:10156000016062B60BE02068016841F480610160AF
:101570000021039141690391806903900398208DB4
:10158000002800F0048140F200064BF2895A4FF027
:10159000010B09F10107C2F20006C1F2F84A042862
:1015A00018D202283DD0012840F07D802068416992
:1015B000490600F1DB804169C90600F1EF80FFF7C1
:1015C000B5FAB9F1000F00F0F580401B4845EDD9A0
:1015D000F0E000BF2068416949060DD44169C906A1
:1015E00000F1DC80FFF7A2FAB9F1000F00F0E28011
:1015F000401B4845EED9DDE02068616A006908704B
:10160000606A228D0130013A606222852168628D14
:10161000013A62854A69520740F1B5800969017053
:10162000A8E02068D046406910F0040024D18BEA7D
:10163000900A06E02068406910F004008BEA900AE6
:101640001AD1002FF6D0FFF771FAB9F1000F02D0CE
:10165000401B4845EED900212020216384F83D003D
:1016600084F83E10206C40F0200020645FEACA70CD
:1016700084F83C107FF433AFEFF3108072B620682B
:10168000616A0268C24642F4007202600069087032
:10169000606A218D01306062481E2085608D0138AE
:1016A000608562B662E02068B046406910F00400D0
:1016B00023D18BEA900606E02068406910F0040010
:1016C0008BEA900619D1002FF6D0FFF72FFAB9F167
:1016D000000F02D0401B4845EED900212020216395
:1016E00084F83D0084F83E10206C40F02000206417
:1016F000F00784F83C107FF4F2AE2068464601689B
:1017000021F480610160EFF3108072B62068616A95
:1017100000690870606A218D01300139606221859D
:10172000618D01396185D8F80010C908A1FB0A1242
:10173000110A232251430491049901390491049917
:10174000002949D021684A695207F5D50A6842F450
:1017500000720A6009690170606A218D013060625F
:10176000481E2085608D0138608562B62068616AF8
:1017700000690870606A218D01306062481E208512
:10178000608D01386085208D00287FF408AF20200F
:1017900084F83D00002084F83E0017E06FF010014F
:1017A000416100202021206384F83D1084F83E0030
:1017B000206C09E000202021206384F83D1084F88B
:1017C0003E00206C40F0200020640120002184F8BD
:1017D0003C1005B0BDE8F08F00202021206384F884
:1017E0003D1084F83E00206C40F02000206462B67A
:1017F0000120EBE7F0B581B00025009590F83D5051
:10180000202D23D140F20005C2F200052D684BF2D5
:101810008954ED08C1F2F844A5FB0454DDE90657EC
:10182000240A192666430096009E013E0096009EFB
:101830007EB1D0F800E0DEF81860B607F4D490F876
:101840003C60012E15D14FF0020C53E04FF0020C1A
:1018500050E000212022016380F83D2080F83E10F6
:10186000026C4FF0010C42F02002026480F83C1040
:1018700040E0012680F83C60DEF80060F60705D104
:10188000DEF8006046F00106CEF80060DEF8006089
:101890004FF0000C26F40066CEF80060222680F897
:1018A0003D60402680F83E60C0F840C045624785F4
:1018B000448D0025CFF6FF750485C56241648264BE
:1018C000C364C0F850C0DEF8001041F48061CEF867
:1018D0000010DEF8001041F48071CEF8001080F89E
:1018E0003CC03CB1DEF804004FF0000C40F4E06076
:1018F000CEF80400604601B0F0BD00002DE9F04FC5
:1019000083B0994616460F460446FFF70FF994F840
:101910003D10202922D1DDF83880DDF830B00546B1
:101920002068806910F0020A14D0FFF7FFF8401B0E
:101930001A28F5D300202021206384F83D1084F874
:101940003E00216CBAF1000F41F02001216484F8BF
:101950003C0003D194F83C00012803D1022003B0DD
:10196000BDE8F08F0121206884F83C100168C907A8
:1019700003D1016841F0010101600168324621F4A0
:1019800000610160212084F83D00402084F83E0081
:10199000002020640D98C4F824B06085608D39461D
:1019A00020850020CFF6FF70E06220464B46CDF840
:1019B0000080019501F05CFD18B1012003B0BDE885
:1019C000F08F208DA8B308F1010600BF206850F801
:1019D000141F09060FD40168490540D4002EF5D024
:1019E000FFF7A4F8B8F1000F4FF020013BD0401BE7
:1019F0004045EBD937E0606A2168034613F8012BB4
:101A00000A61228D6362531E2385678D013F6785BE
:101A10004F697F070AD51B0408D0437802300B6159
:101A20006062901E2085608D01386085208D0028C1
:101A3000CCD1204641462A4601F004FEF8B9206880
:101A4000016841F400710160202084F83D0000200D
:101A500084F83E0084F83C0003B0BDE8F08F6FF4DA
:101A600080610160042100202022206384F83D2051
:101A700084F83E00226C1143216484F83C00206C01
:101A800004289AD12068016841F40071016094E74C
:101A900070B586B00446006845F20041C4F200010A
:101AA000002688420596CDE90366029601D006B06D
:101AB00070BD41F21805C4F20205286802A940F081
:101AC00008002860286800F00800019001984FF491
:101AD00040700290122003900320059040F60040D1
:101AE000C4F20100FEF714FF0420C4F201000168F3
:101AF0004FF4405241F0E06141F00201016068683A
:101B0000802140F400106860686840F2101500F40D
:101B10000010019001988020C2F20005C4F202007A
:101B2000C5E900062846C5E90261C5E90466C5E9BC
:101B30000662FEF751FE002818BFFEF719FD1F20B0
:101B400000210022A5636C6200F08EF81F2000F0D7
:101B50007BF820200021002200F086F8202000F0F1
:101B600073F806B070BD00007047000070470000B9
:101B700040F2100040F2A821C2F20000C2F20001BF
:101B800000780A68104408607047000080B542F28F
:101B90000000C4F20200016841F01001016003205E
:101BA00000F08EF80F2000F005F800F02BF8002070
:101BB00080BD0000B0B540F21002C2F2000240F257
:101BC00000011278C2F200014FF47A730968B3FB86
:101BD000F2F20446B1FBF2F1084600F01FFB0F2CB5
:101BE0004FF001050CD858B94FF0FF3021460022C4
:101BF000002500F039F840F21400C2F20000046041
:101C00002846B0BD82B041F21800C4F2020001685B
:101C1000022241F001010160016801F0010101911E
:101C20000199416841F080514160406800F0805066
:101C3000009000980420C4F20100016862F31A6168
:101C4000016002B070470000002848BF704700F0F4
:101C50001F01012202FA01F14EF200124009CEF2F8
:101C6000000242F82010704710B54EF60C5CCEF220
:101C7000000CDCF80030C3F3022E8EF00704042CB5
:101C800028BF0424BEF103034FF0FF3E0EFA04F414
:101C900038BF0023A14399400EFA03F39A4300F0A2
:101CA0000F03043B1143634409010C3300F160420C
:101CB000B0F1FF3FC8BF02F56443197010BD0000CA
:101CC0004EF60C51CEF200010A684FF6FF031A409F
:101CD00060F30A2242F0806040F0FD7008607047B7
:101CE0002DE9F04381B0002800F0858042F2000821
:101CF000C4F202080446D8F800000D4600F00700C0
:101D000088420CD2D8F8000020F007002843C8F819
:101D10000000D8F8000000F00700A8426BD120684E
:101D200041F204098107C4F2020917D5410705D51C
:101D3000D9F8001041F4E061C9F80010010705D599
:101D4000D9F8001041F46051C9F80010D9F800101A
:101D5000A26821F0F0011143C9F80010C00741D179
:101D6000D8F8000000F00700A8420CD9D8F800000D
:101D700020F007002843C8F80000D8F8000000F061
:101D80000700A84237D12068410707D5D9F80010CD
:101D9000E26821F4E0611143C9F80010000708D59A
:101DA000D9F80000216920F4605040EAC100C9F868
:101DB0000000D9F8002002F00C00082841F20020B1
:101DC000C0F27A004ED147F2EA43C2F38341C0F633
:101DD0000003595CD20339D440F60010C0F23D0034
:101DE00048433FE06068022809D0012829D159F80A
:101DF000041C890307D4012001B0BDE8F08359F821
:101E0000041C8901F7D5D9F8001021F0030108431B
:101E1000C9F80000FEF78AFE064641F2883700BF87
:101E2000D9F80000616800F00C00B0EB810F97D08A
:101E3000FEF77CFE801BB842F2D9032001B0BDE85A
:101E4000F08359F8041C8907D5D5DCE7D9F80020C0
:101E500047F2D043C2F34042C0F600039A5C4843C5
:101E6000B0FBF2F0D9F8001047F2D242C1F30311EF
:101E7000C0F60002515C40F2000220FA01F140F28B
:101E80001400C2F200000068C2F200021160FFF705
:101E900091FE002001B0BDE8F083000040F2000098
:101EA00041F20401C2F20000C4F2020100680968B4
:101EB00047F2E242C1F30221C0F60002515CC84081
:101EC0007047000040F2000041F20401C2F200003D
:101ED000C4F202010068096847F2E242C1F3C2217C
:101EE000C0F60002515CC840704700002DE9F04187
:101EF00082B0002800F0D7800446007841F2000646
:101F0000C007C4F2020644D0706800F00C00042838
:101F100017D0706800F00C00082802D17068C00368
:101F20000FD465682DB1B5F5A02F10D0B5F5803F61
:101F300011D0306820F480303060306820F4802088
:101F40000CE03068800324D5606810BBABE03068DB
:101F500040F480203060306840F480303060FEF71C
:101F6000E5FD002D054611D03068800311D4FEF741
:101F7000DDFD401B6428F7D916E100BFFEF7D6FD52
:101F8000401B64284FF0030000F28A803068800311
:101F9000F4D42078800718D5706810F00C0F07D0A3
:101FA000706800F00C00082827D17068C00324D4A2
:101FB0003068800702D52069012874D130686169D2
:101FC00020F0F80040EAC1003060207800074FD5CB
:101FD000A06940B30020C4F242200121C0F880145F
:101FE000FEF7A4FD054600BF706A80072DD4FEF7FA
:101FF0009DFD401B0228F7D9D6E02069002840F259
:102000000000C4F2422000F0A68001210160FEF72A
:102010008DFD054630688007D0D4FEF787FD401B54
:102020000228F7D9C0E00020C4F242200021C0F805
:102030008014FEF77BFD0546706A800718D5FEF711
:1020400075FD401B0228F7D9AEE040F20000C2F255
:102050000000006844F6D351C1F26201A0FB010107
:10206000480A019000BF0198411E00280191F9D152
:10207000207840071BD4E5698DB1706800F00C0032
:10208000082846D1012D0ED07068216A00F48032F4
:102090008A4208D1616A00F47010884203D100209E
:1020A00002B0BDE8F081012002B0BDE8F081F06926
:1020B00010F0805808D1F06940F08050F061F0696C
:1020C00000F080500090009847F20007C4F200072B
:1020D0003868C0050FD4386840F480703860FEF767
:1020E00025FD05463868C00505D4FEF71FFD401BD9
:1020F0006428F7D958E0E5681DB1052D3CD0012DC5
:102100003ED0306A20F001003062306A20F00400D6
:1021100039E00027C4F2422700203866FEF706FDAA
:10212000022D05460CD100BF3068800154D5FEF762
:10213000FDFC401B02284FF00300F5D9B0E700BFBB
:1021400030688001ABD5FEF7F1FC401B02284FF050
:102150000300F5D9A4E700210160FEF7E7FC05467E
:10216000306880077FF531AFFEF7E0FC401B0228A6
:102170004FF00300F4D993E7306A40F00400306276
:10218000306A40F001003062FEF7D0FC002D0546B9
:1021900041F2883714D000BF306A800713D4FEF7AD
:1021A000C5FC401BB842F7D9032002B0BDE8F0815E
:1021B000FEF7BCFC401BB8424FF003003FF670AF87
:1021C000306A8007F4D4B8F1000F7FF454AFF0699F
:1021D00020F08050F0614EE7206AB0F5803F05D1D5
:1021E0007168A26821F40031114371607168626AFC
:1021F00021F4741110430843706001203866FEF723
:1022000095FC0446306880013FF549AFFEF78EFC2F
:10221000001B02284FF00300F4D941E7411E0020C3
:10222000B0EB116F1CBF012070474EF21002CEF2CE
:10223000000251604EF62351CEF20001F0230B70E4
:1022400007219060116070477047000070470000E0
:1022500010B590F83C20012A4FF0020231D0012342
:1022600080F83C3080F83D200268D2F804E0D2F8D3
:1022700008C00C682EF07003234340F2FF74C4F2D0
:102280000004A242536005DCB2F1804F0ED040F250
:10229000004307E042F60043C4F201039A4205D02E
:1022A00040F60003C4F200039A4204D149682CF0BE
:1022B0008003194391600121002280F83D1080F8CD
:1022C0003C20104610BD0000002804BF01207047CC
:1022D00010B5044690F83D0028B9002084F83C0071
:1022E000204600F05DF8022084F83D00206840F2AE
:1022F000FF730268C4F2000342F6004C9842C4F235
:10230000010C05DCB0F1804F0AD040F2004103E03F
:10231000604505D040F60001C4F20001884203D1B7
:10232000A16822F070020A43984205DCB0F1804FA8
:102330000AD040F2004103E0604505D040F60001BC
:10234000C4F20001884203D1216922F440720A4399
:10235000A36922F08001D4F804E0E26819436045E3
:102360000160C262C0F828E002D16169CCF8301087
:1023700001214161002084F8461084F83E1084F861
:102380003F1084F8401084F8411084F8421084F81B
:10239000431084F8441084F8451084F83D1010BDB3
:1023A00080B582B0006840F60001C4F200018842A6
:1023B00001D002B080BD41F21C00C4F202000168ED
:1023C000002241F00401016000680F2100F00400C8
:1023D000019001981E20FFF747FC1E20FFF734FCF8
:1023E00002B080BD90F83D1001291CBF012070474C
:1023F000022180F83D10006840F2FF72C168C4F20B
:102400000002904241F00101C16005DCB0F1804F53
:102410000ED040F2004107E042F60041C4F2010153
:10242000884205D040F60001C4F20001884206D17E
:10243000816801F00701062904BF00207047016888
:1024400041F00101016000207047000080B590F864
:102450003C20012A4FF0020200F0C080012380F8E6
:102460003C3080F83D20D0F800C04FF67772DCF8A1
:10247000083023EA0202CCF808200B683F2B1CDD51
:102480005F2B20DD602B4FD0B3F5005F6CD0702B3D
:1024900040F09E80D1E901E3C968DCF8082043EAF6
:1024A0000E0322F47F4243EA01211143CCF80810C5
:1024B000DCF8081041F0770188E01F2B28DC5BB3C3
:1024C000102B29D084E0402B61D0502B40F080802D
:1024D000D1F804E0C968DCF82030DCF8202022F0D4
:1024E0000102CCF82020DCF8182022F0F00242EAA9
:1024F000011123F00A0242EA0E02CCF81810CCF8BF
:102500002020DCF8081041F0570121F020015DE0A7
:10251000202B01D0302B5BD1DCF8081021F07001AA
:10252000194341F0070151E0D1F804E0C968DCF833
:10253000203023F01003CCF82030DCF81830DCF821
:10254000202023F4704322F0A00243EA013142EA42
:102550000E12CCF81810CCF82020DCF8081041F04E
:10256000670121F0100131E0D1E901E3C968DCF82D
:10257000082043EA0E0322F47F4243EA012111437B
:10258000CCF80810DCF8081041F480411EE0D1F8C6
:1025900004E0C968DCF82030DCF8202022F00102D9
:1025A000CCF82020DCF8182022F0F00242EA0111D9
:1025B00023F00A0242EA0E02CCF81810CCF82020D0
:1025C000DCF8081041F0470121F03001CCF8081088
:1025D0000121002280F83D1080F83C20104680BD8B
:1025E0007047000010B5044600680169890744BFC0
:1025F000C1685FEA817138D420680169490744BF26
:10260000C1685FEA41713CD420680169090744BF91
:10261000C1685FEA017141D420680169C90644BFFD
:10262000C1685FEAC16145D420680169C9071CBF60
:10263000C1685FEAC1714AD120680169090644BFD7
:10264000C1685FEA016149D420680169490644BF55
:10265000C1685FEA416148D420680169890644BFC6
:10266000C1685FEA816147D410BD6FF0020101616A
:10267000012121778069800745D02046FFF7B0FF10
:1026800047E06FF00401016102212177806910F4B5
:10269000407F41D02046FFF7A3FF43E06FF00801E1
:1026A000016104212177C06980073ED02046FFF7F1
:1026B00097FF40E06FF01001016108212177C069A8
:1026C00010F4407F3AD02046FFF78AFF3CE06FF0DD
:1026D00001010161204600F03FF8ADE76FF0800195
:1026E00001612046FFF7B0FDAEE76FF040010161E8
:1026F000204600F033F8AFE76FF02001016120467B
:10270000FFF7A4FD10BD204600F022F8204600F09F
:1027100021F8002020776FE7204600F019F82046C6
:1027200000F018F8002020776EE7204600F010F83F
:10273000204600F00FF8002020776DE7204600F0DB
:1027400007F8204600F006F8002020776CE700002C
:10275000704700007047000070470000704700009D
:102760007047000070470000B0B582B001680546B0
:102770000868CB684C6900F02F02202A03F0200281
:1027800005D122B1284601F0D7FB02B0B0BD5FEA07
:10279000007C1EBF04F0010E03F4907414EB0E04D1
:1027A00063D12A6B012A05D110F0100218BF13F073
:1027B000100235D1020622D513F080021FD095F801
:1027C0003D0021282AD1A868B0F5805F03D128698F
:1027D000002800F0EC80286A421C2A6200784860D9
:1027E000E88C01380204E88418D1C86820F0800021
:1027F000C860C86840F04000C86002B0B0BD400684
:102800000CD513F0400009D0C86820F04000C86023
:10281000202085F83D00284600F0E2F902B0B0BD66
:10282000002001900868019048680190019848696B
:10283000400622D4A88DEA8DEB8D002B1CBF801A98
:102840005FEA0042EAD0CA6822F49072CA604A691C
:1028500022F001024A61202285F83E2000222A63EC
:10286000CA6822F01002CA602EE0C10718BF13F434
:1028700080712FD1410733D439E0A86B02685268C8
:1028800093B2002BCAD0AC8DA342C7D2EA8582692D
:10289000202A16D0CA6822F48072CA604A6922F0DF
:1028A00001024A614A6922F040024A61202285F809
:1028B0003E2000222A63CA6822F01002CA60FDF797
:1028C0005DFEA88DE98D401A81B22846FFF748FFCA
:1028D00002B0B0BD296C41F001012964410706D561
:1028E000BEF1000F03D0296C41F002012964810779
:1028F00006D5BEF1000F03D0296C41F00401296414
:10290000BCF1000F06D552EA0E0103D0296C41F04C
:1029100008012964296C00293FF480AF10F02000E1
:1029200018BF002A02D0284601F006FB286841693A
:102930002A6C01F0400102F0080289182BD0C1680E
:1029400021F49071C160416921F001014161296B5D
:10295000012903D1C16821F01001C160202185F84F
:102960003E1000212963416949061BD5416921F0C8
:1029700040014161A86BA8B143F68161C0F6000136
:102980004163FDF71BFE00283FF448AFA86B416B85
:10299000884702B0B0BD2846FFF7E4FE0020286457
:1029A00002B0B0BD2846FFF7DDFE02B0B0BD286A18
:1029B00030F8022B6FF35F224A60286210E70000B4
:1029C000002804BF0120704710B5044690F83D0070
:1029D00028B9002084F83C00204600F05FF824204D
:1029E00084F83D002068D4E90212C36823F4005340
:1029F000C360036923F440531A430261D4E90423FA
:102A00001143C268194341F20C639A431143C160F8
:102A10004169A26921F44071114343F60002C4F2F6
:102A200001029042416102D0FFF738FA01E0FFF75E
:102A300049FA6268192148439100B0FBF1F048F26D
:102A40001F51C5F2EB11A0FB01235A096FF063037C
:102A500002FB0300322303EB0010A0FB0101F02373
:102A600003EA5113206803EB0212C1F3431111442E
:102A70008160016921F490410161416921F02A01DD
:102A80004161C16841F40051C160002020212064EF
:102A900084F83D1084F83E1010BD0000F0B585B0FC
:102AA00040F600050446C4F20105006805F54051F2
:102AB000002788420497CDE90277019701D005B03D
:102AC000F0BD41F21800C4F20200016801AE41F409
:102AD00080410160016801F4804100910099016822
:102AE00041F0040101600068314600F004000090EC
:102AF00000984FF40070019002200290032004908F
:102B00002846FDF705FF4FF48060CDE90107284610
:102B100031460397FDF7FCFE40F254154420C2F203
:102B20000005C4F202001021802285E883002846B7
:102B3000C5E90327C5E90577EF61FDF74DFE0028DC
:102B400018BFFDF715FD25200021002265636C628A
:102B5000FFF78AF82520FFF777F805B0F0BD0000F1
:102B60007047000070B5044690F83D00202808D159
:102B70004FF0010589B313467AB394F83C0001285D
:102B800001D1022070BD012084F83C0000252120E5
:102B90002162A384E384256484F83D002268606B8D
:102BA00043F6017C43F62D7E43F69166C0F6000C99
:102BB000C0F6000EC0F600060432C0E90ACEC0E935
:102BC0000C65FDF745FE20686FF04001016084F858
:102BD0003C50416941F080014161284670BD0000D0
:102BE0007047000070470000FEE7000080B540F22B
:102BF0009810C2F20000FDF7A3FF80BD80B540F23F
:102C00009810C2F20000FEF735F800F0D1FD80BD4B
:102C100010B582B000210191406A40F20001C2F279
:102C2000000190F83DC009684BF28952C908C1F211
:102C3000F842A1FB0212110A23225143019100BF65
:102C4000019939B101990139019101680968890532
:102C5000F6D403E0016C41F020010164446B4FF0B5
:102C6000000E002C1CBF0021A162816B00291CBF3B
:102C700000228A620268002C136823F480631360C8
:102C8000A0F82AE018BFC4F834E000291CBF0023D4
:102C90004B63116821F00101116090F83D1060292B
:102CA0000AD1202180F83D10002180F83E100164F7
:102CB000FDF742FF02B010BD0CF0280128290DD10C
:102CC000116841F001011160116841F480611160E7
:102CD00000210163282180F83D1005E0202180F8C3
:102CE0003D10002180F83E10FEF7C0FA02B010BD82
:102CF00010B5044690F83D0094F83E10B1F1100272
:102D000018BF0122403918BF01210A4208BF2228FA
:102D100004D121680A6822F400620A6000F02801E8
:102D2000282905D100202063282084F83D000DE0EB
:102D300021684968090507D4602805D0202084F857
:102D40003D00002084F83E00002020632068416898
:102D500009051AD494F83D10602935D1202184F852
:102D60003D10002121644169490605D50069616A69
:102D70000870606A013060622068016821F001011A
:102D800001602046FDF7D8FE3EE0416821F4006175
:102D90004160606B90F82110012922D1A06B42F6AE
:102DA0001141C0F600014163FDF708FC60B32068E3
:102DB0004169490605D50069616A0870606A013099
:102DC00060622168A06B16E04169490605D500697B
:102DD000616A0870606A013060622046FEF746FA58
:102DE00012E042F61141C0F600014163FDF7E6FB37
:102DF00050B12168606B0A6822F001020A6020214C
:102E000084F83D10416B8847206C000704D020688F
:102E1000416821F4E061416094F83D00216C49076C
:102E200010D5282818BF10BD0020CFF6FF70E06233
:102E300000202021206384F83D1084F83E002046C5
:102E4000FEF7E2FA10BD000080B5C16A428D042A87
:102E500007D10168426A4B6823F480634B600969BB
:102E600011E0428D032A16D102680229536823F427
:102E70008063536005D0042903D0116821F4806178
:102E800011601169426A1170416A01314162418DDC
:102E90000139418580BD428D022A11D101390F29A6
:102EA00016D8DFE801F008101510151515151515C1
:102EB00015151515150801680A6822F480620BE0E3
:102EC0000168426ACBE701680A6842F4806203E065
:102ED00001680A6842F400720A600168426A09697E
:102EE0001170416A02684B1C4362438D013B43856C
:102EF00012694A70416A026801314162418D0139AB
:102F00004185516821F440715160202180F83D10C5
:102F100090F83E200021402A80F83E1003D1016342
:102F2000FEF778FA80BD12210163FEF76FFA80BDCB
:102F300080B582B090F83D10222972D1418D0429CC
:102F400013D30168426A09691170416A0131416213
:102F5000418D01394185418D032962D10068416865
:102F600021F48061416002B080BDC26A022A58D05B
:102F7000012956D80021019140F20001C2F200015E
:102F800009684BF28952C908C1F2F842A1FB02124A
:102F9000110A01EB81010191019901390191019916
:102FA00021B1026812689205F6D403E0026C42F087
:102FB000200202640268F9B1116821F48061116095
:102FC000516821F4E06151601169426A1170416AEF
:102FD00001314162418D01394185202180F83D1048
:102FE00090F83E200021402A80F83E101BD101635A
:102FF000FEF710FA02B080BD516821F4E061516023
:103000001169426A1170416A01314162418D013991
:103010004185202180F83D10002180F83E10FEF708
:1030200025F902B080BD12210163FEF7EFF902B06D
:1030300080BD000080B5C16A90F83D20212A18BFEC
:1030400080BD428D4AB1416A026811F8013B1361AB
:103050004162418D0139418580BD11F5803F18BF26
:10306000082919D101684A6822F4E0624A600A68B6
:1030700042F400720A6000212022016380F83D20A2
:1030800090F83E2080F83E10402A02D1FEF7C4F9A5
:1030900080BDFEF7BDF980BD2029E3D001684A68F4
:1030A00022F4E0624A6011210163002180F83E10A1
:1030B000202180F83D10FEF7ABF980BD80B590F877
:1030C0003D1090F83EC0C26A038D002B08BF212935
:1030D00010D0212905D0BCF1400F08BF222900D013
:1030E00080BD418D11B390F83E10402924D100F0ED
:1030F00043F880BD12F5803F18BF082A29D1016826
:103100004A6822F4E0624A600A6842F400720A6087
:1031100000212022016380F83D2090F83E2080F8B5
:103120003E10402A12D1FEF777F980BD0068416851
:1031300021F48061416080BD416A026811F8013B61
:1031400013614162418D0139418580BDFEF760F90F
:1031500080BD202AD3D001684A6822F4E0624A6028
:1031600011210163002180F83E10202180F83D10DC
:10317000FEF74EF980BD000080B590F83D10026D5D
:103180003AB1026D012A0FD10168826CD2B20A6194
:103190001AE0C26C816C012A12D10268C9B21161B5
:1031A000016D0231016580BD026D022A18BF80BD2C
:1031B00022290DD101680A6842F480720A6003E096
:1031C0000268C1F307211161016D0131016580BD04
:1031D000428D5AB1212909D1416A026811F8013B97
:1031E00013614162418D0139418580BD428D002AC4
:1031F00008BF212900D080BD01684A6822F4E0623E
:103200004A600A6842F400720A60002120220163C9
:1032100080F83D2080F83E10FEF7FEF880BD0000EB
:103220002DE9F04F83B00446006899460368904644
:1032300043F4806202600268DDF834A042F48072D8
:10324000026040690C9E10F001008B4624D180F092
:103250000105771C07E000BF2068406910F00100FD
:1032600080F0010518D1002FF6D0FDF75FFC1EB1EC
:10327000A0EB0A00B042EFD900202021206384F89F
:103280003D1084F83E00216C41F020012164E907E3
:1032900084F83C0040F0A78020680BF0FE0707612F
:1032A000416989072BD44169490513D4751C00BFB6
:1032B0004DB1FDF73BFC002E00F0CE80A0EB0A00E4
:1032C000B04200F2C98020684169890717D441697A
:1032D0004905EDD5016841F4007101606FF480612A
:1032E000416100202021206384F83D1084F83E00D5
:1032F000216C41F00401216484F83C0096E0002038
:103300000290206850F8141F0291416802910299BE
:103310000168090617D4751C05E000BF206850F845
:10332000141F09060FD40168490567D4002DF5D094
:10333000FDF7FCFB002E4FF0200163D0A0EB0A004C
:10334000B042EBD95EE0B9F1010F1ED020684FEA20
:103350001821016150F8141F090616D4751C04E0E9
:10336000206850F8141F09060FD40168490545D498
:10337000002DF5D0FDF7DAFB002E4FF0200141D0F3
:10338000A0EB0A00B042EBD93CE020685FFA88F17C
:10339000016150F8141F090616D4751C05E000BF22
:1033A000206850F8141F09060ED40168490525D479
:1033B000002DF5D0FDF7BAFB4FF0200116B3A0EBBE
:1033C0000A00B042ECD91DE02068002201683346B3
:1033D00041F48071016020464FF00111CDF800A04A
:1033E00000F066F930B320680068C00544BF4FF4B0
:1033F00000702064032003B0BDE8F08F6FF480619B
:103400000160042100202022206384F83D2084F8FC
:103410003E00226C1143216484F83C00206C042897
:1034200004D12068016841F400710160012003B0FB
:10343000BDE8F08F206847F0010101610221C0F270
:10344000010120463246534600F06CF9002818BFAF
:10345000012003B0BDE8F08F00202021206384F814
:103460003D1084F83E00216C41F0200143E700004C
:103470002DE9F04F81B00446006890460268DDF8FF
:103480002CB042F48072026040690A9E994610F0A6
:1034900001008A462ED180F00107751C07E000BFAD
:1034A0002068406910F0010080F0010722D1002D52
:1034B000F6D0FDF73BFB1EB1A0EB0B00B042EFD9FD
:1034C00000202021206384F83D1084F83E00216C08
:1034D00041F020012164F90784F83C000AD02068FB
:1034E0000068C00544BF4FF400702064032001B0A1
:1034F000BDE8F08F20680AF0FE010161416989078B
:103500002BD44169490513D4771C00BF4FB1FDF797
:103510000DFB002E00F08A80A0EB0B00B04200F201
:10352000858020684169890717D441694905EDD52F
:10353000016841F4007101606FF480614161002015
:103540002021206384F83D1084F83E00216C41F076
:103550000401216484F83C0064E0002000902068AD
:1035600050F8141F00914168009100990168090604
:1035700016D4771C05E000BF206850F8141F090618
:103580000ED40168490535D4002FF5D0FDF7CEFAE9
:103590004FF0200196B3A0EB0B00B042ECD92DE028
:1035A000B9F1010F1ED020684FEA1821016150F8CF
:1035B000141F090616D4771C05E000BF206850F8D8
:1035C000141F09060ED40168490513D4002FF5D045
:1035D000FDF7ACFA4FF0200186B1A0EB0B00B04232
:1035E000ECD90BE020685FFA88F10161002001B09E
:1035F000BDE8F08F6FF4806101600421002020227B
:10360000206384F83D2084F83E00226C114321643D
:1036100084F83C00206C042804D12068016841F43F
:1036200000710160012001B0BDE8F08F0020202171
:10363000206384F83D1084F83E00216C41F02001A5
:1036400087E70000F0B581B004460068154650F8E1
:10365000143F5A0715D40E464F1C04E0206850F85A
:10366000141F49070DD4016849050DD4002FF5D06A
:10367000FDF75CFA4FF0200156B1401BB042EDD986
:1036800006E0002001B0F0BD6FF48061016004210C
:1036900000202022206384F83D2084F83E00226C24
:1036A0001143216484F83C00012001B0F0BD00000A
:1036B0002DE9F047DDF820801D469146824601F451
:1036C0007F078EB25C1C00BFDAF80000B7F5803FC0
:1036D00014BF1830143000683040801BB0FA80F0FE
:1036E000400948451BD1002CEED0FDF71FFA1DB153
:1036F000A0EB0800A842E7D900202021CAF830003A
:103700008AF83D108AF83E00DAF8401041F02001B6
:10371000CAF840108AF83C000120BDE8F08700207C
:10372000BDE8F0872DE9F0410446006898464369FA
:103730008FB203EA0701B94202D10020BDE8F0814F
:103740004169490514D41646551C00BF45B1FDF723
:10375000EDF94FF020019EB1A0EB0800B0420FD868
:10376000206841693940B942E7D041694905EDD542
:10377000016841F4007101606FF4806141610421CE
:1037800000202022206384F83D2084F83E00226C33
:103790001143216484F83C000120BDE8F081000061
:1037A00040F2DC01C2F20001087800220A70704782
:1037B00040F29C20C2F20000006890F83D102029E1
:1037C00008D140F27821C2F200010A78012A04BF30
:1037D00002220A7090F83D00202818BF704740F27E
:1037E0007920C2F200000178012904BF0221017092
:1037F0007047000040F27A21C2F2000108780022EE
:103800000A7070472DE9F04F85B040F2F00BC2F21C
:10381000000B0D46DBE900120646401A65EB02017B
:1038200041F29412801A40F29C2940F2782A40F228
:10383000792440F2CC0871F10000C2F20009C2F212
:10384000000AC2F20004C2F2000819D3D9F800003D
:10385000002790F83D10202913D19AF8001081B963
:10386000217871B90E21CDE90081D0213B220123BD
:103870000127FDF7BFFF8AF80070CBE9006500E083
:10388000002740F2802BC2F2000BDBE9000143F677
:103890009822301A65EB0101801A71F1000019D3EA
:1038A000D9F8000090F83D10202913D1217889B96A
:1038B0009AF8001071B90721CDE90081182103227F
:1038C00001234FF00109FDF795FF023784F80090BE
:1038D000CBE900659AF80000022840F060810020E2
:1038E0008AF8000098F8000098F80110000200B271
:1038F0000844049703F0E0FA40F27801C2F20001B4
:10390000D1F800B0CBF8000098F8020098F8031046
:10391000000200B2084403F0CFFA40F28001C2F284
:103920000001D1F800A0CAF8000098F8040098F847
:103930000510000200B2084403F0BEFA40F288010C
:10394000C2F200010F68386098F8080098F8091072
:10395000000200B2084403F0AFFA40F29001C2F254
:103960000001D1F80090C9F8000098F80A0098F812
:103970000B10000200B2084403F09EFA40F29C01D2
:10398000C2F200010E68306098F80C0098F80D1033
:10399000000200B2084403F08FFA40F2A801C2F21C
:1039A00000010C6800212060DBF80000C4F2FA611D
:1039B00020F0004003F046F940F2A025C2F20005D5
:1039C000A0B9DAF80000002120F00040C4F2FA614A
:1039D00003F038F950B93868002120F00040C4F2F3
:1039E000FA6103F03DF9002840F058812868017819
:1039F00041F004010170D9F80000002120F00040DE
:103A0000C4F2FA6103F01EF9039698B930680021F8
:103A100020F00040C4F2FA6103F014F950B92068B4
:103A2000002120F00040C4F2FA6103F019F90028E7
:103A300040F039812868017841F002010170DBF81B
:103A4000000003F039F849F69A1549F69916C9F6B7
:103A50009915C4F299062A46334602F0E7FA02F0B5
:103A6000F7F9CBF80000DAF8000003F025F82A4651
:103A7000334602F0DBFA4CF6CD424CF6CC43CCF6A2
:103A8000CC42CBF6CC7302F015FA45F2EC124EF6AE
:103A90008533C1F6B862C3F6EF7302F02FFD02F072
:103AA000D7F9CAF80000386803F006F82A4633460A
:103AB00002F0BCFA49F69913CBF6E9732A4602F0F4
:103AC000F9F943F658124BF67663CCF6B402C3F616
:103AD000EF7302F013FD02F0BBF93860D9F8000073
:103AE00002F0EAFF46F2666AC4F2400A4FF066321C
:103AF000534602F09BFA064640F20400C2F2000070
:103B000000680F4602F0D8FF02460B4630463946A1
:103B100002F0E4FE02F09CF9039DC9F80000286859
:103B200002F0CAFF4FF06632534602F07FFA0646B3
:103B300040F20800C2F2000000680F4602F0BCFF2D
:103B400002460B463046394602F0C8FE02F080F9C4
:103B50002860206802F0B0FF4FF06632534602F052
:103B600065FA054640F20C00C2F2000000680E46FD
:103B700002F0A2FF02460B462846314602F0AEFE96
:103B800002F066F9049F206040F2DC0040F27924E4
:103B9000C2F2000001210437C2F200040170207853
:103BA000022877D10020207098F8010098F80010C2
:103BB000000200B2084403F07FF940F2B401C2F2FF
:103BC00000010E68306098F8030098F802100002B7
:103BD00000B2084403F070F940F2BC01C2F20001E7
:103BE0000D68286098F8050098F80410000200B2EB
:103BF000084403F061F940F2C401C2F200010C680C
:103C0000002120603068C4F2962102F081FF02F0AA
:103C100053FF4EF20D024FF6A003C9F22D02C3F678
:103C2000EB7302F06BFC02F013F93060286802F0CD
:103C300043FF0023CCF20403002202F03BF945F6D7
:103C4000707245F21913CCF60762C3F6EC7302F0FA
:103C500055FC02F0FDF82860206802F02DFF46F2C6
:103C60000003CCF25C03002202F024F949F60F4273
:103C700043F2B473CAF23322C3F6EC7302F03EFC93
:103C800002F0E6F8206040F27A20C2F20000012142
:103C900008370170384605B0BDE8F08F2868017814
:103CA00001F0FB01A6E62868017801F0FD01C5E6F8
:103CB0002DE9F04F85B040F29C2BC2F2000BDDF8ED
:103CC0003880DDF85090CBF800000A201C461546DD
:103CD0000E464FF00A0AFCF707FE7821DBF80000D9
:103CE0008DF80C10012703A9CDE90017D02123225C
:103CF0000123CDF808A0FDF701FE0021DBF800004C
:103D00008DF80D100DF10D01CDE90017D0216B22BA
:103D10000123CDF808A0FDF7F1FD0721DBF8000035
:103D20008DF80E100DF10E01CDE90017D0211922EA
:103D30000123CDF808A0FDF7E1FD1021DBF800001C
:103D40008DF80F100DF10F01CDE90017D0211B22C6
:103D50000123CDF808A0FDF7D1FD0221DBF800001A
:103D60008DF8101004A9CDE90017D02137220123C6
:103D7000CDF808A0FDF7C2FDDBF800000DF1110140
:103D8000CDE90017182100220123CDF808A0FDF786
:103D900045FB0120FCF7A8FDDBF800000DF1120146
:103DA000CDE9001718210B2201238DF81270CDF8F0
:103DB00008A0FDF7A3FD1621DBF800008DF8131015
:103DC0000DF11301CDE9001718210A220123CDF8C6
:103DD00008A0FDF793FD40F2A020C2F20000C0F859
:103DE000009040F27800C2F20000066040F28000CD
:103DF000C2F20000056040F28800C2F200000460D8
:103E000040F29000C2F20000C0F8008040F29C0036
:103E10000F99C2F20000016040F2A8001099C2F2AE
:103E20000000016040F2B4001199C2F2000001608C
:103E300040F2BC001299C2F20000016040F2C400DE
:103E40001399C2F20000016005B0BDE8F08F0000D8
:103E5000FEE70000FEE7000070470000704700002A
:103E600080B5FDF785FE80BD7047000080B501F08C
:103E7000CDF940F2EC10C2F20000FEF7B3FB80BDBA
:103E800080B5406A0021C185C184FEF76BFC80BD0E
:103E900080B5406A01684A6990F83D30212B0BD10A
:103EA00012F0800208D00022C284CA6822F0C00248
:103EB000CA60202280F83D204A6990F83E30222BCB
:103EC00017D112F0400214D00022C285CB6823F42F
:103ED0009073CB604B6923F001034B61036B012BA3
:103EE00003D1CB6823F01003CB60202180F83E1073
:103EF0000263016C41F010010164FEF733FC80BDE8
:103F000080B50168406A096889060BD40021C18424
:103F10000068416921F080014161C16841F04001C0
:103F2000C16080BDFEF75CFE80BD000080B5406AC8
:103F3000FEF758FE80BD000080B582B090F83E10BC
:103F400022291ED18268B2F5805F02D10169002961
:103F500040D0816AB2F5805F07D00AB9026922B108
:103F60000268526802F07F0201E0026852680A703B
:103F70000121826A11448162C18D01390A04C1851F
:103F800001D002B080BD0168CA6822F02002CA6078
:103F9000CA6822F48072CA604A6922F001024A614A
:103FA000202280F83E20026B012A1BD100220263EE
:103FB000CB6823F01003CB600B68DB0605D50192BC
:103FC0000A680192496801910199818DFEF7C8FB49
:103FD00002B080BD0168826A49686FF35F21118079
:103FE0000221C6E7FEF7BCFD02B080BD80B540F2FD
:103FF0003420C2F20000FEF7B7FB80BDFEE70000F0
:104000002DE9F04F83B040F20400C2F20000002717
:10401000076040F20800C2F20000076040F20C00A6
:1040200040F2CC0B46F2666AC2F20000C2F2000B0C
:10403000C4F2400A076000BF40F29C20C2F20000B8
:1040400000680E210191D0213B2201234FF47A76A2
:10405000CDF800B00296FDF7E1F99BF808009BF857
:104060000910000200B29BF80A909BF80B800844EC
:1040700002F0A1F94FF06632534601F0D7FF40F24B
:104080000404C2F20004054620680E4602F014FD46
:1040900002460B462846314601F00CFF01F0D8FEDF
:1040A00020604FEA092000B2404402F084F94FF04A
:1040B0006632534601F0BAFF40F20804C2F200042F
:1040C000054620680E4602F0F7FC02460B462846DD
:1040D000314601F0EFFE01F0BBFE9BF80C102060B2
:1040E00008029BF80D1000B2084402F064F94FF08A
:1040F0006632534601F09AFF40F20C04C2F200040B
:10410000054620680E4602F0D7FC02460B462846BC
:10411000314601F0CFFE01F09BFE20600520FCF748
:10412000E3FB632F07F1010786D340F20405C2F2D7
:10413000000500242868C4F2C824214602F0AAFD24
:1041400040F20806C2F2000631682860084621469F
:1041500002F0A0FD40F20C05C2F2000529683060B3
:104160000846214602F096FD286003B0BDE8F08FB6
:104170002DE9F04FB5B0CDE901012BA803210122B3
:1041800001F016F821A80321032201F011F817A865
:104190000321012201F00CF80DA80321012201F0F6
:1041A00007F803A80321012201F002F840F27C0A7B
:1041B00040F2840B40F28C0440F2C00940F2C8087F
:1041C0000027C2F2000AC2F2000BC2F20004C2F2DF
:1041D0000009C2F2000802E00120FCF785FB01F0B3
:1041E00005F8FFF70FFBFFF7DBFA0028F4D017AE56
:1041F000DAF8000062CE02F08BFCDBF800101790BA
:104200000846294602F084FC216818900846314689
:1042100002F07EFC1990FFF7EDFAB8B140F2B80059
:10422000C2F2000003AE006862CE02F071FCD9F861
:10423000001003900846294602F06AFCD8F80010E6
:1042400004900846314602F063FC0590632F07F1A5
:104250000107C4D3029C4DF20A7217A8CBF6234281
:10426000214600F0BFFC204600F068FF80F00040CF
:104270000DAF2BAE0F9020463946324600F04CFB76
:104280003046314600F0D2FC2046394600F08EFB25
:104290000546384600F052FF0746204600F04EFF24
:1042A0000146384602F09CFE0146284602F0F2FC28
:1042B00002F002FC01F0CAFB01F0CAFD21AD02468A
:1042C0002846314600F0D8FD2846019D29462A4659
:1042D00000F0C8FB28462146224600F0C3FB35B05B
:1042E000BDE8F08FE8B0FDF751FC5BAC204628211B
:1042F000FBF7CFFF01205B905F904FF4E0100025AB
:104300004FF480310226649020465495CDE95255F1
:10431000CDE95055CDE95C15CDE96261FDF7E6FDCB
:1043200018B1EFF3108072B6FEE70F20CDE950060A
:104330004FF48060CDE9530550A802215295FDF756
:10434000CFFC20B1EFF3108072B600BFFEE741F260
:1043500018060025C4F20206CDE95D55CDE95B558E
:10436000306841F2000740F0100030603068C4F25D
:10437000010700F010005090509830684FF4005141
:1043800040F0200030603068002200F020005090A3
:10439000509830684FF4005440F0040030603068AA
:1043A00000F0040050905098306840F008003060F1
:1043B000306800F00800509050983846FCF7B0FB89
:1043C000A7F580694846402100224FF04008FCF7DD
:1043D000A7FB11205B94CDE95C0502205BAC5E90ED
:1043E00038462146FCF794FA0120CDE95C00032011
:1043F0005E9048462146CDF86C81FCF789FA40F280
:104400009810A7F53C41C2F2000041F680224FF41B
:104410008043C0F2060280E82600C0E90353C0E9E9
:104420000555C0E90755FCF723FF20B1EFF31080D5
:1044300072B600BFFEE756F8040C002140F0010000
:1044400046F8040C56F8040C002200F001005B90C2
:104450005B980E20FDF708FC0E20FDF7F5FB112000
:1044600000210022FDF700FC1120FDF7EDFB41F2D9
:104470000000C4F2010000F5205140F23420C2F2E5
:1044800000000C234FF4E13280E82600C0E9035518
:10449000C0E90535C561FEF793FA20B1EFF310804E
:1044A00072B600BFFEE741F20000C4F20100A0F5C1
:1044B000843240F2EC100021C2F200002F234FF4AE
:1044C0007A77CDE95D11CDE95B11CDE95011C0E9F5
:1044D0000023C0E9021701618161FDF7F5FE20B1FB
:1044E000EFF3108072B600BFFEE74FF480505B9090
:1044F00040F2EC10C2F200005BA9FDF7A7FF20B16B
:10450000EFF3108072B600BFFEE70020CDE9500047
:1045100040F2EC10C2F2000050A9FDF799FE20B164
:10452000EFF3108072B600BFFEE740F2EC104AF2E3
:104530000021C2F20000C0F24A4100F079FE40F2D0
:10454000C80040F2C00140F2B80240F2AC03C2F22F
:104550000000C2F20001C2F20002C2F2000340F207
:10456000DD0740F2A00640F29405CDE90232CDE924
:10457000041040F2981040F27C0140F2840240F2B4
:104580008C03C2F20007C2F20006C2F20005C2F2BA
:104590000000C2F20001C2F20002C2F20003CDE943
:1045A00000560697FFF784FB5BA80321012200F069
:1045B000FFFD50A80321012200F0FAFD46A80321C7
:1045C000012200F0F5FD3CA80321032200F0F0FDDC
:1045D0000DF1C80A5046032100F00EFA28A8032165
:1045E000012200F0E5FD1EAC20460321012200F06F
:1045F000DFFD14A80321012200F0DAFD0AA803213F
:10460000012200F0D5FD2046002100224FF07E530C
:10461000002500F04BFD48F20001C4F2AC31204609
:1046200000F014FD4FF4FA70FCF75EF941F200005F
:10463000C4F201004FF40051FCF76AFA9620FCF72F
:1046400053F9092D05F10105F0D341F20004C4F23C
:10465000010420464FF400510022FCF761FA4FF4A8
:104660007A70FCF741F920464FF400510122FCF723
:1046700057FAFFF7C5FC28A95046FFF779FD40F22D
:10468000E000C2F2000000F0F5FD0DF5CB7040F245
:10469000A42B40F28C2500270138C2F2000BC2F295
:1046A0000005C4F2C827089009E000BF286801305F
:1046B000286040F20010C2F2000000F0EFFD484612
:1046C0004021FCF725FA00F091FDFFF79BF8FFF77A
:1046D00067F8012840F0B18040F27C00C2F200008F
:1046E00003685BAC20460021002200F0DFFC40F2B2
:1046F0008400C2F20000036820460121002200F07D
:10470000D5FC40F28C00C2F2000003682046022172
:10471000002200F0CBFC204600F010FD40F2F80132
:1047200040F2E004C2F20001C2F200040860204638
:1047300000F0B4FD206802F0D7FB42F20041C4F65D
:10474000741102F0A7FA40F29401C2F200010E685F
:1047500040F29801C2F2000109688346304602F037
:10476000D7F94FF07C5102F03BFC0146584602F06D
:1047700037FC40F2A001C2F200010D6840F2A40132
:10478000C2F2000109680990284602F0C1F94FF011
:104790007C5102F025FC0146584602F021FC40F213
:1047A000AC01C2F20001D1F8008040F2B001C2F2C7
:1047B000000109684C468146404602F0A9F94FF0D5
:1047C0007C5102F00DFC0146584640F2A42BC2F287
:1047D000000B02F005FC034640F29800C2F2000014
:1047E000066040F2A400C2F20000056040F2B00092
:1047F000C2F200003CAD0999C0F8008028464A4644
:10480000A14600F05BFA5046294640F28C255246FC
:10481000C2F2000500F026F95BAE50463146324642
:1048200000F020F928AC50462146324600F052FDF7
:1048300030462146324600F049FCFEF7DBFF0128F6
:1048400026D140F2B800C2F20000036846AC204610
:104850000021002200F02AFC40F2C000C2F2000059
:10486000036820460121002200F020FC40F2C8002D
:10487000C2F20000036820460221002200F016FC6C
:10488000204600F05BFC40F28821C2F20001086083
:1048900000F0ACFCDBF8001048F2A062411AC0F254
:1048A0000102914226D340F2DD01C2F2000191F8EB
:1048B0000080089C6FF00305CBF800000AEB0500B0
:1048C0004068394602F08CFB02F0DAFA0435202DFC
:1048D00004F8010FF2D140F23420C2F200000DF5CD
:1048E000CB710A228DF89F81FEF73CF940F28C25AE
:1048F000C2F20005286842F2107188427FF4D6AEF9
:1049000041F20000C4F201004FF40051FCF700F93D
:1049100000202860CAE600002DE9F04F81B090F831
:104920002630032B3ED1144691F82620032A39D194
:10493000D1E900B987688E68D0E900A848463946B1
:1049400002F04EFB05464046314602F049FB29463F
:1049500002F012FC05463846594602F041FB074674
:104960005046314602F03CFB0146384602F004FC5A
:1049700006465846414602F033FB07465046494634
:1049800002F02EFB394602F0F7FB40F20311A1843E
:10499000032184F82610C4E90056A060002001B06D
:1049A000BDE8F08F012001B0BDE8F08FF0B581B017
:1049B000044690F82600032816D191F82600032813
:1049C00015D10E1F00256FF0030700BFE0194068E6
:1049D00056F8041F02F004FB294602F099F8043748
:1049E000082F0546F2D104E04FF07E5501E04FF06C
:1049F0007E55284601B0F0BDB0B5032984BF012023
:104A0000B0BD864680F8241080F8251001FB01F027
:104A10008EF8260000290B464FF0000018BF012336
:104A200008BFB0BD4FEA810C09E000BF01308842E9
:104A30004FF0000338BF01238842E64410D0002223
:104A4000744604E00132914204F10404EED0DD0723
:104A5000F8D00025904208BF4FF07E552560F1E761
:104A60000020B0BD2DE9F04F99B090F8259091F855
:104A70002430994540F09B8090F824A091F825407F
:104A800001920246079044EA0A00032812D804FB68
:104A90000AF048B100260FAA00270025013542F888
:104AA0002760EFB2B842F9D88DF860A08DF8614068
:104AB0008DF86200002C2046039118BF0120BAF146
:104AC000000F0290CDF814A018BF4FF0010A72D069
:104AD0004FEA89000490A0000E9000200B900994EA
:104AE0000FE000BF0B99059801314FF0000A0B91C0
:104AF000814238BF4FF0010A079804990844079093
:104B000059D0002CEED09DF860009DF861100A90FD
:104B10000B98002248430690DDE9020B08910AE059
:104B2000099C01320020A24238BF0120DDF830B0DC
:104B30000BF1040BD6D0B9F1000FCDE90CB227D0A0
:104B4000079D80F001080026002700BF5FEACA70B9
:104B50004FF000004FF0000218BF28689E4228BFA7
:104B60000122002142EA08021C46D20708BFDBF8F6
:104B7000001002F035FA394601F0CAFF07460E98D8
:104B800001360435B14583442346DFD101E000BF3F
:104B90000027DDE90A100D9A8842C1D208988242A6
:104BA000BED206980FA9104441F82070B8E7012042
:104BB00019B0BDE8F08F9DF860209DF86110019854
:104BC00080F824204A4380F82510110680F826201A
:104BD00004D0D1B28A000FA9FBF729FB002019B03D
:104BE000BDE8F08F2DE9F04790F826808246B8F1B5
:104BF000000F89460FD01646A9F10407AAF1040553
:104C0000444600BF55F8040F314602F0E9F9013C73
:104C100047F8040FF6D1D14505D0BAF8240089F839
:104C20002680A9F824000020BDE8F0872DE9F04790
:104C3000814690F8260003281CBF0120BDE8F087BC
:104C400091F826008A46032810D02420FBF7C0FAEA
:104C500040F20311AAF8241003218AF82610D0E9A3
:104C600000128068CAE90012CAF80800484600F03D
:104C700065FA01464FF07E5002F00CF899F8268054
:104C8000B8F1000F0FD00646AAF10407A9F10404F9
:104C9000454600BF54F8041F304602F0A1F9013D1B
:104CA00047F8040FF6D1CA4505D0B9F824008AF8B0
:104CB0002680AAF824000020BDE8F0872DE9F04FF7
:104CC00095B0824690F82600092829D140F2033099
:104CD00016460D46ADF850000920012100220BAF09
:104CE00000938DF8520009E0022A02F101024FF010
:104CF000000138BF01210C37032A13D000233846A6
:104D000005E000BF0133032B00F10400ECD0CC0719
:104D1000F8D000249A4208BF4FF07E540460F1E7B7
:104D20000127A4E00DF1040948462421FBF7B1FA5C
:104D300040F20330ADF8280009208DF82A002846FB
:104D400001F0BAFE49F639544DF6467BCAF25224B8
:104D5000C3F6917B22465B4601F0D0FB01F078F868
:104D600001F0AAFE05460F4600F0FCFF01F070F8C6
:104D700080462846394600F0A7FF01F069F84FF059
:104D80007E51019188F0004106AA002782E8820145
:104D90000DF12C08CDE90470099040464946424681
:104DA000CDE90277FFF75EFE304601F085FE224630
:104DB0005B4601F0A3FB01F04BF801F07DFE0646D7
:104DC0000D4600F0CFFF01F043F8814630462946FA
:104DD00000F07AFF01F03CF801A981E881024FF070
:104DE0007E51CDE9051789F000410DF10409CDE9A7
:104DF000071709904046494642460497FFF732FE9E
:104E0000009801F059FE22465B4601F077FB01F065
:104E10001FF801F051FE05460E4600F0A3FF01F019
:104E200017F804462846314600F04EFF01F010F80E
:104E3000019084F00041CDE904404FF07E50CDE96F
:104E400002170990404649464246CDE90677089741
:104E5000FFF708FE0BAE4FCEDDE91054DDF848C079
:104E60008AE84F001398CAE90554CAE907C03846D2
:104E700015B0BDE8F08F00002DE9F04F87B08146F6
:104E800090F82600092840F0DD8091F826000D46B4
:104E9000032840F0D780104601F00EFE06460F466C
:104EA00000F012FF00F0D4FF04463046394600F00F
:104EB00059FF00F0CDFFA968D5E90067CDE90501EC
:104EC0004FF07E50214602F057F93146804602F0FD
:104ED00087F831468246019602F082F82146039413
:104EE00001F016FE99F824B0BBF1000F05D099F837
:104EF0002510002918BFC9F80000DDE9051002F0EF
:104F00006FF806465046394602F06AF8314602F01C
:104F100033F9BBF1000F05D099F82510022928BFFD
:104F2000C9F804000699404602F05AF8059904466B
:104F3000384602F055F8054604942046019C214667
:104F400002F04EF82946029501F0E2FDBBF1000F98
:104F500005D099F82510032928BFC9F80800504644
:104F6000394602F03DF8314601F0D2FDBBF1020FA7
:104F700005D399F82510002918BF49F821004046AB
:104F8000394602F02DF83946064602F029F8DDF8D8
:104F90000C80414601F0BCFDBBF1020F06D399F82D
:104FA0002510022924BF09EB81014860059920469C
:104FB00002F016F805460498394602F011F8294621
:104FC00002F0DAF8BBF1020F06D399F82510032995
:104FD00024BF09EB810188600699504602F000F871
:104FE000029902F0C9F8BBF1030F05D399F8251017
:104FF000002918BF49F831000699304601F0F0FF4A
:10500000294601F085FDBBF1030F06D399F8251061
:10501000022924BF09EBC10148600498214601F030
:10502000DFFF414601F074FDBBF1030F06D399F891
:105030002510032924BF09EBC1018860002007B0B7
:10504000BDE8F08F012007B0BDE8F08FF0B581B06A
:105050000446084601F030FD49F639524DF64673D4
:10506000CAF25222C3F6917301F048FA00F0F0FE42
:1050700001F022FD05460E4600F074FE00F0E8FE49
:1050800007462846314600F01FFE00F0E1FE87F09B
:105090000041002284E887004FF07E51C4E90402F9
:1050A000C4E906220020216201B0F0BD90F824C0BE
:1050B0008C4509D990F825C0944505D90CFB0121F0
:1050C00040F8213000207047012070472DE9F04F53
:1050D00081B090F825B091F825309B450CD19246CF
:1050E00090F8249091F82420914505D19AF8262033
:1050F00091F826309A4203D2012001B0BDE8F08F2A
:1051000090F82680B8F1000F0ED0AAF104070E1F08
:10511000041F454654F8040F56F8041F01F0F8FC2C
:10512000013D47F8040FF5D18AF825B08AF824909C
:105130008AF82680002001B0BDE8F08FF0B581B07C
:1051400090F8241090F82520514303292DD1D0E95F
:1051500000158468084601F0AFFC02460B4601F0DA
:10516000CDF9064628460F4601F0A6FC02460B463E
:1051700001F0C4F902460B463046394600F09AFE6B
:10518000054620460E4601F097FC02460B4601F00C
:10519000B5F902460B462846314600F08BFE00F07A
:1051A00031FE00F055FE01B0F0BD002001B0F0BDB1
:1051B00042EA0103032B84BF0120704710B502FBB4
:1051C00001FEBEF1000F09D04FF0000C00240023B7
:1051D000013340F824C0DCB2A645F9D880F8241089
:1051E00080F8252080F826E0002010BD40F29820AD
:1051F000C2F20000006840F290210068C2F2000193
:1052000006C9406A401842F10001704740F29820F8
:10521000C2F20000006840F29021C2F20001C068B2
:10522000D1E90023801843F10002C1E90002704770
:10523000B0B5054640F29820C2F20000056040F289
:1052400090200C46C2F200000021C0E9001128465F
:10525000FDF7C8F84DF68360C4F21B30A4FB0001D3
:105260004FF0FF302A6800EB914090624FF47A7063
:10527000D062B0BD0021016040F29821C2F200016D
:10528000096840F290220968C2F200020CCA496A19
:10529000891843F10002C0E90212704710B540F2CC
:1052A0009821C2F20001096840F290220968C2F216
:1052B000000292E80410D1F824E0846802EB0E03A7
:1052C0001B1B0360496A89184CF10002C0E90212F5
:1052D00010BD00002DE9F04395B016468946804682
:1052E0000BA803210122FFF763FF01A8032103227A
:1052F000FFF75EFF3046FFF721FF074601F0DCFBBA
:1053000049F69A1249F69913C9F69912C4F2230381
:1053100004460D4601F07AFC00284BD146F2666344
:10532000C4F22403204629464FF0663201F067FCA0
:1053300000283FD10BAC304649462246FFF7ECFA35
:1053400020462146FFF772FC30464946FFF72EFB08
:1053500080F000444846FFF7F1FE0146384601F070
:105360003FFE0146204601F095FC01F0A5FB00F050
:105370006DFB00F06DFD054680F0004001F09CFBE8
:1053800041F6B8624BF65103CEF68532CBF69E73EA
:1053900004460E4601F041FC78B941F6B8624BF67E
:1053A0005103CEF68532C3F69E732046314601F096
:1053B0002DFC10B115B0BDE8F0830021CCF24821DE
:1053C000284601F067FC01AC02460BA92046FFF716
:1053D00053FD204641464246FFF744FB15B0BDE869
:1053E000F083490050EAC12018BF04204A0D18BFBD
:1053F00040F0010040F2FF72B2EB515F08BF40F095
:105400000200012808BF0520704700002DE9F74F72
:10541000144694B00021C4E902111599079121F0B6
:105420000045C9498D4206DC1599C4E9000117B051
:105430000020BDE8F08FC549DFF814A3A9423CDD88
:105440000799C44E0029C44FC44A1599534619DD23
:1054500001F044FA554506D0C14AC24B01F03EFA6C
:10546000C4E900010AE04FF0D352BE4B01F036FA16
:1054700032463B4601F032FAC4E9000117B0012080
:10548000BDE8F08F00F016FD554506D0B44AB54B87
:1054900000F010FDC4E900010AE04FF0D352B14B17
:1054A00000F008FD32463B4600F004FDC4E900016F
:1054B00017B04FF0FF30BDE8F08FAB49A942159906
:1054C00078DB21F0004183468846A84AA84B01F0CA
:1054D00015F80022A74B00F0EDFC00F03DFF09900D
:1054E00000F069FF06460F469C4A534601F006F855
:1054F00043465A4601F000F980468A46984A994B3D
:105500003046394600F0FAFF2A0D01250B9242463B
:10551000534601F0F1F8032DC4E9000139D00B988E
:10552000C1F30A51401A05EB45111139814230DAB5
:105530009148C346784400EB0510CDF80CA00C90C0
:10554000D0E900233046394600F0D8FF02460B462A
:10555000049106905846039901F0C0F980468A46A6
:1055600002460B465846039901F0B8F9049B069A87
:1055700001F0B4F983460C9803913946D0E902232F
:10558000304600F0BBFF5A46039B01F0A7F96D1CA3
:10559000BDE707980028A2BF099817B0BDE8F08FB3
:1055A000616881F000416160099817B04042BDE830
:1055B000F08FFFE784461598C1F31301C0F30A503A
:1055C000A0F2F5304FEA601800F01F06C6F1200087
:1055D000139000200690079041F4801E05206D4630
:1055E00076B1664A08EB00017A4452F8213002EBAA
:1055F0008101B3404A68139922FA01F1194305E089
:105600005F4908EB0002794451F82210A1FB0E27F4
:10561000A1FB0C131A449A4234BF0123002303EB6D
:10562000070A05EB8003D3E901B70F448F4234BF6B
:105630000121002193448B4411B1934502D903E029
:10564000934501D2012100E00021C3E901B7514493
:1056500045F82010011EA0F10100C1DC0298059F51
:1056600000F10050800F12900298DDE9035680008F
:1056700000F0A1FE834628460D9100F0B3FE6FF0C6
:105680001D0201F020FECDE90E01304600F0AAFE19
:105690006FF03D0201F017FE80468A46384600F062
:1056A000A1FE6FF05D0201F00EFE07464246534632
:1056B000119100F0FFFBDDE90E2300F0FBFB5A46E1
:1056C0000D9B00F0F7FB00250E465A4628460D9B21
:1056D00001F004F9DDE90E2301F000F942465346DA
:1056E00001F0FCF83A46119B01F006F8DFF898A0AB
:1056F000244A534600F002FF07468846234A244BBB
:105700003146284600F0FAFE3A46434600F0D2FB06
:10571000074688464FF0A84253463146284600F0D7
:10572000EDFE3A46434600F0C5FB159A12F0004FD5
:1057300004D0129A81F0004152421292C4E9000151
:10574000129817B0BDE8F08FFB21E93F7CD90240E9
:10575000FB21F93F7370032E8A19A33B00004054CC
:105760003163621A61B4D03DFB21394183C8C96DF0
:10577000305FE43F0000E03FA01E00001C1E000060
:10578000FE1D0000182D4454FB21F93D3326A611BF
:10579000460B113C2DE9FF4D21F0004807460C4611
:1057A000B8F1795F08DA00F0D7FD002801BF0020CA
:1057B000324904B0BDE8F08D3A46234610461946FA
:1057C00000F09CFE054602462D480E460B4606217B
:1057D000784400F05DF82A46334600F08FFEDDE99C
:1057E000022382468B463846214600F087FE044657
:1057F0000F4652465B462846314600F07FFE224661
:105800003B4601F06BF807468A464FF0FF322846C8
:10581000314601F058FD1B4A90450ADA3A46534694
:1058200001F05CF804B00022BDE8F04D134B00F02D
:1058300063BF154A4245A8BFA8F500154FF0000404
:10584000B8BF124D22462B4601F048F8064688465E
:1058500022462B460020094901F040F804460D4637
:105860003A4653463046414601F038F804B02246E5
:105870002B46BDE8F04D00F03FBF00000000F03FB8
:10588000D41B00003333D33F0000E93F0000D23F78
:105890002DE9F0414F1E00EBC7010446D1E900019C
:1058A00015461E4637F006020DD02A46334600F054
:1058B00025FE7F1E04EBC703D3E9002300F0FAFAAC
:1058C00037F00602F1D1022F25D0042F13D0062F76
:1058D00018BFBDE8F0812A46334600F00FFED4E938
:1058E0000A2300F0E7FA2A46334600F007FED4E91F
:1058F000082300F0DFFA2A46334600F0FFFDD4E922
:10590000062300F0D7FA2A46334600F0F7FDD4E923
:10591000042300F0CFFA2A46334600F0EFFDD4E925
:10592000022300F0C7FA2A46334600F0E7FDD4E927
:105930000023BDE8F04100F0BDBA00002DE9FF4DA5
:10594000054621F0004084B00C46B0F1795F0BDAD7
:105950002846FFF746FD042808BF00F06FF82846E8
:1059600008B02146BDE8F08D2A460B46104600F0EF
:10597000C5FD06460F462A46234600F0BFFD804679
:1059800026488A4632463B4605217844FFF780FF89
:1059900083461098029160B3214A224B40465146FB
:1059A00000F0ACFDCDE900015A4640465146029B4D
:1059B00000F0A4FD82468846DDE906014FF0FF3283
:1059C00001F081FC5246434600F088FF32463B46D8
:1059D00000F094FDDDE9062300F080FFDDE90023FF
:1059E00000F07CFF08B02A462346BDE8F04D00F0E9
:1059F00083BE0B465A463046394600F07FFD084AC2
:105A0000084B00F057FA4246534600F077FD08B0C5
:105A10002A462346BDE8F04D00F04CBA1A1B0000A0
:105A2000495555555555C5BF012201F04CBC0022C2
:105A300013461046114600F0F9BA0000024A002051
:105A4000110701F040BC000001FDFFFF2DE9F04D02
:105A50000546DFF8388221F000408D4F82B00C46B9
:105A6000404520DBA0EB080129430BD0894988423F
:105A700001DC10D17DB102B028462146BDE8F04DD1
:105A8000FFF7D2BF002CC7BF00200146824839462D
:105A900002B0BDE8F08D0120FAF7A4FC02B0BDE829
:105AA000F04DFFF7C4BF7D49884244DA7C4981420A
:105AB000A1BF79487B4902B0BDE8F08D2A46234654
:105AC0001046194600F01AFD8346024676480E46F7
:105AD0000B4606217844FFF7DBFE5A46334600F0BA
